:020000040200F8
:10F00000D05B0020010301029D1F01024D1F010280
:10F01000991F010215090102E53C010200000000F0
:10F02000000000000000000000000000C1280102F4
:10F03000A11D0102000000005128010295330102C8
:10F04000170301021703010217030102170301024C
:10F05000170301021703010217030102170301023C
:10F06000170301021703010217030102170301022C
:10F07000170301021703010217030102170301021C
:10F0800017030102170301022DF200021703010208
:10F0900017030102170301021703010217030102FC
:10F0A00017030102170301021703010217030102EC
:10F0B0001703010217030102170301027968010215
:10F0C00017030102170301021703010217030102CC
:10F0D00017030102170301021703010217030102BC
:10F0E00017030102170301021703010217030102AC
:10F0F000170301021703010217030102DFF80CD006
:10F1000001F0D2FB0048004721680102D05B0020DB
:10F1100080B58AB00790ADF81A10EFF31080089010
:10F1200008980490EFF3108072B6099042F238000C
:10F13000C4F201000068800600286ED4FFE740F6A4
:10F14000EC40C2F2000005F017FD05900598032879
:10F150002AD8FFE7FFE705990020029059B1FFE7A1
:10F1600042F20000C4F2010005F048F9B0FA80F064
:10F1700040090290FFE70298C007A0B1FFE740F600
:10F18000EC40C2F200000DF10F0105F089FD9DF881
:10F190000F1042F20000C4F2010004F025F90598B6
:10F1A00001380590D7E737E00598212803D3FFE71A
:10F1B00020200590FFE7FFE7059900200229019034
:10F1C0000BD3FFE742F20000C4F2010005F016F98C
:10F1D000B0FA80F040090190FFE70198C007A0B1A4
:10F1E000FFE740F6EC40C2F200000DF10F0105F020
:10F1F00057FD9DF80F1042F20000C4F2010004F028
:10F20000F3F8059801380590D6E742F20000C4F201
:10F21000010005F019F9FFE7FFE7BFF35F8F0498DE
:10F2200010B9FFE762B6FFE70AB080BD80B584B0D1
:10F2300042F23C00C4F2010000680390039842F2DD
:10F240004401C4F2010108609DF80C0010F0500F59
:10F2500008D1FFE742F20000C4F2010005F0C6F851
:10F2600020BBFFE7FFE742F20000C4F2010005F017
:10F27000BDF8C0B9FFE742F20000C4F2010004F09B
:10F28000ABF8014640F6E020C2F2000005F066FD52
:10F2900040B9FFE740F63411C2F2000108680130BE
:10F2A0000860FFE7DFE7BFF35F8FFFE7BDF80C0003
:10F2B00010F4F06F07D0FFE742F20401C4F201013D
:10F2C00001200860FFE79DF80C008006002868D543
:10F2D000FFE740F6EC40C2F2000005F04DFC029062
:10F2E0000298052831D3FFE70298212803D3FFE7CE
:10F2F00020200290FFE7FFE702990020009059B11B
:10F30000FFE742F20000C4F2010005F077F8B0FA1E
:10F3100080F040090090FFE70098C007A0B1FFE728
:10F3200040F6EC40C2F200000DF1070105F0B8FC18
:10F330009DF8071042F20000C4F2010004F054F8F6
:10F34000029801380290D7E728E042F20000C4F2A8
:10F35000010005F065F8FFE70298F0B1FFE7FFE76D
:10F3600042F20000C4F2010005F048F808B1FFE7DE
:10F37000F6E740F6EC40C2F200000DF1070105F09F
:10F380008FFC9DF8071042F20000C4F2010004F067
:10F390002BF8029801380290DEE7FFE7BFF35F8F9A
:10F3A000FFE704B080BD000080B598B016901591BD
:10F3B000002014901290139040F69C61C2F200015C
:10F3C0000870169800F00F0080EA900080EA500064
:10F3D00000F00100149014984001169901F00F01FB
:10F3E00040EA410040F081001290FFE72021C4F282
:10F3F0001601086840F6FF72CFF2E002104000F1FB
:10F40000807008601021C4F216010868072262F3B8
:10F410000C2008602421C4F2160100200860129814
:10F420002C21C4F216010860FFE748F2A060C0F288
:10F4300001000F90FFE73420C4F216000068C007F7
:10F4400068B1FFE70F9801380F9038B9FFE740F631
:10F450009C61C2F200010120087000E0EBE7FFE7C9
:10F46000FFE740F69C60C2F20000007820B1FFE7A1
:10F4700008208DF85F008DE3FFE72021C4F216011C
:10F4800008684FF60062CFF2FF02104000F10070F2
:10F4900008601021C4F21601086820F4F85040F604
:10F4A0000012C2F20002127E023240EA022008601C
:10F4B0002421C4F21601002008602C20C4F216009A
:10F4C00000681390FFE748F2A060C0F201000E90C0
:10F4D000FFE73420C4F216000068C00768B1FFE7F8
:10F4E0000E9801380E9038B9FFE740F69C61C2F2E1
:10F4F00000010120087000E0EBE7FFE7FFE740F6BE
:10F500009C60C2F20000007820B1FFE708208DF86F
:10F510005F003FE3139840F60011C2F20001097E3C
:10F52000C84000F0070013901398012840F067814D
:10F53000FFE79DF858008007002840F1A180FFE711
:10F54000002012901490FFE72021C4F216010868F1
:10F550004FF60062CFF2FF02104000F10070086029
:10F560001021C4F2160108680F2262F30C20086013
:10F570002421C4F21601002008602C20C4F21600D9
:10F5800000681290FFE748F2A060C0F201000D9001
:10F59000FFE73420C4F216000068C00768B1FFE737
:10F5A0000D9801380D9038B9FFE740F69C61C2F222
:10F5B00000010120087000E0EBE7FFE7FFE7129889
:10F5C0001190FFE71021C4F21601086820F4F850EA
:10F5D00040F60012C2F20002127E103240EA02200F
:10F5E00008602421C4F21601002008602C20C4F217
:10F5F000160000681290FFE748F2A060C0F2010018
:10F600000C90FFE73420C4F216000068C00768B110
:10F61000FFE70C9801380C9038B9FFE740F69C6181
:10F62000C2F200010120087000E0EBE7FFE7FFE70E
:10F630001299119840EA01401190119880EA104007
:10F6400080EA102080EA101080EA900080EA5000E2
:10F6500000F0010014901298C0F30040109014982C
:10F6600010994840C00718B1FFE708201390FFE742
:10F67000159820B1FFE7119815990860FFE78CE015
:10F6800015980068129000201490FFE72021C4F222
:10F690001601086840F6FF72CFF2E002104000F158
:10F6A000807008601022C4F21602106820F4F8502E
:10F6B00040F60011C2F200010B7E0F3340EA032036
:10F6C00010602422C4F21602002010601298097EF5
:10F6D00088402C21C4F216010860FFE748F2A060C0
:10F6E000C0F201000B90FFE73420C4F2160000685E
:10F6F000C00768B1FFE70B9801380B9038B9FFE7F6
:10F7000040F69C61C2F200010120087000E0EBE7C6
:10F71000FFE7FFE7129880EA104080EA102080EAB5
:10F72000101080EA900080EA500000F00100149070
:10F73000FFE71021C4F216010868102262F30C20C2
:10F7400008602421C4F2160100200860BDF84A00B8
:10F75000149940EA01402C21C4F216010860FFE729
:10F7600048F2A060C0F201000A90FFE73420C4F222
:10F7700016000068C00768B1FFE70A9801380A90D0
:10F7800038B9FFE740F69C61C2F200010120087021
:10F7900000E0EBE7FFE7FFE7FFE79DF85800000612
:10F7A000002808D5FFE703F013FE40F60011C2F26F
:10F7B00000018860FFE740F60010C2F20000007B05
:10F7C00000F0ECF940F69C60C2F20000007820B135
:10F7D000FFE708208DF85F00DCE140F69C60C2F294
:10F7E0000000007818B1FFE70820029003E09DF8C0
:10F7F0004C000290FFE702988DF85F00CAE1139871
:10F80000022805D0FFE71398042840F03E81FFE767
:10F8100040F60010C2F20000407E002873D0FFE7DF
:10F820009DF85800800700286DD5FFE7FFE72021ED
:10F83000C4F2160108684FF60062CFF2FF021040D2
:10F8400000F1007008601021C4F2160108680F2250
:10F8500062F30C2008602421C4F216010020086025
:10F860002C20C4F2160000681290FFE748F2A06056
:10F87000C0F201000990FFE73420C4F216000068CE
:10F88000C00768B1FFE709980138099038B9FFE768
:10F8900040F69C61C2F200010120087000E0EBE735
:10F8A000FFE7FFE7FFE71021C4F216010868102206
:10F8B00062F30C2008602421C4F2160100200860C5
:10F8C0002C20C4F2160000681290FFE748F2A060F6
:10F8D000C0F201000890FFE73420C4F2160000686F
:10F8E000C00768B1FFE708980138089038B9FFE70A
:10F8F00040F69C61C2F200010120087000E0EBE7D5
:10F90000FFE7FFE7FFE7FFE72021C4F216010868E1
:10F910004FF60062CFF2FF02104000F10070086065
:10F920001021C4F21601086820F4F85040F60012C5
:10F93000C2F20002137E6FF0FF0202EB03221043BB
:10F9400008602421C4F21601002008602C20C4F2B3
:10F95000160000681290FFE748F2A060C0F20100B4
:10F960000790FFE73420C4F216000068C00768B1B2
:10F97000FFE707980138079038B9FFE740F69C6128
:10F98000C2F200010120087000E0EBE7FFE7FFE7AB
:10F9900040F60010C2F20000407E002871D0FFE760
:10F9A0009DF85800800700286BD4FFE7FFE720216F
:10F9B000C4F21601086840F6FF72CFF2E002104070
:10F9C00000F1807008601021C4F2160108680F224F
:10F9D00062F30C2008602421C4F2160100200860A4
:10F9E0002C21C4F216010860FFE748F2A060C0F2C3
:10F9F00001000690FFE73420C4F216000068C0073B
:10FA000068B1FFE706980138069038B9FFE740F67D
:10FA10009C61C2F200010120087000E0EBE7FFE703
:10FA2000FFE7FFE71021C4F216010868102262F315
:10FA30000C2008602421C4F21601002008602C214B
:10FA4000C4F216010860FFE748F2A060C0F20100AE
:10FA50000590FFE73420C4F216000068C00768B1C3
:10FA6000FFE705980138059038B9FFE740F69C613B
:10FA7000C2F200010120087000E0EBE7FFE7FFE7BA
:10FA8000FFE713988DF85F0084E0FFE72021C4F2C0
:10FA9000160108684FF60062CFF2FF02104000F135
:10FAA000007008601021C4F2160108680F2262F38A
:10FAB0000C2008602421C4F21601002008602C20CC
:10FAC000C4F2160000681290FFE748F2A060C0F28E
:10FAD00001000490FFE73420C4F216000068C0075C
:10FAE00068B1FFE704980138049038B9FFE740F6A1
:10FAF0009C61C2F200010120087000E0EBE7FFE723
:10FB0000FFE7FFE71021C4F21601086820F4F8505F
:10FB100040F60012C2F20002127E103240EA0220C9
:10FB200008602421C4F21601002008602C20C4F2D1
:10FB3000160000681290FFE748F2A060C0F20100D2
:10FB40000390FFE73420C4F216000068C00768B1D4
:10FB5000FFE703980138039038B9FFE740F69C614E
:10FB6000C2F200010120087000E0EBE7FFE7FFE7C9
:10FB700040F69C60C2F20000007818B1FFE7082050
:10FB8000019003E09DF84C000190FFE701988DF88B
:10FB90005F00FFE79DF85F0018B080BD86B005905C
:10FBA000059808B9FFE799E00598212803D3FFE7F6
:10FBB0002020019002E005980190FFE70198049051
:10FBC000FFE72021C4F21601086840F6FF72CFF269
:10FBD000E002104000F1807008601021C4F21601AC
:10FBE000086820F4F850049B6FF0FF0202EB032238
:10FBF000104308602421C4F21601002008602C2163
:10FC0000C4F216010860FFE748F2A060C0F20100EC
:10FC10000390FFE73420C4F216000068C00768B103
:10FC2000FFE703980138039038B9FFE740F69C617D
:10FC3000C2F200010120087000E0EBE7FFE7FFE7F8
:10FC400004990598401A0590FFE70598002845D0CB
:10FC5000FFE70598212803D3FFE72020009002E06A
:10FC600005980090FFE700980490FFE71021C4F288
:10FC70001601086820F4F850049B6FF0FF0202EBB5
:10FC80000322104308602421C4F2160100200860FA
:10FC90002C21C4F216010860FFE748F2A060C0F210
:10FCA00001000290FFE73420C4F216000068C0078C
:10FCB00068B1FFE702980138029038B9FFE740F6D3
:10FCC0009C61C2F200010120087000E0EBE7FFE751
:10FCD000FFE704990598401A0590B6E706B070470B
:10FCE00087B0069005910698C0080490069800F029
:10FCF00007000390049800287DD0FFE7FFE720214C
:10FD0000C4F21601086840F6FF72CFF2E00210401C
:10FD100000F1807008601021C4F216010868072203
:10FD200062F30C2008602421C4F216010020086050
:10FD30000598411C059100782C21C4F21601086039
:10FD4000FFE748F2A060C0F201000290FFE7342014
:10FD5000C4F216000068C00768B1FFE702980138D6
:10FD6000029038B9FFE740F69C61C2F20001012021
:10FD7000087000E0EBE7FFE7FFE704980138049024
:10FD8000FFE70498411E0491A0B3FFE7FFE71021AD
:10FD9000C4F216010868072262F30C2008602421CF
:10FDA000C4F21601002008600598411C05910078F6
:10FDB0002C21C4F216010860FFE748F2A060C0F2EF
:10FDC00001000190FFE73420C4F216000068C0076C
:10FDD00068B1FFE701980138019038B9FFE740F6B4
:10FDE0009C61C2F200010120087000E0EBE7FFE730
:10FDF000FFE7C6E7FFE70398002843D0FFE7FFE7E8
:10FE00002021C4F21601086840F6FF72CFF2E0022A
:10FE1000104000F1807008601021C4F216010868DB
:10FE200020F4F850039B6FF0FF0202EB0322104313
:10FE300008602421C4F216010020086005980078AB
:10FE40002C21C4F216010860FFE748F2A060C0F25E
:10FE500001000090FFE73420C4F216000068C007DC
:10FE600068B1FFE700980138009038B9FFE740F625
:10FE70009C61C2F200010120087000E0EBE7FFE79F
:10FE8000FFE7FFE707B070478DB00C900B910A9227
:10FE90000C9800F03F000890089818B9FFE7402040
:10FEA0000890FFE79DF830000006002840F1168119
:10FEB000FFE708990020B0EBD10F00F08680FFE744
:10FEC000FFE72021C4F2160108684FF60062CFF266
:10FED000FF02104000F1007008601021C4F216010A
:10FEE0000868072262F30C2008602421C4F216017E
:10FEF000002008602C20C4F2160000680990FFE77B
:10FF000048F2A060C0F201000790FFE73420C4F27D
:10FF100016000068C00768B1FFE70798013807902E
:10FF200038B9FFE740F69C61C2F200010120087079
:10FF300000E0EBE7FFE7FFE709980A994A1C0A92FD
:10FF40000870089808380890FFE708990020B0EB7F
:10FF5000D10F39D0FFE7FFE71021C4F2160108687E
:10FF6000072262F30C2008602421C4F2160100204D
:10FF700008602C20C4F2160000680990FFE748F2E0
:10FF8000A060C0F201000690FFE73420C4F2160022
:10FF90000068C00768B1FFE706980138069038B9D5
:10FFA000FFE740F69C61C2F200010120087000E00A
:10FFB000EBE7FFE7FFE709980A994A1C0A920870E5
:10FFC000089808380890C0E7FFE70898002800F074
:10FFD0008480FFE70C9800F03F000899884242D1E6
:10FFE000FFE7FFE72021C4F2160108684FF6006220
:10FFF000CFF2FF02104000F1007008601021C4F23F
:020000040201F7
:100000001601086820F4F850089B6FF0FF0202EB1D
:100010000322104308602421C4F216010020086066
:100020002C20C4F2160000680990FFE748F2A06097
:10003000C0F201000590FFE73420C4F2160000680A
:10004000C00768B1FFE705980138059038B9FFE7A8
:1000500040F69C61C2F200010120087000E0EBE76D
:10006000FFE7FFE735E0FFE71021C4F2160108685B
:1000700020F4F850089B6FF0FF0202EB03221043BC
:1000800008602421C4F21601002008602C20C4F26C
:10009000160000680990FFE748F2A060C0F2010076
:1000A0000490FFE73420C4F216000068C00768B16E
:1000B000FFE704980138049038B9FFE740F69C61E7
:1000C000C2F200010120087000E0EBE7FFE7FFE764
:1000D000FFE709980A990870FFE70FE108990020E7
:1000E000B0EBD10F00F08280FFE7FFE72021C4F2E0
:1000F0001601086840F6FF72CFF2E002104000F1EE
:10010000807008601021C4F216010868072262F3AB
:100110000C2008602421C4F21601002008600B980E
:10012000411C0B9100782C21C4F216010860FFE7F6
:1001300048F2A060C0F201000390FFE73420C4F24F
:1001400016000068C00768B1FFE703980138039004
:1001500038B9FFE740F69C61C2F200010120087047
:1001600000E0EBE7FFE7FFE7089808380890FFE7B3
:1001700008990020B0EBD10F37D0FFE7FFE710213F
:10018000C4F216010868072262F30C2008602421DB
:10019000C4F21601002008600B98411C0B910078F6
:1001A0002C21C4F216010860FFE748F2A060C0F2FB
:1001B00001000290FFE73420C4F216000068C00777
:1001C00068B1FFE702980138029038B9FFE740F6BE
:1001D0009C61C2F200010120087000E0EBE7FFE73C
:1001E000FFE7089808380890C2E7FFE7089800285A
:1001F00000F08380FFE70C9800F03F0008998842E8
:1002000043D1FFE7FFE72021C4F21601086840F65A
:10021000FF72CFF2E002104000F180700860102100
:10022000C4F21601086820F4F850089B6FF0FF0232
:1002300002EB0322104308602421C4F216010020BF
:1002400008600B9800782C21C4F216010860FFE7C3
:1002500048F2A060C0F201000190FFE73420C4F230
:1002600016000068C00768B1FFE7019801380190E7
:1002700038B9FFE740F69C61C2F200010120087026
:1002800000E0EBE7FFE7FFE736E0FFE71021C4F20D
:100290001601086820F4F850089B6FF0FF0202EB8B
:1002A0000322104308602421C4F2160100200860D4
:1002B0000B9800782C21C4F216010860FFE748F281
:1002C000A060C0F201000090FFE73420C4F21600E5
:1002D0000068C00768B1FFE700980138009038B99E
:1002E000FFE740F69C61C2F200010120087000E0C7
:1002F000EBE7FFE7FFE7FFE7FFE7FFE70DB070473A
:1003000005480047FEE7FEE7FEE7FEE7FEE7FEE7FB
:10031000FEE7FEE7FEE7FEE7FDF000022DE9F05FF5
:100320000546002092469B46884606468146402464
:100330001BE0284641464746224600F096F95346C0
:100340005A46C01A914110D311461846224600F071
:100350007DF92D1A67EB01084F4622460120002146
:1003600000F074F917EB00094E41201EA4F10104BE
:10037000DFDC484631462A464346BDE8F09F40EA66
:1003800001039B0703D009E008C9121F08C0042A13
:10039000FAD203E011F8013B00F8013B521EF9D2FA
:1003A0007047D2B201E000F8012B491EFBD2704722
:1003B0000022F6E710B513460A4604461946FFF731
:1003C000F0FF204610BD421C10F8011B0029FBD194
:1003D000801A704730B504460020034600E05B1CDD
:1003E000934203D2E05CCD5C401BF8D030BD2DE9D8
:1003F000FE4F804681EA0300C00F0C46009021F0BA
:10040000004123F00045B8EB0200A94105D2404667
:10041000214690461C460B46024623F000401043FE
:1004200047D0270DC7F30A00C3F30A510290401AC0
:10043000019040286BDAC3F3130040F4801B00984E
:10044000924620B10023D2EB030A63EB0B0B019819
:100450005946C0F14002504600F0F8F806460D46F5
:1004600050465946019A00F010F910EB080061411E
:10047000002487EA115284EAE7731A4340D0009AB5
:1004800062B3019A012A4FEA075215DC001B61EBA7
:1004900002014FF0004202EA0752CDE90042001C7F
:1004A00041F5801132462B4600F010F903B0BDE84B
:1004B000F08F40462146F9E7001B61EB0201001C6A
:1004C00041F5801300185B412018A2F5001747EB97
:1004D000030140EAD570B6196D4111E06D084FEA8D
:1004E000360645EAC0754FEA0752001B61EB020170
:1004F000001C41F5801149084FEA300000195141B4
:1005000032462B4603B0BDE8F04F00F0D0B800985B
:10051000012240000023D0EB020263EBE07300985D
:1005200021464FEAE074B8EB000061EB0401E9E713
:1005300083F000435BE781F0004158E72DE9FE4F6F
:1005400081EA030404F0004421F0004100944FF0DC
:10055000000B23F0004350EA01045ED052EA03048A
:100560005BD0C3F30A54C1F30A552C44A4F2F3340C
:100570000194A0FB0254C1F3130141F48011C3F3B1
:10058000130343F4801301FB024400FB034E840A6F
:10059000970A44EA815447EA8357A4FB0768029507
:1005A0008D0A05FB07854FEA932C04FB0C542705A5
:1005B000029D4FEA065847EA1637B5EB08056EEB81
:1005C000070C870E920E47EA811742EA8312A7FBB7
:1005D0000201B6EB0B0164EB00042B0D43EA0C3374
:1005E0005E1844EB1C50DA465146E7FB0201C5F3A6
:1005F00013044FEA0B3343EA14534FEA0432019CCD
:1006000043EA0603A4F10C040294009CCDE900B473
:1006100000F05CF803B0BDE8F08F00200146F9E778
:1006200030B50B46014600202022012409E021FAC2
:1006300002F59D4205D303FA02F5491B04FA02F5BF
:100640002844151EA2F10102F1DC30BD202A04DB92
:10065000203A00FA02F1002070479140C2F12003D5
:1006600020FA03F3194390407047202A04DB203A14
:1006700021FA02F00021704721FA02F3D040C2F1C2
:1006800020029140084319467047202A06DBCB1709
:10069000203A41FA02F043EAE07306E041FA02F33D
:1006A000D040C2F12002914008431946704710B56E
:1006B000141E73F1000408DA401C41F10001921885
:1006C0005B411A4301D120F0010010BD2DE9F04D2E
:1006D00092469B4611B1B1FA81F202E0B0FA80F283
:1006E00020329046FFF7B2FF04460F4640EA0A0068
:1006F00041EA0B0153465A46084313D0114653EAC8
:10070000010019D0C8F140025046FFF7AEFF054680
:100710000E46504659464246FFF798FF084305D01B
:10072000012004E020463946BDE8F08D0020054355
:1007300046EAE0762C4337430A986305E40AA0EBC7
:1007400008000022FD0A44EA47540A3002D500207E
:100750000146E9E7010510196941DDE9084500197D
:100760006941BDE8F04DA2E72DE9F04D81EA0304AF
:1007700004F0004B21F0004514464FF0000A23F02E
:10078000004150EA050220D054EA01021DD0C5F311
:100790000A570246C5F31303C1F31300C1F30A5607
:1007A00040F4801543F48013A7EB0608101BD646CF
:1007B00008F2FD3873EB050002D308F1010801E0EF
:1007C00092185B41B8F1000F03DA00200146BDE842
:1007D000F08D00204FF48011064684460EE0171B72
:1007E00073EB050705D3121B63EB050306434CEAC5
:1007F000010C49084FEA300092185B4150EA0107AA
:10080000EDD152EA030012D082EA040083EA050126
:10081000084305D0101BAB4106D20122002306E09D
:1008200000224FF0004302E06FF0010253101AEB78
:1008300006004CEB085110EB0A0041EB0B01BDE840
:10084000F04DFFF734BFC1F30A52C1F3130140F278
:10085000FF3341F480119A4202DA002001467047CA
:1008600040F233439A42A2F2334202DC5242FFF793
:10087000FCBEFFF7EBBE000030B5041E71F10004B2
:1008800004DB4FF00044404264EB0101141E73F19D
:10089000000405DB1C464FF00043524263EB0403A7
:1008A000994208BF904230BD1CB5094800900948E4
:1008B00001900546009C06E0E06840F0010394E8E2
:1008C000070098471034AC42F6D3FEF71BFC00003B
:1008D00098EE0102B8EE010230B58C1810F8012B29
:1008E00012F00F0301D110F8013B120906D110F8E4
:1008F000012B03E010F8015B01F8015B5B1EF9D1ED
:1009000001E001F8013B521EFBD1A142E6D30020D9
:1009100030BD0000FFE7FEE780B584B00390029190
:100920000398007818B9FFE70120019003E00398CD
:1009300000780190FFE70198012809D1FFE740F610
:100940000011C2F200010120087001F079FF02E0FD
:1009500000200190FFE70198029908704FF0011004
:1009600004B080BD85B0029001910298008800908B
:1009700040F62010C2F2000000684CF6CD41CCF6E3
:10098000CC41A0FB0110C0084FF2A171C1F2C60119
:10099000A0FB0101022000EB114045F25651C5F2C7
:1009A0005551A0FB01010098484300900098049025
:1009B00004980390FFE703980138039003980028F8
:1009C000F9D1FFE70199002008700120C0F2020070
:1009D00005B0704780B582B0019040F60011C2F2B8
:1009E000000100200090087001F00EFF00980199AE
:1009F0000870012002B080BD85B004900391049876
:100A000002900498013004900498411C04910078ED
:100A10000190FFE70198F8B1FFE70498411C0491A9
:100A2000007800909DF80000800700280BD5FFE7B4
:100A30009DF80000C006002804D5FFE704980430A4
:100A40000490FFE703E0049804300490FFE7FFE719
:100A5000019801380190DDE703990020087003999F
:100A6000487004980299401A0004023005B070479B
:100A700080B586B004900391049800787F2832D125
:100A8000FFE70498411C0491007803994A1C0392E3
:100A900008700498411C0491007802900298039910
:100AA0004A1C039208704FF002100190FFE7029871
:100AB000411E0291A0B1FFE70498039900F07CF970
:100AC00000900099019808440190BDF80210049824
:100AD00008440490BDF80010039808440390E6E72A
:100AE0000198059005E00498039900F065F90590D8
:100AF000FFE7059806B080BD81B00090002001B0EE
:100B00007047000081B00090002001B070470000E5
:100B100081B00090002001B07047000081B00090CB
:100B2000002001B07047000081B00090002001B0AB
:100B30007047000081B00090002001B070470000B5
:100B400081B00090002001B07047000081B000909B
:100B5000002001B07047000080B584B00290019180
:100B6000029800780146009120B1FFE70098012823
:100B700007D00DE00298407800F0010001F0F0F994
:100B80000EE00298407800F0010001F001FA07E061
:100B90000199FF2008700120C0F20200039007E0D5
:100BA0000199002008700120C0F202000390FFE7C5
:100BB000039804B080BD000080B584B08DF80F00AC
:100BC000029100208DF807009DF80F00014600916A
:100BD00001283CD0FFE7009802283ED0FFE70098AC
:100BE000032840D0FFE70098042842D0FFE7009890
:100BF00005284BD0FFE7009806284DD0FFE7009866
:100C000007284FD0FFE70098082851D0FFE7009849
:100C1000092853D0FFE70098F02855D0FFE7009847
:100C2000F1285BD0FFE70098FB2858D0FFE7009839
:100C3000FC2855D0FFE70098FD2852D0FFE7009828
:100C4000FE2859D0FFE70098FF284BD05BE00298C0
:100C5000FFF77CFF8DF8070056E00298FFF752FF80
:100C60008DF8070050E00298FFF752FF8DF807005B
:100C70004AE006208DF8070002989DF807204EF202
:100C80006211C0F20121FFF77AFB3DE00298FFF705
:100C900057FF8DF8070037E00298FFF74BFF8DF8FC
:100CA000070031E00298FFF73FFF8DF807002BE0C7
:100CB0000298FFF733FF8DF8070025E00298FFF751
:100CC0001BFF8DF807001FE00299112008700299A0
:100CD0000120487002208DF8070015E014E013E0B1
:100CE00012E011E00299402008700299002048703B
:100CF00002208DF8070007E0029908200870012003
:100D00008DF8070000E0FFE79DF8070004B080BD04
:100D100083B0029001910298007800900199FF2021
:100D2000087000994FF0011000EB014003B07047CC
:100D300082B0019000910099FF2008704FF00110DF
:100D400002B0704787B0069005910599481C059040
:100D5000FF2008700120029001900698411C069126
:100D600000780390FFE70398411E0391E8B1FFE785
:100D70000698411C069100780490049800F03F000A
:100D80000090009818B9FFE740200090FFE7009816
:100D90000730C00800900099069808440690009813
:100DA0000299084401300290DDE70299019840EA77
:100DB000014007B07047000080B586B004900391F1
:100DC000049890F90000B0F1FF3F0BDCFFE70498B6
:100DD00000789F2806D8FFE70498039900F0A6F84A
:100DE0000590A0E00498007803994A1C03920870CB
:100DF0000498411C04910078014601911D2800F2DD
:100E000085800199DFE801F00F1E242A6A7076823E
:100E10007C2F3582828282823A40464C585E6482C0
:100E20008282828282520498007803990131FFF70E
:100E3000C3FE0290029803990870029800F1021014
:100E4000059070E004980399FFF786FE029065E034
:100E500004980399FFF760FD02905FE00398FFF7A5
:100E6000B9FD02905AE004980399FFF77BFD0290C8
:100E700054E0039800F0A6F802904FE0049803991C
:100E800000F0E0FD029049E00498039900F0BAFDFB
:100E9000029043E00498039900F0BAFE02903DE00E
:100EA0000498039900F0C2F8029037E0049803997F
:100EB00000F0DAF8029031E004980399FFF742FF5E
:100EC00002902BE004980399FFF722FF029025E09F
:100ED00004980399FFF72CFF02901FE004980399F0
:100EE00000F022FF029019E00498039900F0CAFE76
:100EF000029013E00498039900F0E0FE02900DE0E8
:100F00000498039900F02EFF029007E00399FF2058
:100F100001F8010C4FF00110059004E0029800F177
:100F200001100590FFE7059806B080BD84B00390DE
:100F300002914FF0011001900398007802994A1C29
:100F4000029208700398411C039100788038014692
:100F500000911F2832D80099DFE801F01011121318
:100F60001415161718191A1B1C1D1E1F20212223C9
:100F70002425262728292A2B2C2D2E2F1EE01DE084
:100F80001CE01BE01AE019E018E017E016E015E09D
:100F900014E013E012E011E010E00FE00EE00DE0CD
:100FA0000CE00BE00AE009E008E007E006E005E0FD
:100FB00004E003E002E001E000E0FFE7019804B094
:100FC0007047000080B582B0019001F073FC019978
:100FD0004870019900200870022002B080BD000016
:100FE00080B582B04FF48020009001900320C0F2C1
:100FF000300001F0C7FC009845F22802C4F201025B
:101000001168019B994341F48021116045F234023B
:10101000C4F201021168019B9943116045F22C0151
:10102000C4F20101086002B080BD000083B00290EC
:101030000191029800788DF803009DF8030000F0FC
:101040000300013040F60011C2F2000108769DF85D
:101050000300C0F3800048760199002008704FF02B
:10106000011003B07047000080B588B0079006916A
:101070000699481C069000200870012003900290F9
:101080000798411C079100780490FFE70498411EDF
:101090000491002841D0FFE70798411C0791007890
:1010A0000590059800F03F000190019818B9FFE7FE
:1010B00040200190FFE701980730C00801909DF89B
:1010C00014000006002801D5FFE700E0FFE70598BF
:1010D0000799069AFEF7D8FE049808B9FFE7FFE7DC
:1010E0009DF81400000600280CD5FFE70398013096
:1010F00003900199069808440690019902980844C3
:10110000029009E001990798084407900198039913
:10111000084401300390FFE7B8E70399029840EADA
:10112000014008B080BD000080B59AB019901891B8
:1011300019981790002013901290189914911899EB
:101140000231189140F61C11C2F200010870119092
:1011500010901998013019901998411C1991007834
:101160001690FFE71698002800F05582FFE71998BF
:10117000411C1991007815909DF8540080070028B3
:1011800040F1A681FFE71198002873D0FFE740F6F1
:101190000010C2F20000008A0D90159800F01100B6
:1011A000012824D1FFE7FFE715980CA9FEF7FCF80A
:1011B0001290FFE71299002002290B9011D1FFE74E
:1011C0000D99481E0D9000200B9051B1FFE740F69D
:1011D0001C10C2F200000078B0FA80F040090B90B9
:1011E000FFE70B98C0070028DED1FFE725E0FFE707
:1011F0000E200CA9FEF7D8F81290FFE712990020F4
:1012000002290A9011D1FFE70D99481E0D90002088
:101210000A9051B1FFE740F61C10C2F200000078BE
:10122000B0FA80F040090A90FFE70A98C00700284A
:10123000DED1FFE700201190FFE71298012801D0CE
:10124000FFE7E8E10C9818994A1C189208700C986E
:10125000000A18994A1C18920870BDF832001899B3
:101260004A1C189208709DF8330018994A1C18926D
:101270000870FFE79DF85400C006002840F1AA80DE
:10128000FFE7199800680F9019980430199040F6FC
:101290000010C2F20000408A0E909DF85400C00772
:1012A00078B3FFE740F60010C2F20000008A0D900C
:1012B000FFE715980021FEF777F81290FFE71299E3
:1012C00000200229099011D1FFE70D99481E0D90C9
:1012D0000020099051B1FFE740F61C10C2F2000057
:1012E0000078B0FA80F040090990FFE70998C0073C
:1012F0000028DED1FFE71298012801D0FFE78AE13C
:10130000FFE7FFE740F60010C2F20000008A0D90F0
:10131000FFE715980CA9FEF747F81290FFE712991E
:1013200000200229089011D1FFE70D99481E0D9069
:101330000020089051B1FFE740F61C10C2F20000F7
:101340000078B0FA80F040090890FFE70898C007DD
:101350000028DED1FFE71298012801D0FFE723E043
:10136000FFE70C9840F60011C2F200014969014004
:101370000F9A00209142079011D0FFE70E99481E66
:101380000E900020079051B1FFE740F61C10C2F20A
:1013900000000078B0FA80F040090790FFE7079856
:1013A000C0070028AED1FFE70C9840F60011C2F24A
:1013B0000001496908400F99884205D0FFE712985B
:1013C00040F010001290FFE71298012801D0FFE7CB
:1013D00021E17AE040F60010C2F20000008A0D9090
:1013E0009DF85400C00778B3FFE7119858BBFFE79A
:1013F000FFE715980021FDF7D7FF1290FFE712993C
:1014000000200229069011D1FFE70D99481E0D908A
:101410000020069051B1FFE740F61C10C2F2000018
:101420000078B0FA80F040090690FFE70698C00700
:101430000028DED1FFE71298012801D0FFE7EAE09B
:1014400001201190FFE73FE0FFE715980CA9FDF799
:10145000ABFF1290FFE7129900200229059011D1ED
:10146000FFE70D99481E0D900020059051B1FFE750
:1014700040F61C10C2F200000078B0FA80F040097B
:101480000590FFE70598C0070028DED1FFE7129816
:10149000012801D0FFE7BEE00C9818994A1C189269
:1014A00008700C98000A18994A1C18920870BDF828
:1014B000320018994A1C189208709DF83300189948
:1014C0004A1C18920870FFE7FFE70020109092E096
:1014D0001198002848D0FFE740F60010C2F2000043
:1014E000008A0D90FFE70E200CA9FDF75DFF12901A
:1014F000FFE7129900200229049011D1FFE70D990E
:10150000481E0D900020049051B1FFE740F61C10DA
:10151000C2F200000078B0FA80F040090490FFE7C2
:101520000498C0070028DED1FFE71298012801D0F7
:10153000FFE770E00C9818994A1C189208700C98F4
:10154000000A18994A1C18920870BDF832001899C0
:101550004A1C189208709DF8330018994A1C18927A
:10156000087000201190FFE7199800680C901998F6
:10157000043019909DF854008006002809D5FFE733
:101580000C9840F60011C2F200014861012012904F
:1015900030E040F60010C2F20000008A0D90FFE734
:1015A00015980CA9FDF700FF1290FFE71299002093
:1015B0000229039011D1FFE70D99481E0D900020DC
:1015C000039051B1FFE740F61C10C2F20000007812
:1015D000B0FA80F040090390FFE70398C0070028A5
:1015E000DED1FFE71298012801D0FFE713E00120C8
:1015F0001090FFE7FFE713980130139040F61C109E
:10160000C2F20000007808B1FFE704E0FFE7169897
:1016100001381690A6E5FFE71698F8B1FFE719988C
:10162000411C1991007815909DF8540080070028FE
:101630000BD5FFE79DF85400C006002804D5FFE74E
:10164000199804301990FFE703E0199804301990B5
:10165000FFE7FFE7169801381690DDE7129801289A
:1016600079D1FFE71198002846D0FFE740F6001037
:10167000C2F20000008A0D90FFE70E200CA9FDF7D2
:1016800093FE1290FFE7129900200229029011D1D7
:10169000FFE70D99481E0D900020029051B1FFE721
:1016A00040F61C10C2F200000078B0FA80F0400949
:1016B0000290FFE70298C0070028DED1FFE71298EA
:1016C000012801D0FFE747E00C9818994A1C1892AE
:1016D00008700C98000A18994A1C18920870BDF8F6
:1016E000320018994A1C189208709DF83300189916
:1016F0004A1C189208702DE0109850B3FFE740F68E
:101700000010C2F20000008A0D90FFE70E200021B9
:10171000FDF74AFE1290FFE712990020022901907E
:1017200011D1FFE70D99481E0D900020019051B195
:10173000FFE740F61C10C2F200000078B0FA80F01B
:1017400040090190FFE70198C0070028DED1FFE7BC
:10175000FFE7FFE7FFE7FFE7139814990870129877
:101760001499487019981799411A1898149A801A60
:1017700040EA01401AB080BD80B58EB00D900C914A
:101780000020099008900C9907910C9903310C9155
:1017900040F61C11C2F2000108700D9801300D9046
:1017A0000D9800880B900D9802300D900B9808B999
:1017B000FFE704E10D98411C0D9100780A909DF817
:1017C00028008007002840F19180FFE79DF828005D
:1017D000C00778B3FFE740F60010C2F20000008AAD
:1017E0000690FFE70A980021FDF7DEFD0890FFE76D
:1017F000089900200229049011D1FFE70699481E9C
:1018000006900020049051B1FFE740F61C10C2F290
:1018100000000078B0FA80F040090490FFE70498D7
:10182000C0070028DED1FFE70898012801D0FFE7B4
:10183000C5E0FFE7FFE70B98411E0B91002854D04D
:10184000FFE70B9840B9FFE79DF82800C00718B1E3
:10185000FFE70E200A90FFE740F60010C2F20000FA
:10186000008A0690FFE70A9805A9FDF79DFD0890FC
:10187000FFE7089900200229039011D1FFE706999C
:10188000481E06900020039051B1FFE740F61C105F
:10189000C2F200000078B0FA80F040090390FFE740
:1018A0000398C0070028DED1FFE70898012801D07F
:1018B000FFE784E005980C994A1C0C920870059883
:1018C000000A0C994A1C0C920870BDF816000C997D
:1018D0004A1C0C9208709DF817000C994A1C0C9237
:1018E0000870099801300990A5E767E0FFE70B98B9
:1018F000411E0B91C0B3FFE70D98006805900D984D
:1019000004300D9040F60010C2F20000008A0690EC
:10191000FFE70A9805A9FDF747FD0890FFE708993A
:1019200000200229029011D1FFE70699481E069077
:101930000020029051B1FFE740F61C10C2F20000F7
:101940000078B0FA80F040090290FFE70298C007E3
:101950000028DED1FFE70898012801D0FFE72EE03C
:10196000099801300990C2E740F60010C2F2000069
:10197000008A0690FFE70E200021FDF715FD089074
:10198000FFE7089900200229019011D1FFE706998D
:10199000481E06900020019051B1FFE740F61C1050
:1019A000C2F200000078B0FA80F040090190FFE731
:1019B0000198C0070028DED1FFE7FFE7FFE709989D
:1019C000079908700998000A0799487008980799BC
:1019D00088700C980799401A0EB080BD80B584B00D
:1019E000039002910398D0F801000190002000902C
:1019F00001A9FDF7D9FC009802990870012004B0F4
:101A000080BD000080B586B0049003910498006802
:101A10000290029840B9FFE70399FF200870012067
:101A2000C0F2040005900AE0029801F03BFC039923
:101A3000002008700120C0F204000590FFE705981F
:101A400006B080BD80B590B00C900B910C980078DA
:101A50000A900C98407809900C98D0F802000890F1
:101A60009DF82400C00740B1FFE79DF82800C0079B
:101A700008B1FFE700E0FFE7FFE79DF824008007DB
:101A8000002809D5FFE79DF828008007002801D528
:101A9000FFE700E0FFE7FFE79DF82400400700288C
:101AA00004D5FFE70A9880080D90FFE79DF8240011
:101AB0008006002804D5FFE70A9840090E90FFE74A
:101AC0009DF824000006002821D5FFE70A98C009E8
:101AD0000F9009200690002100F0BAFD0698012120
:101AE00000F0A4FA0F9828B1FFE70920002100F0C8
:101AF000A1F90BE006F030FA09200590002100F072
:101B0000EBF90598012100F095F9FFE7FFE7089848
:101B1000002861D0FFE70120089001F05BFC0790EE
:101B2000FFE79DF82400C00760B1FFE70A98049022
:101B3000072000F057F901460498484001D0FFE71C
:101B400041E0FFE79DF82400800700280CD5FFE75F
:101B50000A980390082000F045F9039990EA510F84
:101B600001D0FFE72FE0FFE79DF8240040070028A1
:101B700008D5FFE70A990020B0EB910F01D0FFE7ED
:101B800021E0FFE79DF824008006002808D5FFE744
:101B90000A990020B0EB511F01D0FFE713E0FFE7E7
:101BA0009DF82400000600280CD5FFE70A98029053
:101BB000092000F017F9029990EAD11F01D0FFE740
:101BC00001E0FFE707E001F005FC0799401A0899DA
:101BD0008842A6D3FFE7FFE7072000F003F9009053
:101BE000082000F0FFF80146009840EA410001900B
:101BF000092000F0F7F80146019840EAC1100A9068
:101C00000A980B9908700120C0F2060010B080BD40
:101C100080B584B0039002910398411C0391007831
:101C20000190019820B9FFE74FF480700190FFE721
:101C300001980399FEF754F8029900200870019862
:101C40000730C008019001994FF0011000EB0140EE
:101C500004B080BD80B540F60011C2F20001002042
:101C60000870087364220A824882486101220A7659
:101C7000487649F28060C0F2980001F013FBFFF74C
:101C8000AFF980BD80B584B00390029140F600109A
:101C9000C2F200000078012806D1FFE703980299FC
:101CA000FFF742FA019005E003980299FEF7A4FEBF
:101CB0000190FFE7019804B080BD000080B584B0BA
:101CC0000390029140F60010C2F200000078012853
:101CD00006D1FFE703980299FFF74EFD019009E056
:101CE00002990020087002994870029988700320B8
:101CF0000190FFE70398C0788007002805D5FFE72B
:101D0000019840F4802001900BE00398417880789E
:101D1000800640EA814000F5802101980843019047
:101D2000FFE7019804B080BD82B001900091019856
:101D3000007840F60011C2F200010873019A507851
:101D4000927840EA02200882019AD078127940EA1B
:101D5000022048820099002008700120C0F205008E
:101D600002B0704780B584B00390029140F6001035
:101D7000C2F200000078012806D1FFE7039802991B
:101D8000FFF72CFE019005E00299FF20087001206A
:101D90000190FFE7019840F4A02004B080BD00004E
:101DA0007047000082B001908DF803108DF802207A
:101DB0009DF8020050B1FFE79DF80310012000FAE2
:101DC00001F2019908681043086009E09DF80310CA
:101DD000012000FA01F20199086890430860FFE7CA
:101DE00002B0704784B08DF80F009DF80F1045F2D7
:101DF0000000C4F201001429C4BF46F20000C4F27E
:101E0000010002909DF80F00152805DBFFE79DF803
:101E10000F001538009003E09DF80F000090FFE7D9
:101E2000009801900298006A0199C84000F00100F2
:101E300004B0704780B586B08DF817008DF8161085
:101E40009DF8171045F20000C4F201001429C4BF28
:101E500046F20000C4F2010004909DF81700152816
:101E600005DBFFE79DF817001538029003E09DF8A9
:101E700017000290FFE7029803909DF816000328D0
:101E800017D0FFE7049828309DF80C109DF8162015
:101E9000002A18BF0122FFF785FF049834309DF80F
:101EA0000C109DF81620B2FA82F25209FFF77AFF61
:101EB0000FE0049828309DF80C1000220192FFF7E3
:101EC00071FF019A049834309DF80C10FFF76AFFF7
:101ED000FFE706B080BD000084B08DF80F008DF8DC
:101EE0000E109DF80F1045F20000C4F201001429F5
:101EF000C4BF46F20000C4F2010002909DF80F003A
:101F0000152805DBFFE79DF80F001538009003E06A
:101F10009DF80F000090FFE7009801909DF80E00DB
:101F200048B1FFE70199012000FA01F20299086B1C
:101F30001043086308E00199012000FA01F20299B8
:101F4000C86A1043C862FFE704B0704780B54EF21C
:101F5000B070C0F201200BF08BFCFFE7FEE7000041
:101F600081B00090009840B1FFE745F23001C4F223
:101F700001014FF48020086007E045F22C01C4F213
:101F800001014FF480200860FFE701B070470000B6
:101F900081B0009001B07047FFE7FEE7FFE7FEE782
:101FA00080B586B08DF817009DF8170000210191CB
:101FB00000F04EFB01999DF8170000F037F815204E
:101FC0008DF816009DF817109DF8162045F20000B8
:101FD000C4F201009142A4BF46F20000C4F2010025
:101FE00004909DF817009DF81610884207DBFFE764
:101FF0009DF817009DF81610401A009003E09DF818
:1020000017000090FFE70098039003990120884093
:10201000C0430290029A0499886A10408862029A2A
:102020000499486B1040486306B080BD86B08DF8B7
:1020300017008DF816109DF81700049004990020E1
:102040001F29C8BF01200390049800F01F01012040
:1020500088400290039946F28000C4F2000000EB31
:1020600081000190039946F28800C4F2000000EB61
:10207000810000909DF8160030B9FFE7029A01999F
:1020800008689043086016E09DF81600012806D104
:10209000FFE7029A009908681043086005E0029A79
:1020A0000099086890430860FFE7029A0199086860
:1020B00010430860FFE7002006B0704780B586B087
:1020C000DDF820C08DF813000391029201939DF872
:1020D00013007F2812D1FFE7029946F24000C4F2B4
:1020E000000000EB81009DF804209DF820304FF0A7
:1020F000FF3105F0FBFD0020059024E003989DF8DA
:10210000131004F0C9FB00900098B0F1FF3F03DC0E
:10211000FFE70098059016E0029946F24000C4F2ED
:10212000000000EB810000999DF804209DF820300C
:1021300005F0DCFD9DF813009DF80C1000F088FA06
:1021400000200590FFE7059806B080BDB0B584B0CB
:1021500094468E4604460A980999089A8DF80B40D1
:102160008DF80AE08DF809C08DF808308DF8072049
:102170008DF806108DF805009DF80A009DF80B10EB
:1021800001EB410C4EF28011C0F2012111F81C103C
:102190004EF27412C0F2012212F81C204EF26813A3
:1021A000C0F2012313F81C30EC46CCF800300523B4
:1021B000FFF784FF20B1FFE74FF0FF300390C5E049
:1021C0009DF809009DF80B1001EB410C4EF28011B7
:1021D000C0F2012101EB4C0149784EF27412C0F2B9
:1021E000012202EB4C0252784EF26813C0F2012336
:1021F00003EB4C035B78EC46CCF800300523FFF78B
:102200005DFF20B1FFE76FF0010003909EE09DF8B5
:1022100008009DF80B1001EB410C4EF28011C0F24A
:10222000012101EB4C0189784EF27412C0F20122B7
:1022300002EB4C0292784EF26813C0F2012303EBDA
:102240004C039B78EC46CCF800300523FFF736FFB3
:1022500020B1FFE76FF00200039077E09DF80700E0
:102260009DF80B1001EB410C4EF28011C0F20121E0
:1022700001EB4C01C9784EF27412C0F2012202EB5C
:102280004C02D2784EF26813C0F2012303EB4C03E8
:10229000DB78EC46CCF800300523FFF70FFF20B1C8
:1022A000FFE76FF00300039050E09DF806009DF8F3
:1022B0000B1001EB410C4EF28011C0F2012101EB39
:1022C0004C0109794EF27412C0F2012202EB4C0269
:1022D00012794EF26813C0F2012303EB4C031B7911
:1022E000EC46CCF800300523FFF7E8FE20B1FFE70D
:1022F0006FF00400039029E09DF805009DF80B1095
:1023000001EB410C4EF28011C0F2012101EB4C01B6
:1023100049794EF27412C0F2012202EB4C0252795A
:102320004EF26813C0F2012303EB4C035B79EC46D9
:10233000CCF800300523FFF7C1FE20B1FFE76FF0B6
:102340000500039002E000200390FFE7039804B02B
:10235000B0BD0000B0B588B094468E4604460E98D5
:102360000D990C9A8DF81B408DF81AE08DF819C064
:102370008DF818308DF817208DF816108DF815008F
:102380009DF81B009DF81A109DF819209DF8183033
:102390009DF817C09DF816409DF81550EE46CEF8F2
:1023A0000850CEF80440CEF800C0FFF7CFFE0490EE
:1023B000049818B1FFE7049807907FE09DF81A0091
:1023C0009DF81B1001EB41024EF28C11C0F201216D
:1023D00011F8121000F03CF920B1FFE74FF0FF3088
:1023E00007906BE09DF819009DF81B1001EB41026E
:1023F0004EF28C11C0F2012101EB4201497800F04C
:1024000027F920B1FFE76FF00100079056E09DF833
:1024100018009DF81B1001EB41024EF28C11C0F226
:10242000012101EB4201897800F012F920B1FFE7A8
:102430006FF00200079041E09DF817009DF81B1017
:1024400001EB41024EF28C11C0F2012101EB42017D
:10245000C97800F0FDF820B1FFE76FF003000790A6
:102460002CE09DF816009DF81B1001EB41024EF286
:102470008C11C0F2012101EB4201097900F0E8F86A
:1024800020B1FFE76FF00400079017E09DF81500FA
:102490009DF81B1001EB41024EF28C11C0F201219C
:1024A00001EB4201497900F0D3F820B1FFE76FF06A
:1024B0000500079002E000200790FFE7079808B0AA
:1024C000B0BD000080B584B08DF80B008DF80A1007
:1024D0009DF80B00102805D1FFE79DF80A00112890
:1024E00004D0FFE74FF0FF3003901BE046F264009A
:1024F000C4F200000090012201920323114605F06E
:10250000F5FB0098019A0423114605F0EFFB9DF8B6
:102510000B00FFF745FD9DF80A00FFF741FD002085
:102520000390FFE7039804B080BD000080B584B03D
:102530008DF80B008DF80A108DF809209DF80B001E
:102540000146019120B1FFE70198012821D040E028
:102550009DF80A006A460F211160662103220523B7
:10256000FFF7ACFD20B1FFE74FF0FF30039034E000
:102570009DF809006A461421116067210322052392
:10258000FFF79CFD20B1FFE74FF0FF30039024E000
:1025900020E09DF80A006A460021116068210422AB
:1025A0000523FFF78BFD20B1FFE74FF0FF300390CD
:1025B00013E09DF80900694605230B606921042298
:1025C000FFF77CFD20B1FFE74FF0FF30039004E000
:1025D00000E0FFE700200390FFE7039804B080BD10
:1025E00086B08DF817008DF816109DF817000009B9
:1025F00004909DF8170000F00F000390039841002D
:102600000320884002909DF81600039949008840F5
:1026100001909DF81700012805D1FFE7019880F08F
:1026200004000190FFE7049946F20810C4F200008C
:1026300000EB81000090029A0099086890430860BE
:10264000019A009908681043086006B070470000BE
:1026500080B584B08DF80B008DF80A109DF80B0042
:102660007F2803D1FFE700200390C9E09DF80B000D
:102670009DF80A1005F07AFB01900198B0F1FF3F38
:1026800003DCFFE701980390BAE09DF80B001128E6
:1026900012DCFFE79DF80B2002F0FC0046F200017F
:1026A000C4F200010843019902F00302C2EBC20325
:1026B000072205F01BFBA0E09DF80B00142810DC9E
:1026C000FFE701999DF80B206FF0150000EB420029
:1026D000C3B246F21000C4F20000022205F006FB6D
:1026E0008AE09DF80B0015280AD1FFE7019946F210
:1026F0001000C4F200000722142305F0F7FA7AE074
:102700009DF80B0016280AD1FFE7019946F2140044
:10271000C4F200000722002305F0E8FA6AE09DF801
:102720000B001E2810DCFFE701999DF80B206FF0CD
:10273000260000EB4200C3B246F21400C4F20000CF
:10274000022205F0D3FA54E09DF80B001F280AD1AD
:10275000FFE7019946F21400C4F200000722172394
:1027600005F0C4FA44E09DF80B0020280AD1FFE7E9
:10277000019946F21400C4F2000002221E2305F063
:10278000B5FA34E09DF80B0021280AD1FFE7019942
:1027900046F21800C4F200000222002305F0A6FA57
:1027A00024E09DF80B0023280FDCFFE701999DF83A
:1027B0000B00C0EBC000EC38C3B246F21800C4F204
:1027C0000000072205F092FA0FE001999DF80B2016
:1027D0006FF0370000EB4200C3B246F21800C4F2BB
:1027E0000000022205F082FAFFE7FFE7FFE7FFE7BC
:1027F000FFE7FFE7FFE7FFE7FFE700200390FFE7C2
:10280000039804B080BD000080B584B0072001901B
:1028100000210291FFF71CFF029908200390FFF7A7
:1028200017FF02990198FFF705FB02990398FFF73C
:1028300001FB03980121FFF7F9FB04B080BD000004
:1028400080B505F009FB80BD00000000000000001D
:10285000EFF30980BFF36F8F154B1A681EF0100F4E
:1028600008BF20ED108A20E9F04F10602DE9090023
:102870004FF0080080F31188BFF34F8FBFF36F8FC5
:1028800009F006FF4FF0000080F31188BDE8090051
:1028900019680868B0E8F04F1EF0100F08BFB0ECE0
:1028A000108A80F30988BFF36F8F704700BF00BFA5
:1028B000580D002080B505F04FFB80BD00000000E2
:1028C000074B19680868B0E8F04F80F30988BFF338
:1028D0006F8F4FF0000080F31188704700BF00BF7A
:1028E000580D002080B582B08DF807008DF80610D5
:1028F0009DF8070000F08CFB9DF8060000F0DCFA64
:1029000002B080BD80B582B001908DF803108DF8C3
:1029100002209DF8030030B1FFE701980021012259
:1029200005F0CAF9FFE79DF803109DF80230282052
:10293000C4F20000012205F0FBF99DF8030048B93C
:10294000FFE7019800F008F801980122114605F010
:10295000B3F9FFE702B080BD81B000900099042078
:10296000C8F20000886501B07047000080B582B0F1
:102970008DF807009DF80700012100F025F802B04E
:1029800080BD000080B582B0019000208DF803006A
:10299000FFE79DF80300182813DCFFE701989DF876
:1029A0000310C840C00728B1FFE79DF80300FFF7F8
:1029B000DDFFFFE7FFE79DF8030001308DF803001E
:1029C000E7E702B080BD000080B586B08DF8170043
:1029D0008DF816109DF8170001460491182800F292
:1029E000B3810499DFE811F019002A003B004C0084
:1029F0005D006E007F009000A100B200CA00E300FD
:102A0000F4000D011E012F014001510162016B0113
:102A100074017D0186019701A7019DF816100C2015
:102A2000C4F20000152205F047F99DF81610142095
:102A3000C4F20000122205F03FF986E19DF816105D
:102A40000C20C4F20000162205F036F99DF816108D
:102A50001420C4F20000122205F02EF975E19DF851
:102A600016100C20C4F20000022205F025F99DF892
:102A700016101420C4F20000002205F01DF964E1D4
:102A80009DF816100C20C4F20000032205F014F982
:102A90009DF816101420C4F20000012205F00CF974
:102AA00053E19DF816100C20C4F20000042205F03A
:102AB00003F99DF816101420C4F20000022205F05C
:102AC000FBF842E19DF816100C20C4F20000012230
:102AD00005F0F2F89DF816101420C4F2000011223F
:102AE00005F0EAF831E19DF816100C20C4F2000060
:102AF000052205F0E1F89DF816101420C4F200003C
:102B00000A2205F0D9F820E19DF816100C20C4F235
:102B10000000082205F0D0F89DF816101420C4F229
:102B20000000092205F0C8F80FE19DF816100C20EE
:102B3000C4F20000092205F0BFF89DF816105420D9
:102B4000C4F200000C2205F0B7F8FEE09DF8161064
:102B50000C20C4F200000A2205F0AEF89DF8161011
:102B60001420C4F200000390132205F0A5F8039886
:102B70009DF81610142205F09FF8E6E09DF8161057
:102B80000C20C4F200000B22019205F095F8019A86
:102B90009DF816101420C4F20000029005F08CF885
:102BA00002989DF81610102205F086F8CDE09DF8E9
:102BB00016100C20C4F200000C2205F07DF89DF8E0
:102BC00016100820C4F20000002205F075F8BCE0E1
:102BD0009DF816100820C4F200000C2205F06CF8D5
:102BE0009DF816100C20C4F200000D2205F064F8C8
:102BF0009DF816101420C4F20000062205F05CF8BF
:102C0000A3E09DF816100C20C4F200000E2205F07F
:102C100053F89DF816101420C4F20000072205F0A6
:102C20004BF892E09DF816100C20C4F200000F2221
:102C300005F042F89DF816101420C4F200000C2292
:102C400005F03AF881E09DF816100C20C4F200005F
:102C5000102205F031F89DF816101420C4F200007F
:102C6000082205F029F870E09DF816100C20C4F237
:102C70000000112205F020F89DF816101420C4F26F
:102C80000000042205F018F85FE09DF816100C20F3
:102C9000C4F20000122205F00FF89DF8161014205F
:102CA000C4F20000052205F007F84EE09DF816106A
:102CB0000C20C4F20000132204F0FEFF45E09DF852
:102CC00016100C20C4F20000142204F0F5FF3CE0C2
:102CD0009DF816100C20C4F20000002204F0ECFF56
:102CE00033E09DF816100C20C4F20000062204F018
:102CF000E3FF2AE09DF816100C20C4F20000172212
:102D000004F0DAFF9DF816101420C4F200000E2221
:102D100004F0D2FF19E09DF816108020C4F20000E4
:102D20000090052204F0C8FF00989DF816100722B5
:102D300004F0C2FF09E09DF816100C20C4F2000058
:102D4000192204F0B9FF00E0FFE706B080BD0000E3
:102D500080B58AB008900791069200F007F94DF609
:102D60008361C4F21B31A0FB0110800C0899B0FBF9
:102D7000F1F005900598012803D8FFE7012009909C
:102D800096E000F0F3F80799A0FB010144F240221D
:102D9000C0F20F0200230193FDF7C0FA019B089ACD
:102DA000FDF7BCFA01460198049103900498B0F530
:102DB000E67F08D3FFE70498B0F5167F03D8FFE756
:102DC0000720039050E00498B0F5BE7F08D3FFE7DA
:102DD0000498B0F5027F03D8FFE70620039042E095
:102DE0000498B0F5967F08D3FFE70498B0F5DC7F30
:102DF00003D8FFE70520039034E00498DC2808D3CB
:102E0000FFE70498B0F5B47F03D8FFE704200390F0
:102E100027E00498A02808D3FFE70498B0F58C7F3A
:102E200003D8FFE7032003901AE00498642807D32F
:102E3000FFE70498C82803D8FFE7022003900EE0BC
:102E400004983C2807D3FFE70498782803D8FFE7C5
:102E50000120039002E00220099029E0FFE7FFE74C
:102E6000FFE7FFE7FFE7FFE74021C4F20001086842
:102E700002909DF80B000006029008984000079A07
:102E800040EAC210069A40EAC230039A40EA42522F
:102E90000298104302900298086040F2A811C4F210
:102EA0001001086840F48010086000200990FFE7D6
:102EB00009980AB080BD000080B582B08DF8070087
:102EC0009DF8071041F20000C4F214000022FFF741
:102ED00019FD02B080BD000080B582B00420C4F2AC
:102EE00000000068400400280DD5FFE700F012F84C
:102EF00000900021084603F039FB01460098B0FB22
:102F0000F1F0019003E000F031F80190FFE7019843
:102F100002B080BD80B584B040F2A810C4F21000A9
:102F20000068C00200281AD5FFE74021C4F2000162
:102F300001910868C0F345000968C1F3C5314843F1
:102F4000029000F013F801990968C1F3C711A0FBC2
:102F50000101029A0023FDF7E1F9039002E000204D
:102F60000390FFE7039804B080BD000083B042F2F5
:102F70001000C4F210000068C0F300208DF80700B4
:102F80009DF8070030B1FFE743F20060C0F26E1019
:102F9000029039E040F27C10C4F210000068C0F3E7
:102FA0000430014600910F2828D80099DFE801F08D
:102FB000080E26142626261A26262626262626200B
:102FC00041F20020C0F27A0002901DE042F200407F
:102FD000C0F2F400029017E043F20060C0F26E10FD
:102FE000029011E044F60000C0F2E81002900BE0FD
:102FF00046F60040C0F2DC20029005E049F20000F5
:10300000C0F2D0300290FFE7029803B07047000092
:1030100080B582B08DF807009DF807100020C4F23B
:1030200014000122FFF76EFC02B080BD80B584B0B1
:1030300003F098F90190019818B9FFE70120039077
:103040007FE0019800787E280BDCFFE7019801788B
:1030500042F20800C4F210000722042304F068FEC4
:10306000FFE71C20C4F2000040F2EE210C221423E2
:1030700004F05EFE00200290FFE702980F2826D899
:10308000FFE70198029900EB4100808840F214515B
:10309000884203DBFFE70420039052E00198029985
:1030A00000EB4100808840F2A64188420ADBFFE73E
:1030B000029942F20000C4F2100004221C2304F022
:1030C00037FE04E0FFE7029801300290D5E702984E
:1030D000102803D3FFE70220039032E00120029082
:1030E000FFE702980F2822D8FFE70198029900EB2A
:1030F0004100808C40F61D41884203DBFFE705203C
:1031000003901EE00198029900EB4100808C40F290
:103110009D41884206DBFFE702980138C0B200F00B
:1031200091F804E0FFE7029801300290D9E7029895
:10313000102803D3FFE70320039002E00020039050
:10314000FFE7039804B080BD80B584B08DF80F0010
:10315000ADF80C109DF80F000146029120B1FFE779
:103160000298012831D03BE0BDF80C10002918BFAF
:1031700001210420C4F20000152204F09DFDBDF8D9
:103180000C00012810DBFFE7BDF80C104FF0804069
:103190000422142304F0CCFD0420C4F20000012119
:1031A0001E2204F089FD0FE04FF0804001210191C3
:1031B0000422142304F0BCFD01990420C4F2000091
:1031C0001E2204F079FDFFE70BE0BDF80C0000F0D3
:1031D00001010420C4F20000162204F06DFD00E09D
:1031E000FFE704B080BD000080B584B0ADF80E00EC
:1031F000BDF80E108020C4F200000190042202925B
:10320000002304F095FD0198029A012104F054FD79
:1032100004B080BD80B582B08DF80700ADF8041011
:10322000BDF8040000F001019DF8070014220028F9
:1032300008BF13220420C4F2000004F03DFD02B0D8
:1032400080BD000080B582B08DF807009DF80700B2
:1032500000F00F0142F20000C4F21000042201232A
:1032600004F066FD02B080BD81B08DF803008DF8DA
:1032700002109DF8030060B1FFE79DF802100120E5
:10328000884040F0710040F27411C4F210010860EF
:1032900006E040F27411C4F2100100200860FFE75C
:1032A00001B0704780B582B0019040F60011C2F2C3
:1032B0000001012048704860019804F039FE02B016
:1032C00080BD000080B540F20010C4F2100000681C
:1032D0004008C00798B1FFE742F20C01C4F21001A8
:1032E000086840F00400086042F21401C4F21001C2
:1032F0004EF6C700CEF69420086000F0D7FD42F2EB
:103300000300C0F23000FFF73DFB052046210122FB
:10331000FFF71EFD03F038F8FFF788FE4FF20000BC
:10332000C0F200204EF60851CEF200010860FFF70F
:10333000F1FD40F62011C2F20001086080BD0000DE
:1033400080B582B0009000980138B0F1807F03D33F
:10335000FFE70120019019E0009801384EF21401B6
:10336000CEF2000108604FF0FF301F2100F038FD61
:103370004EF21801CEF20001002008604EF2100259
:10338000CEF20002072111600190FFE7019802B020
:1033900080BD000080B582B04FF0080080F3118836
:1033A000BFF36F8FBFF34F8F009009F05BFF40B109
:1033B000FFE74EF60451CEF200014FF08050086056
:1033C000FFE700200190019880F3118802B080BDD2
:1033D000002070470020704781B00090009800687E
:1033E000C0B201B07047000082B001908DF80310A8
:1033F0009DF803000199086002B0704780B58EB057
:103400008DF837009DF8370002F030FA0C909DF8E7
:10341000371040F6E440C2F2000000EBC100406803
:103420004069C007002840F05B84FFE70C9810B9A2
:10343000FFE700F055BC9DF83000C006002876D5A7
:10344000FFE79DF8371040F6E440C2F2000000EBC1
:10345000C1014A68916921F0100191619DF837100E
:1034600000EBC1004068006A0B900B9800F00F0061
:103470000A900B9800F4F0110220B0EB514F2AD1C2
:10348000FFE70B98C0F30A100790079810B3FFE707
:103490009DF83700C0EBC00240F60021C2F20001E7
:1034A000059101EB42110A9A01EB0211C96FBDF8B7
:1034B0001C2002F09DF80598079A9DF83710C1EB83
:1034C000C10100EB41100A9900EB0111C86F1044D3
:1034D000C867FFE71DE00B9800F4F0110620B0EB81
:1034E000514F14D1FFE70B98C0F30A1007909DF8D5
:1034F0003700C0EBC00240F60021C2F2000101EB30
:1035000042112031BDF81C2002F072F800E0FFE704
:10351000FFE79DF8371040F6E440C2F2000000EBF0
:10352000C1004168886940F010008861FFE79DF89C
:1035300032000007002840F1EA80FFE700200A90EF
:103540009DF8370002F03CFA0990FFE7099800283F
:1035500000F0DC80FFE79DF82400C007002800F0A1
:10356000CE80FFE79DF837009DF8281002F0FAF9A9
:1035700008909DF82000C007002800F0AB80FFE70E
:103580000A98002862D1FFE79DF83700C0EBC00120
:1035900040F60020C2F2000000EB41100A9900EB57
:1035A0000110D0F8800070B9FFE79DF83700C0EB3C
:1035B000C00240F60021C2F2000101EB42112031AD
:1035C00001F0E2FF41E09DF837C0CCEBCC0040F6C3
:1035D0000022C2F2000202EB40100A9B00EB031033
:1035E000D0F8800040F6E441C2F2000101EBCC01CA
:1035F000496801EB4311D1F8101B6FF3DF41401A0A
:103600009DF83710C1EBC10102EB41110A9B01EBA0
:103610000311C1F884009DF83700C0EBC00002EB35
:1036200040100A9900EB01100021C0F880109DF8AD
:103630003700C0EBC00302EB43120A9B02EB0312FC
:10364000D2F8842007F01EF9FFE742E09DF837C06A
:10365000CCEBCC0040F60022C2F2000202EB40109C
:103660000A9B00EB0310D0F8800040F6E441C2F260
:10367000000101EBCC01496801EB4311D1F8101BAB
:103680006FF3DF41401A9DF83710C1EBC10102EB27
:1036900041110A9B01EB0311C1F884009DF837002A
:1036A000C0EBC00002EB40100A9900EB01110020B2
:1036B000C1F880009DF837000A99C0EBC00302EB07
:1036C000431202EB0112D2F88420C9B207F0DAF8F3
:1036D000FFE7FFE79DF82000000700280ED5FFE771
:1036E0009DF83700C0EBC00240F60021C2F2000195
:1036F00001EB4211203107F073F8FFE7FFE709986B
:10370000400809900A9801300A901FE7FFE79DF8EA
:1037100032004007002840F10481FFE700200A90B2
:103720009DF8370002F000F90990FFE7099800289A
:1037300000F0F680FFE79DF82400C007002800F0A5
:10374000E880FFE79DF837009DF8281002F0A8F800
:1037500008909DF82000C007002800F0CC80FFE70B
:103760000A98002840F08580FFE79DF837C0CCEB31
:10377000CC0040F60021C2F20001049101EB4010A0
:103780000A9B00EB0310006B40F6E442C2F2000219
:1037900002EBCC02526802EB4312D2F810296FF30D
:1037A000DF42801A9DF83720C2EBC20201EB4212C1
:1037B0000A9B02EB031250639DF83700C0EBC00078
:1037C00001EB40100A9A00EB0212002010639DF8F2
:1037D0003700C0EBC00201EB42110A9A01EB021163
:1037E0004A6B802107F018F804989DF83710C1EB58
:1037F000C10100EB4110C08CF0B1FFE79DF837002C
:10380000C0EBC00140F60020C2F2000000EB411006
:1038100090F82000000600280ED4FFE79DF837003E
:10382000C0EBC00240F60021C2F2000101EB4211E0
:10383000203101F0A9FE1BE09DF83700C0EBC0016C
:1038400040F60020C2F2000000EB4110C08C70B9BD
:10385000FFE79DF83700C0EBC00240F60021C2F23E
:10386000000101EB4211203101F08EFEFFE7FFE77E
:1038700040E09DF837C0CCEBCC0040F60022C2F20D
:10388000000202EB40100A9B00EB0310006B40F6B5
:10389000E441C2F2000101EBCC01496801EB4311A4
:1038A000D1F810196FF3DF41401A9DF83710C1EBC2
:1038B000C10102EB41110A9B01EB031148639DF822
:1038C0003700C0EBC00002EB40100A9900EB011179
:1038D000002008639DF837000A9B43F08001C0EB8D
:1038E000C00C02EB4C1202EB0312526BC9B206F091
:1038F00093FFFFE7FFE79DF820000006002807D5AB
:10390000FFE79DF837009DF8281002F0FBFAFFE76B
:10391000FFE70998400809900A9801300A9005E7E6
:10392000FFE79DF83100C006002840F12D81FFE738
:103930009DF8371040F6E440C2F2000000EBC101F0
:103940004A684FF4805151619DF8371000EBC10077
:103950004168D1F8040820F00100C1F804089DF87E
:103960003700102101F0FCFE9DF8370001F0A2FEA7
:1039700000208DF81B00FFE79DF81B00042800F3D2
:10398000C780FFE79DF81B00E8B9FFE79DF8370007
:1039900040F6E441C2F2000101EBC00040689DF82E
:1039A0001B2000EB42124FF00060C2F800099DF8A6
:1039B000372001EBC20149689DF81B2001EB421141
:1039C000C1F8000B6AE09DF8371040F6E440C2F2FF
:1039D000000000EBC10040689DF81B1000EB411097
:1039E000D0F80009C00F90B1FFE79DF8371040F6FE
:1039F000E440C2F2000000EBC10040689DF81B10DB
:103A000000EB41114FF09040C1F8000910E09DF823
:103A1000371040F6E440C2F2000000EBC1004068FD
:103A20009DF81B1000EB41110020C1F80009FFE7D1
:103A30009DF8371040F6E440C2F2000000EBC100F0
:103A400040689DF81B1000EB4110D0F8000BC00F30
:103A500090B1FFE79DF8371040F6E440C2F2000055
:103A600000EBC10040689DF81B1000EB41114FF0C6
:103A70009040C1F8000B10E09DF8371040F6E4408C
:103A8000C2F2000000EBC10040689DF81B1000EB83
:103A900041110020C1F8000BFFE7FFE79DF8370058
:103AA00040F6E441C2F2000101EBC00040689DF81D
:103AB0001B2000EB42100022C0F810299DF83700AF
:103AC00001EBC00040689DF81B3000EB43134FF63C
:103AD000FF30C3F808099DF8373001EBC3035B687A
:103AE0009DF81BC003EB4C13C3F8102B9DF8372037
:103AF00001EBC20149689DF81B2001EB4211C1F89E
:103B0000080BFFE79DF81B0001308DF81B0033E721
:103B10009DF8371040F6E440C2F2000000EBC1010E
:103B20004A68D2F81C1841F00111C2F81C189DF81F
:103B3000371000EBC1014A680921C2F814189DF83A
:103B4000371000EBC10041680120C1F810089DF852
:103B50003700C0EBC00140F60020C2F20000039025
:103B600000EB4110E021FCF723FC9DF8370006F044
:103B700093FF03999DF83700C0EBC00201EB42119F
:103B8000203101F001FDFFE79DF83100800600289B
:103B90002AD5FFE79DF8371040F6E440C2F2000056
:103BA000029000EBC10041684FF4005048619DF85D
:103BB0003700019040F62011C2F20001096800911F
:103BC00001F026FE00990246019802F01DF80298C5
:103BD0009DF8371000EBC1004168D1F8040840F4AB
:103BE0008070C1F80408FFE79DF8320080060028C5
:103BF0000DD5FFE79DF8371040F6E440C2F2000013
:103C000000EBC10041684FF400104861FFE79DF8E8
:103C10003200C00600280DD5FFE79DF8371040F6AA
:103C2000E440C2F2000000EBC10041684FF4801094
:103C30004861FFE79DF831000007002811D5FFE734
:103C40009DF8371040F6E440C2F2000000EBC100DE
:103C500041684FF4006048619DF8370006F094FF1A
:103C6000FFE79DF833000006002811D5FFE79DF817
:103C7000371040F6E440C2F2000000EBC10041689A
:103C80004FF0004048619DF8370006F061FFFFE704
:103C90009DF830004007002821D5FFE79DF8371038
:103CA00040F6E440C2F2000000EBC100406840680A
:103CB0000B909DF82C004007002801D5FFE700E09D
:103CC000FFE70B9A9DF8371040F6E440C2F200007F
:103CD00000EBC1004168486810434860FFE7FFE718
:103CE0000EB080BDFFE7FEE781B08DF803009DF9BF
:103CF000030000280ED4FFE79DF9031001F01F0216
:103D0000012090404A094EF28021CEF2000141F894
:103D10002200FFE701B0704781B08DF803009DF9E4
:103D2000030000280ED4FFE79DF9031001F01F02E5
:103D3000012090404A094EF28021CEF2000141F864
:103D40002200FFE701B0704781B08DF803009DF9B4
:103D50000300002812D4FFE79DF9031001F01F02B1
:103D6000012090404A094EF28011CEF2000141F844
:103D70002200BFF34F8FBFF36F8FFFE701B0704793
:103D800081B08DF803009DF9030000280ED4FFE7F1
:103D90009DF9031001F01F02012090404A094EF2E4
:103DA0000011CEF2000141F82200FFE701B0704798
:103DB00081B08DF803009DF9030000280ED4FFE7C1
:103DC0009DF9031001F01F02012090404A094EF2B4
:103DD0000011CEF2000141F82200FFE701B0704768
:103DE00082B08DF8070000919DF9070000280AD4E1
:103DF000FFE70098C0009DF907104EF20042CEF296
:103E0000000288540BE00098C0009DF8071001F0F4
:103E10000F014EF61452CEF200028854FFE702B0B2
:103E20007047000082B08DF8070000919DF90700EF
:103E300000280AD4FFE70098C0009DF907104EF251
:103E40000042CEF2000288540BE00098C0009DF8BA
:103E5000071001F00F014EF61452CEF20002885402
:103E6000FFE702B07047000082B08DF807000091B4
:103E70009DF9070000280AD4FFE70098C0009DF9CB
:103E800007104EF20042CEF2000288540BE0009878
:103E9000C0009DF8071001F00F014EF61452CEF24B
:103EA00000028854FFE702B070470000BFF34F8F55
:103EB0004EF60C51CEF20001086800F4E0600422D6
:103EC000C0F2FA5210430860BFF34F8FFFE700BF04
:103ED000FDE7000080B586B08DF8170004910498C6
:103EE000C088B0F5807F21DDFFE7049800780006E8
:103EF00000281AD4FFE7FFE74EF67250C0F2012007
:103F000009F0B6FC4EF63E40C0F2012009F0B0FCCC
:103F10004EF6B130C0F2012009F0AAFCFFE79DF88F
:103F20001700802105F036FE4CE1FFE79DF81700F1
:103F300040F6F022C2F200024FF4FA7110FB0123A6
:103F400003F11C0098600498C0889DF8173013FB9B
:103F50000123D8600498C0889DF8173013FB012313
:103F600018619DF8170010FB0123002018759DF8BB
:103F7000170010FB0120806803900498C088F0B1FE
:103F8000FFE7049800780006002818D4FFE79DF8A2
:103F9000170040F6F022C2F200024FF4FA7110FB53
:103FA0000123022083F81E019DF8170010FB012158
:103FB0008A680499CB88002105F07CFE02E19DF817
:103FC0001700049940F6F023C2F200034FF4FA728E
:103FD00010FB023202F1100303AA07F0F5FA98B9B8
:103FE000FFE79DF8170040F6F022C2F200024FF4FE
:103FF000FA7110FB0121002081F81E019DF81700C5
:10400000802105F0C7FDDDE09DF8170040F6F022A5
:10401000C2F200024FF4FA7110FB0120006904990A
:10402000C98888420DD2FFE79DF8170040F6F022BC
:10403000C2F200024FF4FA7110FB012000690290F5
:1040400003E00498C0880290FFE702989DF81730BB
:1040500040F6F022C2F200024FF4FA7113FB012382
:10406000D8609DF8170010FB0120C068B0F5807F74
:1040700027D9FFE7FFE74EF67250C0F2012009F0A2
:10408000F7FB4EF63E40C0F2012009F0F1FB4EF680
:10409000B130C0F2012009F0EBFBFFE79DF81700FB
:1040A00040F6F022C2F200024FF4FA7110FB012137
:1040B000002081F81E019DF81700802105F06AFD9F
:1040C00080E003989DF8171040F6F023C2F2000339
:1040D0004FF4FA7211FB02318968884210D0FFE771
:1040E0009DF8170040F6F022C2F200024FF4FA7178
:1040F00010FB012203999068D26804F069FC00E08B
:10410000FFE79DF8170040F6F022C2F200024FF4DC
:10411000FA7110FB0120C06870B1FFE79DF817002D
:1041200040F6F022C2F200024FF4FA7110FB0121B6
:10413000012081F81E010DE09DF8170040F6F022E5
:10414000C2F200024FF4FA7110FB0121032081F842
:104150001E01FFE79DF8170040F6F022C2F20002B0
:1041600000924FF4FA71019110FB01218A68CB682B
:10417000802105F0C1FF009B019A0498C0889DF83A
:10418000171011FB0231096988421BD9FFE79DF81E
:10419000170040F6F022C2F200024FF4FA7110FB51
:1041A0000120007C800668B9FFE79DF8170040F603
:1041B000F022C2F200024FF4FA7110FB012101203B
:1041C0000875FFE706B080BD80B582B00190009110
:1041D000019800F04FF80099487891F802C0CB7828
:1041E0000A7940EA4C0040EAC30040EA02204A79DA
:1041F00040EA82008A7C40EA0240C97C40EA011021
:10420000019908610099887991F807C00B7B4A7B76
:10421000000640EA8C50B1F808C0ACF1010C6FF315
:104220005F2C40EA0C30B1F80AC0ACF1010C6FF31E
:104230005F2C604440EA437040EA8270497C40EA67
:10424000C1700199086201980099C97B00F07CF85F
:1042500001980099097C00F053F8019800990978B9
:1042600000F060F801980099897B00F01BF802B01B
:1042700080BD000080B582B001900199086B40F0CC
:1042800001000863FFE70198006BC00708B1FFE772
:10429000F9E7019800F022F8019800F00DF802B05B
:1042A00080BD000082B001900091009A0199886B56
:1042B0001043886302B0704781B000900099086B8A
:1042C00040F002000863FFE70098006B4008C00759
:1042D00008B1FFE7F8E701B07047000081B0009037
:1042E0000099086B40F004000863FFE70098006B3A
:1042F0008008C00708B1FFE7F8E701B07047000089
:1043000082B001908DF803100199086B20F47F4072
:1043100008639DF803200199086B40EA02200863B6
:1043200002B0704782B001908DF803100199086CBB
:1043300020F0FF0008649DF803200199086C1043E9
:10434000086402B07047000082B001908DF803103D
:104350000199086B20F47F0008639DF80320019900
:10436000086B40EA0240086302B0704787B00590CE
:10437000049103920498C0000399B0FBF1F00290FD
:104380000298C009019001990298A0EBC110029017
:104390000298013040080090019805994862BDF8E4
:1043A000060018B9FFE7019820B9FFE74FF0FF308A
:1043B000069018E001984FF6FF71884204D1FFE79C
:1043C00005990020886207E001990298401A02903E
:1043D000009805998862FFE70598C06A0599C86248
:1043E00000200690FFE7069807B0704781B0009064
:1043F00000988069C0F3001001B0704781B0009050
:1044000000988069C0F3401001B0704781B00090FF
:104410000099886B20F01000886301B0704700009D
:1044200081B000900099886B20F02000886301B073
:104430007047000081B000900099886B40F0100038
:10444000886301B07047000081B000900099886BCC
:1044500040F02000886301B07047000080B584B050
:104460000290019100920299002008630299486429
:1044700002998863029948600299486202998862A9
:104480000299C8620298019AD1681269FFF76EFF1B
:1044900020B1FFE74FF0FF30039031E0019890F832
:1044A00000C041788378C278802000EA411040EA59
:1044B0004C1040EA031040EAC20001F0030140EA58
:1044C00041000299C8620198B0F8090040BA029907
:1044D00048630098029988630199087991F805C0AA
:1044E0008B79CA79400240EA0C20184440EAC23075
:1044F000097A40EA81300299086300200390FFE7BF
:10450000039804B080BD000080B588B0ADF81E00EF
:10451000BDF81E00800700280BD5FFE7132005908B
:1045200001210691FDF7D8FC05980699FDF782FC5C
:104530000AE01320039000210491FDF77BFC03980F
:104540000499FDF7C9FCFFE7BDF81E00C00750B194
:10455000FFE7142002900021FDF7BEFC0298012124
:10456000FDF768FC09E0142001900021FDF762FCD2
:1045700001980121FDF7B0FCFFE708B080BD000005
:1045800080B582B0019000910199009A4EF281703D
:10459000C0F2012009F06CF9FFE7FEE783B002905A
:1045A000019100200090FFE70198411E019140B168
:1045B000FFE70298011D02910168009808440090ED
:1045C000F2E7009803B0704780B541F20000C0F2F6
:1045D00000209221FFF7E2FF80BD000080B582B08D
:1045E00001900091FFE741F20000C4F20100FFF7E3
:1045F00005FF012801D1FFE7F5E70198017841F2B5
:104600000000C4F20100FEF7EFFE002002B080BD02
:1046100080B58CB08DF82B0009910892079309980A
:1046200080888DF81200099840782038014603915F
:10463000032851D80399DFE801F0023413480898A1
:1046400001680998C2880DF11500029004F0BCFAC7
:10465000029A9DF82B009DF8121004F007FD55E01A
:104660000998807800F001008DF8140009984088BE
:10467000C0F340008DF813009DF82B009DF8121038
:104680009DF8142002F0010204F0B8FC9DF82B0004
:104690009DF812109DF8132002F0010204F00EFDA7
:1046A00034E09DF82B009DF812100DF115020092D8
:1046B00004F076FC0099089800680722019204F043
:1046C00083FA01980799086020E09DF82B009DF877
:1046D000121004F08BFC19E0FFE74EF6C050C0F258
:1046E000012009F0C5F8099841784EF69A50C0F2B9
:1046F000012009F0BDF84EF6B130C0F2012009F0FA
:10470000B7F8FFE74FF0FF300B9002E000200B906E
:10471000FFE70B980CB080BD80B586B000F07CFC44
:10472000059040F6E020C2F2000000F025FA049067
:104730000498412803D3FFE740200490FFE7049842
:1047400050B9FFE745F2F461C2F2000101200870A0
:10475000059800F0DFFE29E045F2F461C2F20001A5
:10476000002002900870049A40F6E020C2F2000097
:1047700040F63811C2F20001019100F035FA019AB9
:104780000298049B822105F0B7FC03900398B0F1D6
:10479000FF3F07DCFFE745F2F461C2F200010120B0
:1047A0000870FFE7059800F0B5FEFFE706B080BD92
:1047B00080B596B0149013911292FFE71298A8B3A7
:1047C000FFE700200190FFE712990020009039B127
:1047D000FFE701990020102938BF01200090FFE772
:1047E0000098C00788B1FFE7139803F0D5F9019A44
:1047F00002A941F822000198013001901298013875
:104800001290139804301390DEE7149801998A00EF
:1048100002A9FBF7DFFD18B1FFE70120159008E0C2
:104820000199149800EB81001490C7E700201590BF
:10483000FFE7159816B080BD80B584B0FFE740F261
:104840002000C2F2000000F093FC039040F25C40B4
:10485000C2F2000000F08CFC01460398084303906C
:10486000FFE703980028EAD1FFE740F22000C2F2F8
:104870000000019000F010FE40F25C40C2F2000027
:10488000029000F009FE019800F0A6FD029800F0E9
:10489000A3FD04B080BD000080B584B08DF80F008A
:1048A000029140F6E020C2F2000040F6A061C2F2A0
:1048B00000014FF48052009200F066F9009A40F631
:1048C000EC40C2F2000044F2F461C2F2000100F0D8
:1048D0005BF903F0B5F9FDF7BDF94EF2A421C0F282
:1048E00001210020019004F029FD019840F6C81133
:1048F000C2F2000104F0B8FA019840F6A001C2F239
:10490000000104F05DFA019840F69801C2F200013E
:1049100004F056FA019840F61851C2F2000104F072
:1049200051FB0146019804F09FFA019840F634517A
:10493000C2F2000104F046FB0146019804F094FA2B
:10494000019840F21801C2F2000104F039FA01980E
:1049500040F21001C2F2000104F032FA019840F670
:10496000FC41C2F200014EF28822C0F201221B2358
:1049700006F0A8FB0146019804F076FA019840F68B
:10498000B001C2F2000104F01BFA019840F6B80130
:10499000C2F2000104F014FA9DF80F0002994AF6E1
:1049A000F102C0F2012206F0CFFB04B080BD00008E
:1049B00080B582B0019003F04FFA00200021C4F2CC
:1049C0001801FFF769FF4EF29070C0F2012008F065
:1049D0004FFFFFE702F064F801F0E0FFFFF72CFF64
:1049E00000F002F8F6E7000080B582B040F67810DB
:1049F000C2F200000078C0B1FFE740F67811C2F2C1
:104A000000010020087040F6A800C2F2000000F08B
:104A10006BF845F2F461C2F200010120087040F623
:104A20007911C2F200010870FFE740F67910C2F276
:104A30000000007808B9FFE754E000F0EDFA0190BB
:104A400045F2F460C2F200000078A0B1FFE740F642
:104A5000E020C2F2000000F08FF860B1FFE745F2FD
:104A6000F461C2F2000100200870019800F052FDCC
:104A7000FFF752FE03E0019800F04CFDFFE740F61F
:104A8000EC40C2F2000000F077F828B1FFE7002107
:104A90000846FAF73DFBFFE700F0BEFA019044F24A
:104AA000F060C2F200000078C0B1FFE740F6EC40D1
:104AB000C2F2000000F054F840280FD3FFE744F2A0
:104AC000F061C2F200010020087044F2B062C2F24C
