:040000050200F0FD08
:020000040200F8
:10F00000187D002071F2000275F20002B9080102B9
:10F0100079F200027BF200027DF20002D8BDF9D342
:10F020008F9E939B229996970301000085F1000221
:10F0300081F200025CD301020DF200025DF20002D7
:10F0400087F2000287F2000287F2000287F20002D4
:10F0500087F200023D7E0102D907002087F20002FC
:10F0600087F2000287F2000287F2000287F20002B4
:10F0700087F2000287F2000287F2000287F20002A4
:10F0800087F2000287F20002917E010287F20002FD
:10F0900087F2000287F2000287F2000287F2000284
:10F0A00087F2000287F2000287F2000287F2000274
:10F0B00087F2000287F2000287F20002A97F0102B4
:10F0C00087F2000287F2000287F2000287F2000254
:10F0D00087F2000287F2000287F2000287F2000244
:10F0E00087F2000287F2000287F2000287F2000234
:10F0F00087F2000287F2000287F20002DFF810D0E8
:10F1000000F076F900480047017A0102AFF3008071
:10F11000187D002001F101010847000080F30988F3
:10F120007047EFF309807047684680F30988044808
:10F130000078C00714BF0220032080F314887047B2
:10F14000F0E30102DFF818C0EFF305831B0618BFD8
:10F150006047EFF31483DB0708BF604700DF7047A9
:10F160001D8F0102DFF818C0EFF305831B0618BFDF
:10F170006047EFF31483DB0708BF604700DF704789
:10F18000AD910102EFF30980816911F8021C39BBCE
:10F1900090E80F10E047EFF3098C194B93E8060055
:10F1A000914218D059B10CB44FF0010381F82130CD
:10F1B0002CE9F00FC1F824C00AF00EFB0CBC1A6059
:10F1C000D2F824C0BCE8F00F92F821308CF3098803
:10F1D0001BB192F82000CCF800006FF0020E7047CF
:10F1E00010B5084A1268914209D8074C54F82140DA
:10F1F00090E80F10A047EFF3098C8CE80F0010BDCA
:10F20000000E00206CF400026CF400020AF098F981
:10F21000114B93E8060091421BD00CB44FF0000351
:10F2200081F82130EFF3098C2CE9F00FC1F824C0EC
:10F230000AF0D2FA0CBC1A60D2F824C0BCE8F00F75
:10F240008CF3098892F821301BB192F82030CCF869
:10F2500000306FF0020E7047000E00200AF09EFB97
:10F26000D6E7000008F0D6FF0AF098FBD0E70000D0
:10F2700005480047FEE7FEE7FEE7FEE7FEE7FEE79C
:10F28000FEE7FEE7FEE7FEE7FDF000022DE9F05F96
:10F290000546002092469B46884606468146402405
:10F2A0001BE0284641464746224600F090F8534668
:10F2B0005A46C01A914110D311461846224600F012
:10F2C00077F82D1A67EB01084F46224601200021EE
:10F2D00000F06EF817EB00094E41201EA4F1010466
:10F2E000DFDC484631462A464346BDE8F09F10B56C
:10F2F000431A934209D28318881803E010F8011DBD
:10F3000003F8011D521EF9D210BD40EA01039B070C
:10F3100003D009E008C9121F08C0042AFAD203E08A
:10F3200011F8013B00F8013B521EF9D210BDD2B2D8
:10F3300001E000F8012B491EFBD270470022F6E7DE
:10F3400010B513460A4604461946FFF7F0FF20465B
:10F3500010BD421E12F8013F002BFBD111F8013BFA
:10F3600002F8013B002BF9D17047421C10F8011B39
:10F370000029FBD1801A704730B5044600200346AF
:10F3800000E05B1C934203D2E05CCD5C401BF8D0F4
:10F3900030BD30B505460020034600E05B1C9342BB
:10F3A00005D2EC5CC85C201A01D1002CF6D130BD2E
:10F3B000202A04DB203A00FA02F100207047914035
:10F3C000C2F1200320FA03F3194390407047202A2A
:10F3D00004DB203A21FA02F00021704721FA02F3FF
:10F3E000D040C2F120029140084319467047000006
:10F3F000064C074D06E0E06840F0010394E8070082
:10F4000098471034AC42F6D3FFF77CFE34F2010289
:10F4100064F2010270B58C1810F8015B15F0070357
:10F4200001D110F8013B2A1106D110F8012B03E09D
:10F4300010F8016B01F8016B5B1EF9D12B0705D4A5
:10F440000023521E0DD401F8013BFAE710F8013BEE
:10F45000CB1A921C03E013F8015B01F8015B521E0A
:10F46000F9D5A142D8D3002070BD000000000000F3
:10F4700040F2D50CC2F2000C604740F2DD1CC2F233
:10F48000000C604740F6210CC2F2000C604740F2CD
:10F490003D5CC2F2000C604740F2136CC2F2000CFB
:10F4A000604740F2296CC2F2000C604740F2BD7C1C
:10F4B000C2F2000C604740F2AF7CC2F2000C604721
:10F4C00040F2CB7CC2F2000C604740F2957CC2F265
:10F4D000000C604740F2256CC2F2000C6047704798
:10F4E00010B502460B46107808B9012100E01178EA
:10F4F000012905D10120064C207000BF00BF01E0AA
:10F50000002100BF00BF19704FF0011010BD0000B6
:10F51000180F002030B502460B461078547840EAA8
:10F5200004210C4800680A24B0FBF4F00A4CB0FB3C
:10F53000F4F0801C0324B0FBF4F041430846044679
:10F5400000BF00BF651E2C1EFCD100BF002018703C
:10F55000024830BD1C0C002040420F000100020098
:10F56000014600200A4A107000BF80208000094A2E
:10F57000926A8243074B9A621A46526B824342F464
:10F5800000725A6300BF002008700120704700001D
:10F59000180F00200050014030B502461546521C9D
:10F5A00012F8014B0BE012F8013B03F0020020B10E
:10F5B00003F0100010B1121D00E0121D641E002C9B
:10F5C000F1D1002008704870501B0004801C30BD31
:10F5D0002DE9F04104460D4620787F281BD114F810
:10F5E000010B05F8010B14F8017B05F8017B4FF0C6
:10F5F000021809E02946204600F011F90646B044F9
:10F6000004EB1644B0B20544381EA7F10107F1D14E
:10F610004046BDE8F0812946204600F000F9F8E7B1
:10F6200010B50246107810B1012818D112E05378B5
:10F6300003F0010030B10E4B1B6B43F480630C4CA4
:10F64000236305E00A4BDB6A43F48063084CE36202
:10F6500000BF08E0537803F0010000BF03E0FF2083
:10F660000870044810BD00BF002008700148F9E789
:10F6700000500140010002002DE9F04105460C4612
:10F680000026092D77D008DC092D6FD2DFE805F0C0
:10F6900093161A1B252C40546100FC2D7FD006DCEC
:10F6A000F02D76D0F12D78D0FB2D5FD176E0FD2DB9
:10F6B00076D0FE2D7BD0FF2D7DD172E000BF0020E3
:10F6C000064679E078E000BF07F0B0FF074639460C
:10F6D000204609F047FB06466EE0062632463849CA
:10F6E0002046FFF704FE67E027463648006960B110
:10F6F00034480069D0F8A40138B132480069D0F824
:10F70000A411384609F02EFB00E00020064653E025
:10F7100027462C48006960B12A480069D0F8A80142
:10F7200038B128480069D0F8A811384609F01AFB0A
:10F7300000E0002006463FE027462248C06F28B17F
:10F740002048C16F384609F00DFB00E00020064656
:10F7500032E027461B48D0F8800048B11948D0F85D
:10F760008010384609F0FEFA03E004E023E016E0DA
:10F770000020064620E000BF07F060FF074639463C
:10F78000204609F0EFFA064616E002E005E007E041
:10F790000DE01120207001260EE00DE00CE00BE0E2
:10F7A0000AE04020207000206070022604E0132050
:10F7B0002070012600E000BF00BF3046BDE8F081A8
:10F7C000EBD301025CD3010202461378FF200870DC
:10F7D000581C0004401C70470246FF2008704FF080
:10F7E00001107047F0B502460B46FF2003F8010BED
:10F7F0000125012612F8017B0AE012F8014B04F002
:10F800003F0101B94021C81DC1080A44481C0544F4
:10F81000381EA7F10107F0D146EA0540F0BD70B5EA
:10F8200005460E462878802807D328789F2804D8D4
:10F830003146284600F09CF870BD2878A02807D3F0
:10F840002878FE2804D83146284600F07BFAF3E7F2
:10F85000287806F8010B15F8010B1E287ED2DFE888
:10F8600000F00F181E24646A717D77292F7D7D7D3D
:10F870007D7D343A404652585E7D7D7D7D7D7D4C58
:10F880002878711CFFF7F8FE0446347004F102106A
:10F89000D2E731462846FFF7C3FE044664E031460E
:10F8A0002846FFF71DFE04465EE03046FFF758FE8F
:10F8B000044659E031462846FFF72CFE044653E043
:10F8C000304600F045FA04464EE03146284600F046
:10F8D0005FFD044648E03146284600F037FD044607
:10F8E00042E03146284600F00DFE04463CE0314639
:10F8F000284600F037FA044636E03146284600F044
:10F9000045FA044630E031462846FFF76BFF0446CF
:10F910002AE031462846FFF757FF044624E03146E7
:10F920002846FFF759FF04461EE03146284600F0FE
:10F9300075FE044618E03146284600F02FFE0446C6
:10F9400012E00BE03146284600F040FE04460BE092
:10F950003146284600F07AFE044605E0FF2006F80E
:10F96000010C4FF0011067E700BF04F1011063E7DD
:10F970002DE9F04786B005460C464FF00116287871
:10F9800004F8010B15F8010B803820286FD2DFE84E
:10F9900000F010233146596C6D6F70838D97B3FD65
:10F9A000FCFBFAF9F8F7F6F5F4F3F2F1F0EFEEED0F
:10F9B000ECEB07F03BFE81464846FFF7D6FC00F033
:10F9C000FF0804F8018B424649462046FFF78FFCAA
:10F9D00008F10100064485E14FF00708684602F08F
:10F9E0009DF9424669462046FFF781FC08F1010077
:10F9F000064477E1684602F091F94FF00008D5F827
:10FA00000080CDF80080684602F0AEF9002002F0D8
:10FA1000ADFA0120207006F58026761C62E14FF0D9
:10FA20003E084146601C0BF063FF8046B8F1000FB2
:10FA300002D0012008F008F884F8008008F10100E5
:10FA400006444FE195F800806D1C414628460CF0B5
:10FA50004DF8012007F0F8FF0120207008F10100A7
:10FA6000012101EB004006443CE13BE13AE138E191
:10FA700038E101202070287818B9002008F0D4F966
:10FA800007E02878012802D108F0CEF901E0002033
:10FA9000207006F1011625E10120207006F03AF8E9
:10FAA00010B902200BF016FD761C1BE128780AF035
:10FAB000A1FA207006F1011600208D49088011E19D
:10FAC0008B48008898B18A4801888A4800680AF003
:10FAD00031FB2070002086490880207838B12078DA
:10FAE000132804D02078142801D0761CFAE00AF0FC
:10FAF00049FA2070761CF5E095F800906D1C012005
:10FB000007F0B6FF7A48008810B9C9F3080050B36F
:10FB1000CA4646E076480088C0F50070504504D2D9
:10FB200073480088C0F5007000E050461FFA80F866
:10FB3000704909686E4A1288881842462946FFF7BC
:10FB4000D6FB6B480088404469490880AAEB080A44
:10FB5000454408460088B0F5007F1FDB4FF4007174
:10FB60006448006813E020E0BAE0B8E0B6E0B4E032
:10FB7000B2E0B0E0AEE0ACE0AAE0A8E0A6E0A4E02D
:10FB8000A2E0A0E09EE07EE085E028E019E00AF037
:10FB9000D1FA207000205649088001E00020207032
:10FBA00000BFBAF1000FB5D104E0494628460AF07B
:10FBB000C1FA207009F10100012101EB0040064467
:10FBC00090E000202070287818B9002007F06AFA29
:10FBD00002E0012007F066FA06F1011682E00AF061
:10FBE0009DFB02200AF0FCFE04200AF0F9FE05202D
:10FBF0000AF0F6FE40A005F023F80020059004224C
:10FC000005A941480AF04DFD059840F08070059027
:10FC1000042205A93C480BF0A9F900200490042215
:10FC200004A93A480AF03DFD049840F00100049010
:10FC3000042204A935480BF099F9042203A933489A
:10FC40001C300AF02EFD32A0DDE9022104F0F8FF9D
:10FC5000042202A92D481C300AF023FD2CA0DDE966
:10FC6000022104F0EDFF314809F050F9074639460A
:10FC70002E4809F091F806200AF0B2FE01202C4926
:10FC8000087002262EE02BA004F0DAFF002028499D
:10FC90000870022626E0254809F038F90746642F47
:10FCA00001D2384600E06420074607F003003F1AFF
:10FCB00037B13A4621461D4809F082F8BE1C00E0E3
:10FCC00000260FE00EE00DE00CE00BE00AE009E09A
:10FCD00008E007E006E005E004E003E002E001E000
:10FCE00000E000BF00BF304606B0BDE8F08700006E
:10FCF00004090020000900205374617274207063AD
:10FD00002074726163650A00FCED00E0001000E001
:10FD1000445754206379636C6520636F756E746516
:10FD200072202578202578210A0000006C3C0020F4
:10FD3000140C002053746F70207063207472616320
:10FD4000650A00000246FF2008704FF0011070475E
:10FD500010B5044601F05AF86070002020700220AF
:10FD600010BD000010B50246137803F00300401CDC
:10FD7000054C2077C3F380040348447700200870C3
:10FD80004FF0011010BD0000180F00202DE9F047C2
:10FD900004460E46002006F8010B4FF001084FF014
:10FDA000010914F801AB26E014F8017B07F03F05C8
:10FDB00005B94025E81DC50807F0800010B100BF57
:10FDC00000BF02E000BF00BF00BF324621463846F8
:10FDD000FFF74EFBBAF1000F02D100BF00BF00BF1A
:10FDE00007F0800020B108F101082E44A94402E088
:10FDF0002C44681C8044BAF10000AAF1010AD3D156
:10FE000049EA0840BDE8F0872DE9F04F87B0054684
:10FE10000C460695002005900026A246A41CE04949
:10FE20000870834604906D1C15F8019B50E115F88D
:10FE3000017B07F0020000287ED0BBF1000F3DD00F
:10FE4000D848B0F8148007F01100012811D100BF84
:10FE500001A93846FFF711FB0646022E1CD1B8F166
:10FE60000000A8F1010817D0CD4800780028EFD095
:10FE700012E000BF01A90E20FFF7FFFA0646022E8E
:10FE800008D1B8F10000A8F1010803D0C4480078F7
:10FE90000028EFD04FF0000B012E00D01CE101989C
:10FEA00004F8010B0198000A04F8010B0198000CFA
:10FEB00004F8010B0198000E04F8010B07F0100084
:10FEC00000285ED02878697840EA0120A97840EAC5
:10FED0000140E97840EA016003902D1DB148C08AD5
:10FEE000029007F00100B0B1AE48B0F8148000BF36
:10FEF00000213846FFF7C1FA0646022E08D1B8F1B4
:10FF00000000A8F1010803D0A54800780028EFD030
:10FF1000012E00D0E0E000BFA248B0F8148000BF7E
:10FF200001A93846FFF7A9FA0646022E0AD1B8F110
:10FF30000000A8F1010800E069E003D098480078CB
:10FF40000028EDD0012E00D00EE09648806901997E
:10FF500008400399884207D00298411E029118B1C7
:10FF60008F4800780028D7D000BF8E48806901995B
:10FF700008400399884201D046F01006012E43D074
:10FF8000AAE08848B0F8148007F00100C8B1BBF1BE
:10FF9000000F39D100BF00213846FFF76EFA064640
:10FFA000022E08D1B8F10000A8F1010803D07C4866
:10FFB00000780028EFD0012E00D08DE04FF0010B2B
:10FFC00022E000BF01A93846FFF757FA0646022E85
:10FFD00008D1B8F10000A8F1010803D070480078FA
:10FFE0000028EFD0012E00D076E0019804F8010B34
:10FFF0000198000A04F8010B0198000C04F8010BA9
:020000040201F7
:100000000198000E04F8010B0020049057E0BBF1AA
:10001000000F27D06348B0F8148000BF01A90E205C
:10002000FFF72BFA0646022E08D1B8F10000A8F11E
:10003000010803D05A4800780028EFD0012E00D0E4
:100040004AE0019804F8010B0198000A04F8010B3A
:100050000198000C04F8010B0198000E04F8010B44
:100060004FF0000B2878697840EA0120A97840EA2F
:100070000140E97840EA016001902D1D07F0200061
:1000800020B1484801998161012618E04548B0F83F
:10009000148000BF01A93846FFF7EFF90646022E8B
:1000A00008D1B8F10000A8F1010803D03C4800785D
:1000B0000028EFD0012E00D00EE00120049005981A
:1000C000401C05903648007800B105E0A9F101090F
:1000D000B9F1000F7FF4ABAE00BF0CE015F8017B67
:1000E00007F0020020B107F0100010B12D1D00E054
:1000F0002D1DA9F10109B9F1000FEFD1012E3FD15A
:10010000BBF1000F26D02748B0F8148000BF01A92A
:100110000E20FFF7B2F90646022E08D1B8F1000012
:10012000A8F1010803D01E4800780028EFD0012E66
:1001300000D026E0019804F8010B0198000A04F8A9
:10014000010B0198000C04F8010B0198000E04F853
:10015000010B15E0049898B11248B0F8148000BF64
:1001600000210E20FFF789F90646022E08D1B8F1CA
:100170000000A8F1010803D0094800780028EFD05A
:1001800000BF05988AF800008AF80160A4EB0A0114
:100190000698281A41EA004007B0BDE8F08F000039
:1001A000FC080020180F00202DE9F84F04460D46EA
:1001B0004FF0000B0026A846ED1C002056490870A1
:1001C000641C2078617840EA012AA41CBAF1000F6F
:1001D00000D195E014F8017B07F0020000284FD011
:1001E00007F00100B0B14D48B0F8149000BF0021F5
:1001F0003846FFF742F90646022E08D1B9F1000051
:10020000A9F1010903D0444800780028EFD0012E5D
:1002100000D075E02EE0BAF1000F03D107F0010025
:1002200000B10E273D48B0F8149000BF694638462B
:10023000FFF723F90646022E08D1B9F10000A9F113
:10024000010903D0344800780028EFD0012E00D0F7
:1002500056E0009805F8010B0098000A05F8010B1C
:100260000098000C05F8010B0098000E05F8010B32
:100270000BF1010BBAF10000AAF1010ACBD13EE06B
:1002800024E02078617840EA0120A17840EA01402A
:10029000E17840EA01600090241D2048B0F81490F5
:1002A00000BF69463846FFF7E8F80646022E08D137
:1002B000B9F10000A9F1010903D01748007800281E
:1002C000EFD0012E00D01BE00BF1010BBAF10000C2
:1002D000AAF1010AD5D11148B0F8149000BF00214D
:1002E0000E20FFF7CAF80646022E08D1B9F1000029
:1002F000A9F1010903D0084800780028EFD000BF19
:1003000088F800B04FEA1B2088F8010088F80260E6
:10031000A5EB0800BDE8F88FFC080020180F0020AE
:1003200038B504460D466078A17840EA0120E178AE
:1003300040EA0140217940EA0160009069460020CE
:10034000FFF79BF800202870012038BD70B50446E7
:100350000D462078617840EA0120A17840EA01400A
:10036000E17840EA01661EB9FF202870064870BD9A
:10037000064886603046FFF785F8304601F0FAF807
:10038000002028700048F2E701000400180F002048
:100390002DE9F0470646884634787578B078F178CC
:1003A00040EA0120317940EA0140717940EA01696F
:1003B00005F0010040B104F0010010B100BF00BF22
:1003C00002E000BF00BF00BF05F0020040B104F032
:1003D000020010B100BF00BF02E000BF00BF00BFBD
:1003E00005F0040010B1A00800BF00BF05F0200018
:1003F00010B1600900BF00BF05F0800018B34FEADC
:10040000D41ABAF1000F0ED039493A480AF0EAFD81
:100410003948006B40F480103749086300211420EC
:1004200000F0E0F90DE0324932480AF0DBFD01212D
:10043000142000F0D7F93048C06A40F480102E49EB
:10044000C86200BF00BFB9F1000F3AD04FF00109F8
:1004500000BF2A48476800BF00BF05F0010020B177
:1004600000BF0020604000B124E005F0020028B188
:1004700000BF002080EA540000B11BE005F004003A
:1004800028B100BF002080EA940000B112E005F01E
:10049000200028B100BF002080EA541000B109E01C
:1004A00005F0800028B100BF002080EAD41000B120
:1004B00000E005E000BF11484068C01B4845CCD3B0
:1004C00000BF00BF002000BF002140EA410000BF84
:1004D00040EA810000BF40EAC10000BF40EA41108D
:1004E00000BF40EAC11488F800400548BDE8F08725
:1004F0000400FA050CED00E000500140001000E09F
:100500000100060070B504460E4614F8015B0DB9F3
:100510004FF4807521462846FEF7B9FF0020307061
:10052000E81DC508681C0004401C70BD10B5002003
:100530001649087016488860002008746421134822
:1005400081820021C1828161012010490877002148
:100550000E4841770E4801F00DF800BF4FF480645B
:100560000C4800F0C2FC0C48806AA04340F4806054
:10057000094988620846406BA04348630846C06A40
:1005800040F48060C86200BF10BD0000180F00205A
:1005900080969800030030000050014070B5054679
:1005A0000E4609480078012805D131462846FFF754
:1005B0002BFC044605E031462846FEF7EDFF0446D5
:1005C00000BF00BF204670BD180F002070B5054663
:1005D0000E4611480078012805D131462846FFF71C
:1005E000E3FD044605E0002030707070B070032415
:1005F00000BF00BFE87800F0020010B144F480248E
:1006000008E06878A97840EA0120042101EB800025
:1006100044EA0044204670BD180F002002461078BE
:10062000084B18745078937840EA03230548838276
:10063000D078137940EA03230248C382002008706F
:1006400001487047180F00200100050070B50646EC
:100650000D4609480078012805D129463046FFF7A4
:100660005FFE044603E0FF202870012400BF00BFA6
:1006700044F4A02070BD0000180F00200146087847
:10068000832807D00878842804D008788C2801D0E3
:10069000012070470020FCE72DE9F04104460D469B
:1006A00016461F46D4F8E804D8B32846FFF7E6FFFD
:1006B00010B1012007F0D2F9402E00DD4026D4F819
:1006C000E804401EC4F8E804D4F8F01404EB8110E8
:1006D00032462946FEF70BFED4F8F00404EB8011F5
:1006E0002846FEF775FF804604F59860D4F8F0249C
:1006F00020F81280D4F8F00404EB80103860D4F8AD
:10070000F004401C1321B0FBF1F201FB1200C4F80D
:10071000F004D4F8EC04401CC4F8EC040120BDE85B
:10072000F081FFE70020FAE730B50346D3F8EC0488
:1007300008B3D3F8EC04401EC3F8EC04D3F8F40477
:1007400003EB8010086003F59860D3F8F44430F8A8
:1007500014001060D3F8F404401C1324B0FBF4F52B
:1007600004FB1500C3F8F404D3F8E804401CC3F8F4
:10077000E804012030BD0020FCE70021C0F8F0149F
:10078000C0F8F4141321C0F8E8140021C0F8EC14E8
:10079000704710B50446204605F00EFD10BD30B57B
:1007A000012404FA01F304689C4302FA01F52C4386
:1007B000046030BD0146152901DB084800E0084807
:1007C0000246152902DBA1F1150000E008460346A8
:1007D000106AD84000F0010070470000006001403E
:1007E000005001402DE9F04107460E46152F01DB70
:1007F0001F4800E01F480446152F02DBA7F1150033
:1008000000E038460546022E0CD1E9B2012204F17F
:100810002800FFF7C4FFE9B2012204F13400FFF71A
:10082000BEFF22E0032E14D00EB1012000E0002014
:100830000246E9B204F12800FFF7B1FF0EB901202A
:1008400000E000200246E9B204F13400FFF7A7FF00
:100850000BE0E9B2002204F12800FFF7A0FFE9B2A3
:10086000002204F13400FFF79AFFBDE8F081000098
:10087000006001400050014030B50A46152801DBF8
:100880000B4C00E00B4C2146152802DBA0F11504AF
:1008900000E0044623462AB10C6B01259D402C4301
:1008A0000C6304E0CC6A01259D402C43CC6230BD32
:1008B0000060014000500140204604F015FA034654
:1008C0000020704708B50020009009F03BFF08B9F0
:1008D000002008BD4EF29E700AF0A2F908B900206F
:1008E000F7E709F02FFF08B90020F2E7684609F0A2
:1008F000B7FE08B90020ECE70120EAE721F07F020B
:100900000243014B1A60704708ED00E0F0B5044661
:100910000D462646202E01DB012000E00020074680
:1009200006F01F0C012000FA0CF10D4800EB8702C5
:100930000B48083000EB87031DB91068884310602E
:100940000BE0012D03D118680843186002E0186815
:10095000884318601068084310600020F0BD000054
:10096000806000402DE9F04705460E461746984640
:10097000DDF820907F2D0DD1134901EB870009F0A0
:10098000FF0308F0FF024FF0FF3109F0D0F800201C
:10099000BDE8F0872946304607F08AFD0446002C62
:1009A00001DA2046F4E7084901EB870009F0FF036C
:1009B00008F0FF02214609F0BAF8F1B2284600F02B
:1009C00093F90020E4E70000406000402DE9F84F73
:1009D00004460D4616461F46DDE90B9ADDF82880D1
:1009E00004EB44004F4911F81000009004EB440060
:1009F0004D4B13F8102004EB44004C4B13F810102F
:100A000005232846FFF7AEFF18B14FF0FF30BDE8D1
:100A1000F88F04EB4400434901EB4000407800901C
:100A200004EB4400404B03EB4000427804EB4400ED
:100A30003E4B03EB4000417805233046FFF792FF21
:100A400010B16FF00100E2E704EB4400354901EB1F
:100A500040008078009004EB4400334B03EB4000EF
:100A6000827804EB4400314B03EB4000817805238E
:100A70003846FFF777FF10B16FF00200C7E704EBCD
:100A80004400284901EB4000C078009004EB44008A
:100A9000254B03EB4000C27804EB4400234B03EBEF
:100AA0004000C17805234046FFF75CFF10B16FF0AE
:100AB0000300ACE704EB44001A4901EB4000007965
:100AC000009004EB4400184B03EB4000027904EB68
:100AD0004400164B03EB4000017905234846FFF71D
:100AE00041FF10B16FF0040091E704EB44000D49A1
:100AF00001EB40004079009004EB44000A4B03EB0B
:100B00004000427904EB4400084B03EB400041797C
:100B100005235046FFF726FF10B16FF0050076E77A
:100B2000002074E786E101027AE101026EE1010230
:100B30002DE9FE4F04460D4691469A46DDE90CB676
:100B40000E9F53464A4629462046CDE900B60297F5
:100B5000FFF73CFF8046B8F1000F02D04046BDE8E9
:100B6000FE8F04EB4400134A12F81010284600F0E0
:100B7000BBF810B14FF0FF30F1E704EB44000D4A31
:100B800002EB40004179384600F0AEF810B16FF04A
:100B90000500E4E704EB4400064A02EB400001795B
:100BA000304600F0A1F810B16FF00400D7E7002044
:100BB000D5E7000092E1010270B505460C46102D04
:100BC00001D1112C02D04FF0FF3070BD0323012260
:100BD0001146134808F0ABFF0423012211461048C8
:100BE00008F0A5FF0023072219460D48543808F0E5
:100BF0009EFF07231A4600210948543808F097FF42
:100C00002B460122002106481C3008F090FF2346A5
:100C10000122002102481C3008F089FF0020D4E79F
:100C200064600040F8B504460D46164614B1012C28
:100C300032D118E00F2005230322662100902846B8
:100C4000FFF790FE10B14FF0FF30F8BD14200523E0
:100C50000322672100903046FFF784FE10B14FF069
:100C6000FF30F2E719E000200523042268210090FC
:100C70002846FFF777FE10B14FF0FF30E5E705207B
:100C800003460422692100903046FFF76BFE10B145
:100C90004FF0FF30D9E700E000BF00BF0020D4E7ED
:100CA000F0B50A4605464FEAE07C00EB1C7C4FEAB3
:100CB0002C1600F00F034FEA430C032505FA0CF73E
:100CC0005D0002FA05F4012801D184F00104054D0C
:100CD00005EB86010D68BD430D600D6825430D6071
:100CE000F0BD00000861004070B504460E46314674
:100CF000204609F009F90546002D01DA284670BDA5
:100D0000112C0CDC04F00301C1EBC103A110394A22
:100D100002EB81000722294608F009FF67E0142C46
:100D20000BDCA4F1120040000E30C3B202222946AF
:100D30003048103008F0FBFE59E0152C07D1142381
:100D4000072229462B48103008F0F1FE4FE0162C00
:100D500007D10023072229462648143008F0E7FE71
:100D600045E01E2C0BDCA4F117004000C01DC3B2EF
:100D7000022229461F48143008F0D9FE37E01F2C04
:100D800007D11723072229461A48143008F0CFFE4E
:100D90002DE0202C07D11E230222294615481430AD
:100DA00008F0C5FE23E0212C07D1002302222946AA
:100DB0001048183008F0BBFE19E0232C0CDCA4F11D
:100DC0002200C0EBC000801CC3B20722294609489C
:100DD000183008F0ACFE0AE0A4F124004000103006
:100DE000C3B2022229460348183008F0A0FE0020B2
:100DF00085E700000060004070B506460C461546C9
:100E000022462946304607F0A5FB70BD10B50024E8
:100E100074B1204920480AF0E5F82048006B40F4FE
:100E200080101E49086300211420FFF7DBFC0DE051
:100E3000184919480AF0D6F801211420FFF7D2FC0E
:100E40001648C06A40F480101449C86200BF0124EB
:100E500074B1104910480AF0C5F81048006B40F40E
:100E600080100E49086300211420FFF7BBFC0DE041
:100E7000084909480AF0B6F801211420FFF7B2FC2E
:100E80000648C06A40F480100449C86200BF0120CF
:100E900010BD00000400FA050CED00E00050014018
:100EA00070B505460C46164624B10122002128469D
:100EB00008F032FE334601222146064808F046FE7D
:100EC00034B90548A86501221146284608F024FED9
:100ED00070BD0000280000400400008010B50446EA
:100EE0000121204600F012F810BD70B5054600241F
:100EF00008E00120A040284010B12046FFF7EEFF97
:100F0000601CC4B2192CF4DB70BD000070B504463F
:100F10000D46192C7AD2DFE804F00D1925313D4930
:100F200055616D7A8C9EAABCC8D4E0F4F2F1F0EF62
:100F3000EEEDEC0015222946954808F0EDFD122251
:100F400029469348083008F0E7FD1EE1162229469D
:100F50008F4808F0E1FD122229468D48083008F03C
:100F6000DBFD12E102222946894808F0D5FD002266
:100F700029468748083008F0CFFD06E103222946BC
:100F8000834808F0C9FD012229468148083008F04D
:100F9000C3FDFAE0042229467D4808F0BDFD022287
:100FA00029467B48083008F0B7FDEEE001222946CB
:100FB000774808F0B1FD112229467548083008F03D
:100FC000ABFDE2E005222946714808F0A5FD0A22A2
:100FD00029466F48083008F09FFDD6E008222946D0
:100FE0006B4808F099FD092229466948083008F045
:100FF00093FDCAE009222946654808F08DFD0C22C0
:1010000029466348483008F087FDBEE0BCE00A226C
:1010100029465F4808F080FD132229465C480830C5
:1010200008F07AFD142229465948083008F074FD6A
:10103000ABE00B222946564808F06EFD0B222946EC
:101040005348083008F068FD1022294650480830FF
:1010500008F062FD99E00C2229464D4808F05CFD3D
:10106000002229464A48001F08F056FD8DE00C2258
:1010700029464748001F08F04FFD0D2229464448E5
:1010800008F04AFD062229464148083008F044FD90
:101090007BE00E2229463E4808F03EFD0722294605
:1010A0003B48083008F038FD6FE00F2229463848E9
:1010B00008F032FD0C2229463548083008F02CFD96
:1010C00063E010222946324808F026FD082229460E
:1010D0002F48083008F020FD57E0112229462C48FF
:1010E00008F01AFD042229462948083008F014FDAA
:1010F0004BE043E035E028E021E01AE013E00CE0AB
:10110000FFE712222946224808F006FD052229465B
:101110001F48083008F000FD37E0132229461C481C
:1011200008F0FAFC31E014222946194808F0F4FCD2
:101130002BE000222946164808F0EEFC25E00622A6
:101140002946134808F0E8FC1FE0172229461048FA
:1011500008F0E2FC0E2229460D48083008F0DCFCBD
:1011600013E0052229460A48743008F0D5FC07220E
:1011700029460748743008F0CFFC06E019222946BA
:10118000034808F0C9FC00E000BF00BF70BD0000CC
:101190000C00004000B54FF08040C06A00F03F02F4
:1011A0004FF08040C06AC0F3851300F04DF95843FA
:1011B000B0FBF2F000BD00B54FF08040406800F495
:1011C000805010B14FF4004000BD00F03DF94FF0E9
:1011D0008041C969090DB0FBF1F0F5E770B504462F
:1011E000A01E162875D2DFE800F00B0C0DE63223A6
:1011F000C8459AE6586BA6788B8CE2E3E6E6B2BE69
:1012000000BF00BF4FF08040416804F10D00012293
:101210008240114011B1FFF7CEFF70BD00F014F90C
:10122000054614210B2006F0CFF8B5FBF0F0F4E7EB
:1012300000F00AF905460621162006F0DFF84543BE
:101240000021162006F0DAF8B5FBF0F0E5E74FF0E4
:101250008040C06A00F4004010B1FFF7ACFFDCE74B
:1012600000F0F2F805461B210B2006F0ADF8B5FBA7
:10127000F0F0D2E74FF08040406800F4005010B129
:10128000FFF799FFC9E700F0DFF8054618210020B5
:1012900006F09AF8B5FBF0F0BFE74FF080404068E9
:1012A00000F4001048B100F0A9F805461421002010
:1012B00006F08AF8B5FBF0F0AFE700F0C5F8ACE750
:1012C0004FF08040406800F4800018B100F076F8DC
:1012D000A3E770E000F0B8F89FE74FF08040406867
:1012E00000F4000048B100F089F805460C21002008
:1012F00006F06AF8B5FBF0F08FE700F0A5F88CE790
:1013000000BF4FF080404168E01C01228240114044
:1013100011B100F053F880E700F096F87DE74FF048
:101320008040C06A00F4803010B1FFF733FF74E7EB
:1013300000F08AF871E74FF08040C06A00F4003096
:1013400010B1FFF727FF68E700F07EF865E74FF080
:101350008040C06A00F4002010B1FFF71BFF5CE77B
:1013600000F072F859E700F049F805460021202006
:1013700006F02AF8B5FBF0F04FE74FF08040406DE3
:1013800000F4004048B100F019F80546012115208D
:1013900006F027F8B5FBF0F03FE700F055F80546FA
:1013A0000121152006F01DF8B5FBF0F035E700BF70
:1013B00000F018F831E700F047F82EE710B54FF0CD
:1013C0008040406800F4804048B100F017F80446BF
:1013D0000021084605F0F8FFB4FBF0F010BD00F066
:1013E00033F8FBE710B5FFF7E9FF044604210020BE
:1013F00005F0EAFFB4FBF0F010BD000070B5114835
:10140000006800F48010D8B14FF08040006CC0F349
:1014100045004FF08041096CC1F3C53110FB01F468
:1014200000F012F84FF08041096CC1F3C711A0FB26
:1014300001500146224600232846FDF727FF70BDD4
:101440000020FCE7A801104011480069C0F300210A
:1014500009B11048704710480068C0F304300328F1
:101460000DD003DC38B101280FD106E0072808D0E1
:101470000F280AD107E00948ECE70948EAE70548E0
:10148000E8E70848E6E70848E4E70848E2E700003C
:101490000020104000366E017C01104000127A00DE
:1014A0000024F4000048E801006CDC020090D00346
:1014B00010B50446012221460148FFF7F1FC10BD9A
:1014C0000000144070B505460C4615B1012D1ED123
:1014D00016E00CB1012000E00020014615220D4865
:1014E00008F01AFB012C0ADB142304222146100702
:1014F00008F02CFB1E220121064808F00DFB07E036
:1015000004F001011622034808F006FB00E000BFCA
:1015100000BF70BD0400004010B504460023042243
:101520002146044808F012FB04220121014808F07A
:10153000F3FA10BD8000004070B504460D460CB9AA
:10154000132000E01420024605F00101014808F0D4
:10155000E3FA70BD0400004030B101228A4042F03D
:101560007102034B1A6002E00022014B1A607047BF
:10157000740110400146134A12680A23B2FBF3F2C9
:10158000B1EB520F04D301220F4B5A705A6017E08F
:1015900000220D4B5A700B4A12680A23B2FBF3F378
:1015A0004A1E02EB5302B2FBF1F0012805D9401E9E
:1015B000821C0323B2FBF3F000E00120024A5060DA
:1015C000704700001C0C0020180F002010B52D489B
:1015D0000068C0F34000D0B12B48C06820F0040080
:1015E000001D2949C8602948486100BFBFF34F8FDB
:1015F0002748006800F4E06026490843001D24499C
:101600000860BFF34F8F00BF00BF00BFFDE74FF082
:101610008040C06820F00400001D4FF08041C86089
:101620000846406920F00100401C48610846C06837
:1016300020F040004030C8600846C06820F4001028
:1016400000F50010C8600846C06820F4800000F56E
:101650008000C86010490020FFF750F9FFF7CEFE68
:101660000E49086001210020FFF766FF01210846AE
:10167000FFF762FFFFF7A2FE04464FF4612104F07A
:101680003DFC10BD0001104000201040072A95EAE3
:101690000CED00E00000FA0500F000021C0C002038
:1016A00000BFBFF34F8F0748006800F4E0600649B1
:1016B0000843001D03490860BFF34F8F00BF00BF00
:1016C00000BFFDE70CED00E00000FA0530B5C3698E
:1016D0008D000F24AC40A343C361C3698C0002FAA0
:1016E00004F42343C36130BD70B504460D460226A1
:1016F0000B48844201D1032603E0B4F1402F00D10E
:10170000042604F1200000EB0510006800F008003A
:1017100010B1FFF767FE70BD3046FFF75FFDFAE7D7
:101720000030004010B502F00F038C00A34083612D
:1017300010BD30B543698D000F24AC40A343436115
:1017400043698C0002FA04F42343436130BD70B551
:10175000049C154663F3DF0545EA041600F12005F5
:1017600005EB01152E6070BD00F1200303EB0113A2
:101770005A607047016070471CB504460020019014
:1017800000906A4601A90848FEF7CEFF40B107491C
:10179000097841F08000DDE9002102F0D3F902E090
:1017A0000120034908701CBD246F0020CAE101021A
:1017B000720E002038B505461D4800881D4909886D
:1017C000421A1D4801681D48007801F047FD84B2A7
:1017D00019480068204418490860164800882044C9
:1017E000144908800846008811490988884206DAA9
:1017F00013481449097830F81100A04216DD6B46F1
:101800000C48028810491148FEF746FF40B11048C5
:10181000007828B10020FFF7AFFF00200C490870C6
:1018200000200449088008480349086038BD0000CA
:10183000D0E10102700E00206C0E0020CBE101020D
:10184000CCE10102CD0E0020CC670020246F0020E7
:10185000720E002010B5044604F0040010B1002000
:10186000FFF7A8FF04F0080010B10020FFF784FF85
:1018700010BD01460020704704480068044909680B
:10188000401A04490988081A70470000800E002099
:10189000840E0020BCE1010270B506460C460E48DD
:1018A00000680E490968884213D90B4800680B4943
:1018B0000968451AAC4200DD2C46224607480168FB
:1018C0003046FDF714FD05480068204403490860D0
:1018D00000E00024204670BDA00E0020A40E0020D1
:1018E00001460020704700002DE9F04707460C46EE
:1018F000B8463148006831490968A0EB0109304811
:101900000088A0EB09062F480278012000FA02F1B6
:101910004FF06440FDF7E3FD2A480278012000FA09
:1019200002F125480068FDF7DAFD2648027801201B
:1019300000FA02F121480068FDF7D1FD002E02DC1B
:101940000020BDE8F087B44200DD344600251E4883
:1019500000681E49096888421AD31B4800680119AB
:101960001B48174A12881044814211D31848144961
:101970000988084414490968451A2A46414612480C
:101980000068FDF7B4FCA844641B11480E490860C8
:1019900054B1224641460C480068FDF7A8FC0A48AD
:1019A00000682044084908602C440348006820442B
:1019B000014908602046C4E7800E0020840E002004
:1019C000BCE10102B9E10102880E00208C0E00206A
:1019D0000067002010B504460648006800B110BD3D
:1019E00001200449086000F007F800200149086060
:1019F00000BFF4E7740E002070B53848006800B9E5
:101A000070BD3748006837490968441A34B9364808
:101A1000006818B9002031490860F1E714B3334871
:101A200000683349096888420FD330480068204471
:101A30003049314A12881144884206D32D482E4934
:101A40000988084429490968441A2C482C4909780E
:101A500030F81100A04209DA28482949097830F8FD
:101A6000114003E02048006800B1002400201E4916
:101A700008602449097841F0800022461B49096822
:101A800002F060F8054619480068284417490860C4
:101A90001448006828441349086016481649098804
:101AA000084412490968884202D112480F49086067
:101AB0000B4800680B49096888420AD10F48104951
:101AC000097830F81100A84203D1012006490860C6
:101AD00002E000200449086000BF91E7780E002072
:101AE000800E0020840E00207C0E00208C0E002032
:101AF000880E002000670020BCE10102C4E1010261
:101B0000CD0E0020B9E1010210B50446114800686D
:101B100028B111480068401C0F49086010BD012021
:101B20000C4908600D49086000F01EF800200B49C0
:101B30000860084908600A4800680A49096888423C
:101B400006D007490968074A1268881AFFF7C8FED5
:101B500000BFE3E7900E0020980E0020940E0020B6
:101B6000A00E0020A40E002070B51D4800681D497D
:101B7000401A1D490988081A1C491D4A127831F873
:101B8000121088421FDB164800681649401A164991
:101B900009880D1A2A46124801681648007801F093
:101BA0005DFB04460E48006820440D490860124859
:101BB000006898B11148006880B90F480068401E5D
:101BC0000D4908600AE001200D4908600B480068D3
:101BD00020B109480068401C0749086070BD00003A
:101BE000A00E002040670020BEE10102C4E1010216
:101BF000CD0E0020BAE10102980E0020940E0020C4
:101C00009C0E002010B5044604F0040010B12046DC
:101C1000FFF77AFF04F0080010B12046FFF7DAFE64
:101C200010BD70470146002070470020704700003B
:101C300010B5104800F072F8D0B10E4800780E4987
:101C400008700C480088000A48700A480068000CB8
:101C5000887008480068000EC8700648007908714E
:101C6000044840794871034880798871012010BD8B
:101C70000020FCE7AA0E00203866002010B50020E6
:101C8000154908601549086015490860154908603C
:101C90001549086015481649086016490860002073
:101CA000154908601549086015490860154908601C
:101CB0001548164908601649086000201549088033
:101CC0004FF4E13014490860002008714871082081
:101CD000887100F035F810BD740E0020780E0020D9
:101CE0007C0E0020800E0020840E00200067002063
:101CF000880E00208C0E0020900E0020940E0020F4
:101D0000980E00209C0E002040670020A00E0020AE
:101D1000A40E0020A80E0020AA0E002001460748AD
:101D20000068086005480079887104484079487166
:101D3000024880790871012070470000080F0020D8
:101D400010B509F0ADFD05F09DFE012010BD10B5E8
:101D500009F0DAFD012010BD10B50446204609F057
:101D6000EFFD012010BD000010B5044620680749B2
:101D70000860A07908716079487120798871002025
:101D8000C871084609F0D4FD10BD0000080F0020FE
:101D900010B5002017490860174908601749086006
:101DA000174908601749086017481849086018491A
:101DB0000860002017490860174908601749086043
:101DC000174908601748184908601849086000203A
:101DD00017490880FFF7BBFF4FF4E1301549086051
:101DE000002008714871082088710846FFF7BCFF81
:101DF00010BD0000740E0020780E00207C0E002024
:101E0000800E0020840E002000670020880E002035
:101E10008C0E0020900E0020940E0020980E0020C2
:101E20009C0E002040670020A00E0020A40E002081
:101E3000A80E0020AA0E002010B5FFF7A9FF10BDC4
:101E400010B53748007828B900203649086036496F
:101E5000086010BD3448006850B932480068401C22
:101E600030490860642802D901202F490860F0E752
:101E70002E480068B8B92E4800682E490968884283
:101E800011D12B4800682C4988420CD001202749E9
:101E9000086029482649086026490860002027492B
:101EA00008602249086026480068D0B11F480068D1
:101EB000B8B922480068A0B901201C490860FFF7A2
:101EC00053FE00201949086019480068194909683B
:101ED000884206D016490968164A1268881AFFF720
:101EE000FFFC18480068C8B917480068B0B917481F
:101EF000006817490968401A10D01649097841F05E
:101F0000800000F0DBFC48B101200E4908600E495A
:101F10000860FFF771FD00200A49086000BF98E7DC
:101F2000BF0E0020B40E0020B80E0020900E00203E
:101F3000A00E0020A40E0020406700209C0E002070
:101F4000980E0020740E0020780E0020800E0020D5
:101F5000840E0020B9E10102002002490860024914
:101F600008607047B40E0020B80E002070B505461A
:101F70000F490968C8698047C0B93DB106F054F8F7
:101F80000C490860002009F0A5FA0FE006F04CF8B3
:101F9000044608480068201AB0F5967F03D3012054
:101FA00005F07AFD02E0002005F076FD012070BD0D
:101FB000C4D40102100F0020002070470146002009
:101FC0007047000010B50446024804802046FFF721
:101FD000C3FE10BDA80E002010B50E4800780D49B4
:101FE000497840EA01200B49897840EA01400949D3
:101FF000C97840EA0160084908600648007908711C
:102000000448407948710348807988710846FFF791
:10201000ABFE10BD38660020AA0E002070B5044645
:1020200004F07F05062D00DB70BD012202FA05F1E8
:1020300044F07A40FDF753FAE0B2002102F05AFD75
:1020400000BFF1E72DE9FC410446A07820F08005AF
:10205000E07800F00306A788062D01DBBDE8FC81CF
:10206000012E00D1FAE7402F00D94027A17841F096
:102070007541E27841EA02200121FDF730FAA078AB
:102080008DF8020005208DF80100ADF804708DF880
:102090000360684601F0D8FEA07838B1094A02EB27
:1020A0008511A0780223402202F03CFC064850F83B
:1020B000250020F00200801C034941F8250000BFE4
:1020C000CCE70000D0300020543C0020704700F0E6
:1020D00001BC10B5044624B101210846FFF73CFAC3
:1020E00003E000210846FFF737FA10BD10B5154888
:1020F000848814B90020144908701249898841F075
:1021000073400121FDF7EBF90E49096808680121C8
:10211000FDF7E5F90B49096848680121FDF7DFF98A
:10212000084822460168802001F00CFD044605485D
:10213000006820440349086008468088001B8880A6
:1021400010BD0000D00E0020CE0E002010B50848B3
:1021500082880168002001F081F804460448006884
:1021600020440349086008468088001B888010BD11
:10217000D00E00207047000070B5054605F07F04C2
:10218000062C00DB70BDE8B201F086FF084850F86D
:10219000240020F00100064941F82400084650F8C8
:1021A000240020F0020041F8240000BFEAE700000C
:1021B000543C002000F07F01044A52F8212022F014
:1021C0000102521C014B43F821207047543C00206F
:1021D00010B5044644F072400121FDF780F904F087
:1021E0000200002871D001F095FCB8490978C809AF
:1021F000FFF7C0FFB548C088B5498880B349086873
:102200000121FDF76CF9B14948680121FDF767F933
:10221000AE480078C0F3411020B1012877D00228E1
:1022200076D1C5E0A94840780C2872D2DFE800F0EA
:10223000060DA21BA229464E4F62729501F0C2F90B
:1022400000B9C6E0FFF752FF95E0002001F01AFA4E
:1022500000B9BEE001F072FC9E48006810B19D48D4
:102260000068804787E0012001F00CFA00B9B0E077
:1022700001F064FC9748006810B1964800688047F8
:1022800079E000BF9148007800F01F0030B98F4816
:10229000807840F080009049087001E0002001E063
:1022A00000BF012000B994E08B49097801F07F005C
:1022B000012101F012FC01F041FC5CE001F010F89A
:1022C00000B986E0FFF712FF55E095E081E000BF1E
:1022D0007E48007800F01F0018B980487C490860EB
:1022E00001E0002001E000BF012000B971E0FFF72C
:1022F000FDFE40E001F03CFA00B96AE001F01EFC8E
:102300007748006810B176480068804733E034E0D1
:102310005EE02FE000BF6D48007800F01F0001284C
:1023200012D16E48007860B1684800796D4909782B
:10233000884206DA654800796B49084464490860B8
:1023400001E0002004E001E0002001E000BF0120E6
:1023500000B93EE0FFF7CAFE0DE001F0FFFA00B958
:1023600037E001F0EBFB6148006810B15F4800689E
:10237000804700E02DE000BF3DE05448007800F0C9
:102380001F0020B1012803D002280FD10DE020E06A
:1023900000F08AF900B10AE000F000FA00B106E0AE
:1023A00000F002F900B102E013E012E011E022E0D7
:1023B0004648007800F01F0040B900F0F1F900B184
:1023C00005E000F043FA00B101E002E001E012E0B4
:1023D00000BF3E480078C00930B93C48C08818B1F9
:1023E000002001F07BFB02E0802001F077FB002061
:1023F0003749888000BF00BF04F0040098B3334819
:102400000078C00980BB3248808860B3FFF79EFE29
:102410002F48808838BB2D480078C0F3411010B198
:10242000012818D100E017E02848007800F01F00CC
:1024300020B1012803D002280BD109E00CE000F004
:1024400091F800B106E000F055F800B102E003E0B9
:1024500002E001E007E000BF802001F03FFB002028
:102460001B49888000BF02E0FFE701F068FB04F031
:102470000800F0B1154800780121B1EBD01F08D158
:102480001348808810B91A48007890B1FFF72EFEE3
:102490000FE01148007800F0800050B10E4800783D
:1024A00000F07F000C49087000210B48007801F013
:1024B00014FB04F0400010B10020FFF7AFFD04F062
:1024C000800010B18020FFF7A9FD10BDD80E0020BC
:1024D000D00E002038E20102BE0E0020BF0E002008
:1024E00030E20102CC0E0020400C002034E2010258
:1024F000CE0E002010B51848007918490978884296
:1025000005D01548007916490978884222D1124829
:10251000407820B102280AD020281AD111E0FFF714
:102520004BFD18B101F00AFB012010BD11E00A4972
:102530004888FFF743FD18B101F000FB0120F4E7E4
:1025400007E0FFF749FD18B101F0F8FA0120ECE7C8
:1025500000BF00BF0020E8E7D80E00205A0C002082
:102560005B0C002010B50D4800790D4909788842B0
:1025700005D00A4800790B49097888420CD10748F0
:102580004078092807D100F053FC18B101F0D6FAC1
:10259000012010BD00BF00BF0020FAE7D80E0020C8
:1025A000480C00205C0C002010B53A4800793A49EC
:1025B0000978884205D03748007938490978884237
:1025C00066D134484078042833D007DC78B101283C
:1025D00012D002281BD0032859D11DE0202832D068
:1025E000212835D022283ED0232850D145E02C4840
:1025F0002C490860012010BDFFF717FB30B12848B7
:1026000028490860FFF772FD0120F4E73FE0244805
:10261000244908600120EEE71E494888FFF702FBC5
:1026200030B11F481F490860FFF760FD0120E2E755
:102630002DE018494888FFF71CF918B101F07EFA1F
:102640000120D8E723E01648164908600120D2E7A8
:10265000FFF7EEFA30B1124812490860FFF746FD65
:102660000120C8E713E00B494888FFF7ABFC18B11D
:1026700001F064FA0120BEE709E006494888FFF747
:1026800075FC18B101F05AFA0120B4E700BF00BF91
:102690000020B0E7D80E00205A0C00205B0C002070
:1026A00038660020D00E002010B534480079344937
:1026B0000978884205D03148007932490978884242
:1026C0005AD12E4840780C2855D2DFE800F0540645
:1026D0002E4154545454541D394C00F0A3FA90B177
:1026E0002648C078012803D127482849086006E019
:1026F0002248C078032802D1254824490860FFF702
:10270000F5FC012010BD36E01C48C078022803D13A
:1027100020481E49086006E01848C078032802D106
:102720001B481A4908600120ECE700F063FA30B159
:10273000194816490860FFF7D9FC0120E2E71AE0C2
:1027400000F04EFB18B101F0F9F90120DAE712E0D0
:1027500000F05EFA30B110480C490860FFF7C6FC83
:102760000120CFE707E000F059FB18B101F0E6F9CE
:102770000120C7E700BF00BF0020C3E7D80E00203C
:10278000480C00205C0C002079660020D00E002050
:10279000590C0020BD6600203866002000207047DC
:1027A0002DE9F041002723484078234909788842E1
:1027B00027D120488088022821D1204C1D488078CC
:1027C00008B900BF1CE0002604E0207808B120789A
:1027D0000444761C17488178701C8142F5D8207813
:1027E00008B900270CE004F0F3FE80464146E01CE7
:1027F000FCF7AFFD124804602578012700E000BF18
:1028000000BFA7B10B48C088A8420AD90C498D80E7
:102810000C480078401E284038B901200A49087049
:1028200003E00448C08806498880FFF75FFC38460B
:10283000BDE8F081D80E0020C8E10102AC0D0020F7
:10284000D00E0020A4E10102CE0E002070B50026BB
:10285000144840781449097888420BD1114880887F
:10286000072805D1114D124805602C89012600E08A
:1028700000BF00BFA6B10B48C088A0420AD90C49CE
:102880008C800C480078401E204038B901200A494D
:10289000087003E00348C08805498880FFF726FCDC
:1028A000304670BDD80E0020C9E10102600C002046
:1028B000D00E0020A4E10102CE0E0020014601F05E
:1028C0007F02034810F82200C0F340007047000068
:1028D000543C002000200C4908700C4908600C4949
:1028E00008600C4908600C4908800C4908800C49B4
:1028F00008600C4908600C4908800C4908800C49A4
:1029000008600C4908807047E00E0020E40E0020AB
:10291000E80E0020EC0E0020F00E0020F20E002049
:10292000F40E0020F80E0020FC0E0020FE0E002009
:10293000000F0020040F002070B50646684800888C
:1029400068490988884224DB6748006808BB002082
:102950006649086062490880654801780123421C85
:10296000184609F069FB5F4908800846008880B175
:102970005F485E4908605F480078012804DC08462B
:102980000068401C086004E056480088401C554917
:1029900008805448008800285ED15748006818B164
:1029A00000205549086057E054480068002853D07B
:1029B0005048007801281CDC5048006800284BD0A3
:1029C00000204B490870464908800223484A521C9F
:1029D0000021012009F030FB4249088008460088A8
:1029E00018B14348401C4149086000204349086031
:1029F00032E03F48047800BF202C00DB0024012097
:102A0000A0403E490968084010B3601C384908706E
:102A1000002033490880601CC1B20223344A521C92
:102A2000012009F009FB2F4908800846008838B1C9
:102A30002F482E4908602B480088401C29490880EF
:102A40000120A0402D49096881432C48016002E023
:102A5000601CC4B2D0E700BF2248008810B92248E9
:102A60000068B8B31F4800881D490988401A85B21C
:102A700023482449097830F81100A84204DA204894
:102A80002049097830F811501F48007840B11E499C
:102A9000097841F080002A461449096801F052F88B
:102AA000124800682844114908600D4800882844ED
:102AB0000B490880084600881449098888420ADAC8
:102AC0000F481049097830F81100A84203D10120BD
:102AD0000549086002E000200349086070BD00005D
:102AE000F20E0020F00E0020F40E0020EC0E00206C
:102AF00078660020B0E10102E40E0020E80E00201C
:102B0000ACE10102CD0E0020A5E10102B2E101021B
:102B100038B505462648008848B926482649086041
:102B2000264800882649088000202149088024483A
:102B300000881F490988421A1F4801682148007807
:102B400000F08CFB84B21C48006820441A490860DD
:102B50001748008820441649088064B10846008858
:102B600016490988884206DA17481849097830F862
:102B70001100A0421BDD16480078012809DC012065
:102B800000900B4803880B4A0021022009F00EFB3D
:102B90000AE00120009006480088431E054801789D
:102BA000421C022009F002FB00200149088038BDC8
:102BB000FE0E0020BC660020F80E0020B4E10102E9
:102BC000FC0E0020A6E10102ACE10102CD0E0020C6
:102BD000B1E1010210B5044604F0080010B120462E
:102BE000FFF7AAFE04F0040010B12046FFF790FFA3
:102BF00010BD0000034880780349085C0349087051
:102C000001207047D80E0020540C002038660020A8
:102C100010B509F00FFA02490870012010BD00003C
:102C20003866002010B500240C48C078012804D074
:102C3000022804D0032806D103E0094C03E0002059
:102C400010BD084C00BF00BF044A9178D078002323
:102C5000224609F0F1F90120F2E70000D80E002029
:102C600079660020590C00202DE9F0415148007888
:102C700000287DD00026504801780078401C4E4A3C
:102C800010704E48007800EB400204209040401E37
:102C9000814203DB0020484908700126002548488E
:102CA0000088FF2804DA46480088401C4449088010
:102CB00044484249097830F811004149098888425E
:102CC00000D10125002462E04FF000089EB13E488B
:102CD000005DFF2804DA3C48005D401C3A49085575
:102CE0003A48005D38B13848005D3849095D88428E
:102CF00001DB4FF001083548005D3049097801EBF0
:102D000041020221914088402E492C4A127831F824
:102D10001210884204DA2D48005D08B1012000E05D
:102D2000002007463DB137B10120A040284909687D
:102D30000843274908602548005D2649095D884207
:102D400013D02148005D2349095D884209DB012039
:102D5000A0401F49096808431D4908600020164922
:102D600008701C48005D19490855B8F1000F00E0D3
:102D70001EE00AD037B90120A04015490968084370
:102D800013490860002010490855601CC4B212485D
:102D90000078844298DB15B10020094908800C486E
:102DA000006828B10D48008810B90020FFF7C4FD65
:102DB000BDE8F081BF0E0020060F0020CD0E0020E0
:102DC0004A0C0020A8E101024C0C0020500C00200D
:102DD000E80E0020540C0020B0E10102F00E0020AB
:102DE0000B48807830B10A48C2788078401E094B81
:102DF0001A540BE0002105E00548C078054A5054FC
:102E0000481CC1B2044800788142F5DB01207047BC
:102E1000D80E0020540C0020B0E1010210B5034987
:102E2000887809F0C1F9012010BD0000D80E0020FB
:102E300038B500240D48C078012804D0022804D0F9
:102E4000032806D103E0002038BD094C01E0094CFD
:102E500000BF00BF0020054A0090D3889178D07849
:102E6000224609F0A3F90120EEE70000D80E002069
:102E7000BD660020590C00202DE9FE43EE4846694E
:102E800000244FF0000840693043EB494861EB48AB
:102E9000304068B101214FF07C40FCF720FB01215C
:102EA0003046FCF71CFBE64908680121FCF717FBDC
:102EB00006F48050002849D0E248006840F00060E5
:102EC000E049086000270CE0DE48203000EB4710A6
:102ED000006840F00061DB48203000EB47100160E3
:102EE0007F1C052FF0D301F011FDD548001D0068AF
:102EF00040F00110D249091D0860D1480838006827
:102F000040F00D00CE4908390860081D006841F204
:102F10002D110843CA49091F0860C94818380068BC
:102F200020F4FE60C64918390860C348806940F43F
:102F30004020C149886102208DF80000C248D0F8C5
:102F40000411684688470620BF49087006F40050FF
:102F500050B30120BC494870B948E830006820F0FF
:102F60000300B749E8310860B648006840F0004007
:102F7000B449086001F0C8FAB348D0F8C40020F49E
:102F8000007000F50070B049C1F8C4004021AE489F
:102F9000D0F8C40061F31630AB49C1F8C40008464C
:102FA000007840F00800087006F48020002869D0FE
:102FB000A548007800F00800002863D0A048006809
:102FC0009F49091D096800EA010800251FFA88F8D1
:102FD00000BF54E028FA05F000F0010000284CD0B2
:102FE000DDB99748F030046844F060400121FCF7F7
:102FF00076FA04F0010060B193484078022802D0CC
:10300000042804D100E000BF01F014FB00E000BF81
:1030100000BF8B48F03004602FE08C48691E00EB45
:1030200041108468894800EB41108460012202FA53
:1030300005F144F06040FCF752FA04F00100E0B101
:10304000E9B241F0800000F06FFE00B116E0E9B295
:1030500041F0800000F02CFF78B101208DF80000D5
:10306000E8B28DF804000021029101218DF80510CD
:103070007548D0F804116846884700BF6D1C052DBF
:10308000A8D900BF06F40020002879D06E48007847
:1030900000F00800002873D0694800686849091DDD
:1030A000096800EA010800254FEA184800BF64E0FB
:1030B00028FA05F000F0010000285DD035BB61481A
:1030C0000830046844F061400121FCF708FA5D48CB
:1030D0000830046004F0080028B101205A49487003
:1030E00001F0A8FA48E004F00100E0B35648407847
:1030F000012804D0032803D0052805D101E004E00D
:1031000000BF01F097FA00E000BF35E04D482030E5
:10311000691E00EB411084684A48203000EB4110E2
:103120008460012202FA05F144F06140FCF7D7F90E
:1031300004F00100B8B105F07F0000F0B1FD20B946
:1031400005F07F0000F0B4FE68B101208DF80000AA
:10315000E8B28DF804003C48643000EB051041688B
:103160000291002101E007E00AE08DF805103648E1
:10317000D0F80411684688476D1C052D98D900BF0A
:1031800006F0080090B1304890F8F40000F0080014
:1031900060B12D48007800F0080038B103208DF8A8
:1031A00000002948D0F804116846884706F40060FA
:1031B000A8B12548007800F0080080B122480078C6
:1031C00040F0060020490870012001F085FB042032
:1031D0008DF800001C48D0F804116846884706F0B6
:1031E0000040A8B11848007800F0080080B11648E7
:1031F000007820F0060014490870002001F06CFBF4
:1032000005208DF800001048D0F804116846884762
:103210001F2000280DDB00BF00BF00F01F020121AE
:1032200091404209920002F1E022C2F8001100BF71
:1032300000BF00BFBDE8FE8300001840D77FFFFB42
:1032400018081840000B1840FC44002020091840C2
:1032500010B502F099F910BD704700002DE9F04754
:10326000044688461546C4F3C01904F07F0601F0F1
:103270002FF98246062E02DB0020BDE8F087B9F167
:10328000000F01D00020F8E744F0774242EA052021
:10329000012202FA06F1FCF722F93EB92F463A461E
:1032A00051464046FCF723F83846E6E7E0B201F025
:1032B000ADF90746BD4200D22F46084800EB861103
:1032C0003A464046FCF713F8044A02EB8611E0B296
:1032D0000223402201F026FB3846CEE7D030002002
:1032E0001CB57848007800F01F0010B101286FD19C
:1032F000C8E07448C078062812D006DC012809D03E
:1033000002281FD0032875D17CE007284BD00F2856
:10331000F9D1A0E06C486D49086012200090AFE040
:103320006B48007808B900201CBD6A48007818B9BD
:1033300069486649086002E06848644908600A20F4
:1033400000909DE06248007828B962480078012822
:1033500001D10020E8E75F48007828B96048019073
:1033600002200199487004E05E4801900220019912
:103370004870002407E00198007818B1019841884E
:1033800008440190641C4F488078A042F3D1019812
:10339000007808B90020C7E74C49019808600198F7
:1033A000408800906CE04A48007808B90020BBE7EC
:1033B0004848007828B94B48019007200199487087
:1033C00004E047480190072001994870002408E074
:1033D00060E00198007818B1019841880844019094
:1033E000641C38488078A042F3D10198007810B965
:1033F000002099E742E0354901980860019840882B
:1034000000903DE0384801902E488078032808D18C
:1034100004F010F92D490860084600680078009013
:103420002EE0002407E00198007818B10198017897
:1034300008440190641C23488078A042F3D101988D
:10344000007808B900206FE72049019808600198CA
:103450000078009014E02548007808B9002063E760
:10346000234801901949019808600198007808B92B
:10347000002059E701984088009001E0002053E7C0
:1034800000BF09E0694601A800F038F808B900203B
:103490004AE701E0002047E700BF0C488088009918
:1034A00088420CD9094900988880084680881149CB
:1034B0000978491E084010B901200F490870012001
:1034C00032E70000D80E002064E20102D00E002096
:1034D000A1E10102CD0E002076E2010277E20102B5
:1034E0000C680020AA0D0020B4E20102A2E1010252
:1034F00078E20102A4E10102CE0E00200246264835
:10350000C078212804D022282AD023283FD13CE0AB
:1035100021480079214B1B78984207D01E4800793A
:103520001F4B1B78984201D0002070471D4800783F
:1035300028B91D480078012801D10020F5E71A4874
:10354000007810B91948106001E019481060194B53
:103550001B8810681844184B18600920086018E090
:103560000D4800790D4B1B78984207D00A48007926
:103570000B4B1B78984201D00020D6E70F480E4B2A
:1035800018600F480088086003E00020CDE70020A5
:10359000CBE700BF0120C8E7D80E0020480C002070
:1035A0005C0C0020A1E10102CD0E00200C6800207F
:1035B000AA0D00205E0C0020D00E002040E2010287
:1035C00062E201022748007800F01F0020B10128C4
:1035D00006D0022841D116E02348244B18603EE073
:1035E0002348007860B11F480079224B1B7898422D
:1035F00006DA0020204B188018461C4B186001E0AA
:10360000002070472BE01748007900F08F0101F08F
:10361000800028B101F00F034FF48030984001E0A2
:103620000120884002461248007810B901F00F00CE
:1036300080B912480068104060B11148006810401D
:1036400008B1012000E000200B4B18801846074B02
:10365000186001E00020D4E701E00020D1E700BFBE
:103660000120CEE7D80E0020BC0E0020D00E002096
:10367000BF0E0020CC0E002038660020C00E0020B7
:10368000C40E002070B506463348007800F01F00D5
:1036900020B101281DD0022858D11CE02E484088B6
:1036A000012813D146B100F04BFA2C48008840F0B5
:1036B00002002A4908800BE0002000F041FA274868
:1036C000008820F002002549088001E0002070BD3C
:1036D0003EE00020FBE72048007900F08F0404F072
:1036E000800028B104F00F014FF48030884001E0E1
:1036F0000120A04005461A48007820B304F00F00CE
:1037000008B3184800682840E8B113484088C0B999
:1037100046B1204600F0E2F91348006828431249F8
:10372000086012E011480068284008B10120CEE787
:103730002046FEF773FC0C480068A8430A4908605D
:1037400003E00020C3E70020C1E701E00020BEE75E
:1037500000BF0120BBE70000D80E0020BC0E0020F7
:10376000BF0E0020C00E0020C40E0020C80E002096
:103770002DE9F04100266C48007800F01F00002879
:103780006FD16948807800286CD06848007830B9DB
:1037900067480078012802D10020BDE8F081644824
:1037A000007808B9634D00E0634D82E06878022834
:1037B00006D0042858D0052858D0072875D100E035
:1037C00000BF687958498978884247D1564880783F
:1037D0005A49087028795A490870002403E00020EB
:1037E00058490855641C584800888442F7D301247E
:1037F00014E00120A04055490968084010B1204656
:10380000FEF7BAFC4FF48030A040504909680840E8
:1038100018B144F08000FEF7AFFC641C102CE8D314
:103820004FF00110494908600020494908604949A2
:1038300008600120FEF74AFCE87900F0400030B152
:103840004548008840F00100434908800BE04248A9
:10385000008820F001004049088004E068880544A1
:1038600027E05BE02AE020E0EE781EE0E6B9A878E9
:1038700000F08F0404F0800028B104F00F014FF431
:103880008030884001E00120A04007462F480068B2
:1038900038432E4908602846FEF7D4FB2046FEF741
:1038A00089FC204600F008F900BF00BF28780544D5
:1038B00000BF287800287FF479AF26E000201F4958
:1038C0000870012414E00120A04020490968084044
:1038D00010B12046FEF750FC4FF48030A0401B4949
:1038E0000968084018B144F08000FEF745FC641CEC
:1038F000102CE8D34FF0011014490860002014493F
:10390000086014490860FEF7E1FB074880780B491E
:103910000978884201D000203FE701E000203CE721
:1039200000BF012039E70000D80E0020A1E101020C
:10393000CD0E00200C680020AA0D0020BF0E002034
:10394000CC0E0020400C0020460C0020C00E0020B1
:10395000C40E0020C80E0020BC0E00202DE9F05F30
:103960000027B846BB46B9464A48007800F01F0019
:1039700001286ED14848007810B90020BDE8F09FBA
:103980004FF0000A4548007828B9454800780128DA
:1039900001D10020F2E74248007808B9414C00E02C
:1039A000414C6EE06078022806D004280ED005282D
:1039B00022D0072861D100E000BF6079364909783C
:1039C000884202D0608804445BE056E0A77894F80F
:1039D00003804FF000092F480079B8420BD12D48E1
:1039E0008078404507D14FF0010A304810F807B001
:1039F000014601F8078040E026480079B8423BD1F3
:103A0000A07800F08F0606F0800028B106F00F01C4
:103A10004FF48030884001E00120B04005461D4849
:103A20008078404516D12248006828432049086024
:103A300020480068A8431F4908602046FEF702FBA3
:103A40003046FEF7B7FB304600F036F849EA050984
:103A500012E01AE0D8450FD109EA050060B9144810
:103A60000068A8431249086012480068A843114939
:103A700008603046FEF780FB00BF00BF207804449A
:103A800000BF207800288DD101E0002076E700BF3C
:103A9000504673E7D80E0020BF0E0020A1E10102BE
:103AA000CD0E00200C680020AA0D0020400C002044
:103AB000C00E0020C40E002000F07F01062900DBAC
:103AC000704700BFFCE7FEF7B7B910B5FFF7CCF8B9
:103AD000FEF7B6F901F0C0FC10BD704770B50446A2
:103AE00004F07F05062D00DB70BD012202FA05F10E
:103AF00044F07A4242F48070FBF7F1FC1DB9E0B269
:103B000000F0EAFF03E0E0B2012100F0F3FF00BFA4
:103B1000EAE7000010B5082202490020FFF79EFBEB
:103B200010BD0000D80E002010B54FF400710248FF
:103B3000006804F09DFA10BD5009002070477047DE
:103B4000704700002DE9F05F0446884616464FF0A6
:103B500002093546C4F3C01B04F07F0700F0B8FC2F
:103B60008246062F02DB0020BDE8F09FBBF1010F6B
:103B700001D00020F8E747B9BAF80600B04202D2F7
:103B8000BAF8060000E03046054644F0744242EAC6
:103B90000520012202FA07F1FBF7A1FC08F003005F
:103BA00080B1802D00D980252A4641460A48FBF77E
:103BB0009EFBAAB2E0B20023074900F059FF40EA99
:103BC000090907E0AAB2E0B20023414600F050FF25
:103BD00040EA09093046C7E7D0330020014621F00A
:103BE000800001F080029AB14FF0FF33144A02EBDB
:103BF000001213600023124A02EB00125360104AB5
:103C000002EB001293600E4A02EB0012D36016E042
:103C10004FF0FF330A4A603202EB001213600023B8
:103C2000074A603202EB00125360054A603202EB31
:103C300000129360024A603202EB0012D3607047B8
:103C400000450020F0B503460125144823F0800408
:103C500004B1F0BD067806F01F0696B90678C6F3E3
:103C6000411666B94678062E07D146883612012ECF
:103C700001D1002500BF00BF00BF00BF00BF00BFD3
:103C800000BF00BF45B1C78816688F4201DD042719
:103C900000E000273E43166000BFDAE77C440020C6
:103CA00070B503460024002023F0800203F0800555
:103CB00095B11A4D05EB021122B9194D2D6805F089
:103CC0007F0408E0164D1035561E05EB46152D698C
:103CD000C5F3120400BF13E0104D603505EB02116F
:103CE00022B9104D2D6805F07F0408E00D4D103508
:103CF000561E05EB46152D69C5F3120400BF00BF23
:103D00000D7B05F0020545B18D682D1B4D604FF010
:103D1000FF350D6000258D60012070BD004500203D
:103D200010091840100B18402DE9F04F06464FF0CF
:103D30000008C34626F0800506F0800090B12648B2
:103D400000EB051425B92548006800F07F0808E05D
:103D500022481030691E00EB41100069C0F31208C0
:103D600000BF02E00020BDE8F08F207B00F00400DF
:103D700078B32068401C08B90020F4E7B8F1000FC0
:103D800001D00020EFE7A068A0EB08072068A0EBB7
:103D900007096068A0EB070AB9F1000F01DD0020F8
:103DA000E1E70D48C03050F83500C0F30A309AFB07
:103DB000F0F100FB11A008B10020D4E7E06820F08A
:103DC0000400E06001220021304600F0F5FC4FF0D5
:103DD000010B5846C7E700000045002010091840B5
:103DE00010B500201749087048700021802000F0AD
:103DF00081FE00240EE0611CC9B241F08000002168
:103E000000F078FE611CC9B241F0800000F044F976
:103E1000601CC4B2052CEEDB0021084600F06AFEEF
:103E200000240CE0611C01F07F00002100F062FE24
:103E3000611C01F07F0000F02FF9601CC4B2052C5A
:103E4000F0DB10BDFC44002070B505460226A878C2
:103E500020F080046978154850F8340061F38B2015
:103E6000124941F83400A988104850F8340061F331
:103E700016300E4941F83400A878C209084650F8B7
:103E8000341062F3082140F83410E978A87800F083
:103E9000FBF9064850F8340020F4007101F5007178
:103EA000024840F83410304670BD0000C045002084
:103EB0002DE9FC4106464FF0000826F0800506F08B
:103EC000800090B1264800EB051425B9254800680C
:103ED00000F07F0808E023481030691E00EB411015
:103EE0000069C0F3120800BF13E01D48603000EB0A
:103EF000051425B91C48006800F07F0808E01A483E
:103F00001030691E00EB41100069C0F3120800BFB9
:103F100000BF2068401C10B90120BDE8FC81A068EA
:103F2000A0EB08072068C01B206060683844606010
:103F30002068002804DC4FF0FF3020600120ECE70F
:103F400001AA6946304600F0F5FA0098A060BDF875
:103F500004203046009900F02FFC0020DDE700002F
:103F60000045002010091840100B184010B500BF84
:103F70000B48006900F000400028F9D008480069AB
:103F800040F0010006490861642004F023F800BFF6
:103F90000348006900F001000028F9D110BD0000BD
:103FA000000018401648806948F2380188431449D7
:103FB000886114480068144908431249086008469B
:103FC000006820F4FE6008600846006820F40000E5
:103FD00008600846006820F004000860081D0068BA
:103FE00020F00200091D0860054880690749D1F8E2
:103FF000F41041F4405108430149886170470000C2
:10400000000018400008184003000001FC44002094
:104010001E48B0F8F80098B11D4800681D490840D6
:104020001B490860084600681849B1F8FE10C1F342
:1040300008014FF4803242EA4141084314490860C4
:104040001248B0F8FA0018B91048B0F8FC00D8B11E
:104050000F48006840F2FC7188430D4908600B4826
:10406000B0F8FA0041000948B0F8FC0041EA40010C
:104070000648B0F80001C0F3080041EA8000044996
:10408000096808430249086070470000FC440020AA
:1040900030081840FFFF01FC30B5054625F08004CC
:1040A00005F08000002860D014BB6448006840F030
:1040B0000060624908600846006800F0004020B1D6
:1040C0000846006840F0804008605C48083000689E
:1040D0005A49083109680843584908310860574867
:1040E000E438006820F001005449E43908609EE09B
:1040F00052482030611E00EB4110006840F0006221
:104100004E48203000EB411002604C48203000EB5C
:104110004110006800F0004058B14848203000EBE2
:104120004110006840F080424448203000EB4110CC
:10413000026042482030611E00EB411080683F4918
:104140002031621E01EB4211896808433B4920314E
:1041500001EB421188603948E43800680121A14030
:1041600088433649E439086061E014BB344800688C
:1041700040F00060324908600846006800F00040E6
:1041800020B10846006840F0804008602C480830A4
:1041900000682B490831096808432949083108603B
:1041A0002648E438006820F480302449E439086067
:1041B0003DE023482030611E00EB4110006840F0D4
:1041C00000621F48203000EB411002601C48203084
:1041D00000EB4110006800F0004058B11848203052
:1041E00000EB4110006840F090421548203000EB91
:1041F0004110026012482030611E00EB41108068BF
:104200000F492031621E01EB4211896808430C49B5
:10421000203101EB421188600848E438006804F15D
:10422000100101228A4090430449E4390860204685
:1042300000F014F92846FFF7D1FC30BD0009184002
:10424000000B184010B504200549487000231A4699
:104250000449184600F00CFC00F056F910BD0000AF
:10426000FC440020BC44002000B5052004494870EF
:1042700000231A460349184600F054FB00BD000015
:10428000FC4400207C44002030B5024622F080002F
:1042900002F08003002B5FD028BB01F003034FF432
:1042A000004444EA834300F00F0443EA845300F0DF
:1042B0000F0443EAC423534C24682343514C236026
:1042C000504B08331B684F4C0834246823434D4C33
:1042D000083423604B4BE43B1B6843F00103494C1B
:1042E000E43C23608DE0474B2033441E03EB441332
:1042F0001C68454B53F83030C3F30A3301F0030513
:1043000043EA854343F4004300F00F0543EA855335
:1043100043F0805323433B4C2034451E04EB4514AB
:104320002360384B2033441E03EB44139B68354C09
:10433000203404EB4514A4682343324C203404EBAE
:104340004514A3602F4BE43B1B68012484402343A6
:104350002C4CE43C236054E0E8B92C4B1B6801F082
:1043600003044FF4004545EA84442343274C23606B
:10437000264B08331B68254C083424682343234C00
:10438000083423601F4BE43B1B6843F480331D4C0F
:10439000E43C236035E01D4B2033441E03EB441303
:1043A0001B68194C54F83040C4F30A3401F003057B
:1043B00044EA854444F4004444F080542343134CBD
:1043C0002034451E04EB45142360104B2033441E5B
:1043D00003EB44139C680D4B203303EB45139B68A0
:1043E00023430A4C203404EB4514A360054BE43B03
:1043F0001B6800F110040125A5402B43014CE43C4F
:10440000236030BD00091840C0450020000B184053
:104410001048006840F400700E49086000BF0D4865
:10442000006800F008000028F9D00B48006940F04F
:1044300010000949086100BF0748006900F010003A
:104440000028F9D10348006840F480600149086001
:104450007047000004081840000018401A494969D4
:1044600001F0400129B91949096841F08001174A52
:10447000116000BF1449496901F040010029F9D0D9
:1044800000BF1149096901F000410029F9D000BFBE
:104490000D49096901F020010029F9D100F01F013F
:1044A000202242EA8111084A116100BF06490969C8
:1044B00001F020010029F9D10449096841F4807113
:1044C000024A1160704700000000184004081840BC
:1044D000004870477C4400200448C06CC0F30210C0
:1044E000001D0121814088B2704700000000184083
:1044F0000448C06C00F00F000B30012101FA00F0FD
:104500007047000000001840074808490860084844
:10451000091D086005481038006840F080200349F4
:10452000103908607047000018000860100B184030
:104530007C4400202DE9F04307468846914627F049
:104540008005314850F83500C0F30A3307F0800089
:1045500058B32D48C03800EB051645B932689A4269
:1045600001D2104600E01846024601241CE03268E1
:10457000FFF7BEFF904201D9104601E0FFF7B8FFF8
:1045800002469A4201D8012003E0581E1044B0FBB5
:10459000F3F084B2FFF7A0FFA04204DAFFF79CFF1C
:1045A000044604FB03F200BF27E01748603800EB25
:1045B000051615B91A4601241EE03268FFF798FF68
:1045C000904201D9104601E0FFF792FF02469A425D
:1045D00001D8012003E0581E1044B0FBF3F084B270
:1045E000FFF77AFFA04201DD204601E0FFF774FFEC
:1045F000044604FB03F200BF00BFC8F80020A9F87E
:104600000040BDE8F0830000C0450020014621F0D5
:10461000800201F0800020B1054800EB02104068E4
:1046200070470348603000EB02104068F8E7000074
:10463000004500203EB5524C52484078062878D2BA
:10464000DFE800F09B035B788F95207800F01F0077
:1046500020BB6078052802D009281DD115E04A4802
:10466000006820F4FE604849086008460068A178A8
:1046700001F07F0140EA0110434908604148007899
:1046800040F010003F49087006E03E48007840F0D6
:1046900020003C49087000BF00BF00BF00BF0020E1
:1046A0008DF800003748D0F8041168468847054661
:1046B000102D08D12178C90909B1802100E000211D
:1046C000084600F009FA022D16D1E08810B9FFF76C
:1046D000B9FD11E02078C00908B1022000E00320F4
:1046E0002849487008464078032805D1E28800230D
:1046F0002349184600F016F940E08020FFF714FB2C
:1047000000B13BE08020FFF7D3FB88B101208DF89A
:10471000000000208DF804000021029101218DF895
:1047200005101848D0F8041168468847FFF79CFD2B
:1047300024E022E00020FFF7BBFB88B101208DF8C8
:10474000000000208DF804000E48816E02910021C7
:104750008DF80510D0F8041168468847FFF772FD00
:104760000CE0012007494870FFF7CEFE06E001206B
:1047700004494870FFF7C8FE00E000BF00BF3EBD1F
:104780007C440020FC4400200008184070B504461A
:1047900002250CB9042070BD00200649087048703D
:1047A000142221460348F430FAF7A1FD00F0E8F89E
:1047B0002846F0E7FC44002070B5034623F0800053
:1047C00003F08004002C4FD080B901F07F0402F088
:1047D000030544EAC5443D4D2C603C4C103C246824
:1047E00044F00444394D103D2C603CE0C2F309050F
:1047F0000C4665F3DF4444F00056344C1034451E3B
:1048000004EB45142661314C103404EB4514246844
:10481000C4F38144012C18D12C4C103404EB451402
:1048200024682B4D2D6805F4807515B14FF0805527
:1048300001E04FF0005545F004452C43234D103561
:10484000461E05EB46152C600CE0204C1034451E2E
:1048500004EB4514246844F004461C4C103404EB6B
:104860004514266000BF2FE0A0B901F07F0444F09A
:10487000C04412B14FF4002500E000252C43154D33
:104880002C60144C103C246844F00444114D103D3D
:104890002C6018E0C2F309050C4665F3DF440D4DAA
:1048A0001035461E05EB46152C610A4C1034451E8A
:1048B00004EB4514246844F00446064C103404EB21
:1048C0004514266000BF00BF70BD000010091840ED
:1048D00008081840100B184010B50446012C06D1EA
:1048E0000848006840F001000649086005E00648F5
:1048F000006820F0010004490860142003F06AFBFE
:1049000010BD0000000E18400408184000B510202B
:10491000FFF7A4FDFFF77CFDFFF762FA00F06EF8E9
:1049200000BD00002DE9F04704460F469046994629
:104930004FF0020A24F08005052D02DC07F0030089
:1049400010B10420BDE8F08725B90C48006800F4D8
:10495000004607E009482030691E00EB411000685E
:1049600000F400460EB90820ECE724F080004B4626
:104970004246394600F01AF95046E3E7000B18406A
:1049800010B51D48C06840F040001B49C860FFF7E3
:10499000EDFA1948806840F02700174988600846FA
:1049A000C068C96821F4705141F0080141F4105108
:1049B00008431149C8600846806940F006008861D4
:1049C00000F0DCF81020FFF749FDFFF721FDFFF7AD
:1049D000E9FA0948406908494969084306494861B4
:1049E00008464068496808430349486000F006F8F3
:1049F000FFF70EFB10BD000000001840002014E07F
:104A00004FF0FF32194901EB00110A6000221749EB
:104A100001EB00114A60154901EB00118A6013494E
:104A200001EB0011CA60411CC8B20628E8DB002077
:104A300018E04FF0FF320D49603101EB00110A60C0
:104A400000220A49603101EB00114A6007496031D8
:104A500001EB00118A600549603101EB0011CA6069
:104A6000411CC8B20628E4DB704700000045002066
:104A70002DE9FF4704460F4690464FF0020924F007
:104A80008005052D02DC07F0030018B1042004B0F6
:104A9000BDE8F08725B90F48006800F4004607E03C
:104AA0000C482030691E00EB4110006800F40046FD
:104AB0000EB90820EBE703AA41462046FFF7C2F8EB
:104AC00044F0800042463946039B00F06FF84846A8
