:020000040200F8
:10200000A816002011210002192100021B21000244
:102010001D2100021F210002212100020931004080
:10202000000000000000000000000000232100026A
:1020300025210002000000002721000229210002C2
:102040002B2100022B2100022B2100022B21000258
:102050002B2100022B2100022B2100022B21000248
:102060002B2100022B2100022B2100022B21000238
:102070002B2100022B2100022B2100022B21000228
:102080002B2100022B2100022B2100022B21000218
:102090002B2100022B2100022B2100022B21000208
:1020A0002B2100022B2100022B2100022B210002F8
:1020B0002B2100022B2100022B210002812800028B
:1020C0002B2100022B2100022B2100022B210002D8
:1020D0002B2100022B2100022B2100022B210002C8
:1020E0002B2100022B2100022B2100022B210002B8
:1020F0002B2100022B2100022B210002DFF80CD043
:1021000000F00CFB0048004749690002A8160020B7
:102110000648804706480047FEE7FEE7FEE7FEE781
:10212000FEE7FEE7FEE7FEE7FEE7FEE7D567000213
:10213000FD2000022DE9F05F0546002092469B46F7
:1021400088460646814640241BE0284641464746CD
:10215000224600F0BEF953465A46C01A914110D3A8
:1021600011461846224600F0A5F92D1A67EB010822
:102170004F4622460120002100F09CF917EB000990
:102180004E41201EA4F10104DFDC484631462A46B8
:102190004346BDE8F09F40EA01039B0703D009E0F6
:1021A00008C9121F08C0042AFAD203E011F8013B43
:1021B00000F8013B521EF9D27047D2B201E000F89C
:1021C000012B491EFBD270470022F6E710B51346DB
:1021D0000A4604461946FFF7F0FF204610BD30B509
:1021E00004460020034600E05B1C934203D2E05CFF
:1021F000CD5C401BF8D030BD30B50546002003460D
:1022000000E05B1C934205D2EC5CC85C201A01D153
:10221000002CF6D130BD0022CBB20178994200D11A
:102220000246401C0029F8D1104670472DE9F041C4
:102230000E460546002400E0641C285D00F06BF9A2
:102240000746305D00F067F9381A02D1295D002990
:10225000F2D1BDE8F0812DE9FE4F804681EA03000E
:10226000C00F0C46009021F0004123F00045B8EB70
:102270000200A94105D24046214690461C460B4625
:10228000024623F00040104347D0270DC7F30A0051
:10229000C3F30A510290401A019040286BDAC3F34D
:1022A000130040F4801B0098924620B10023D2EB2B
:1022B000030A63EB0B0B01985946C0F140025046EC
:1022C00000F0F8F806460D4650465946019A00F0CF
:1022D00010F910EB08006141002487EA115284EAEA
:1022E000E7731A4340D0009A62B3019A012A4FEA79
:1022F000075215DC001B61EB02014FF0004202EABD
:102300000752CDE90042001C41F5801132462B46B0
:1023100000F016F903B0BDE8F08F40462146F9E71A
:10232000001B61EB0201001C41F5801300185B41AA
:102330002018A2F5001747EB030140EAD570B61943
:102340006D4111E06D084FEA360645EAC0754FEA67
:102350000752001B61EB0201001C41F58011490886
:102360004FEA30000019514132462B4603B0BDE818
:10237000F04F00F0D6B80098012240000023D0EBC7
:10238000020263EBE073009821464FEAE074B8EB79
:10239000000061EB0401E9E783F000435BE781F0B3
:1023A000004158E72DE9FE4F81EA030404F00044A0
:1023B00021F0004100944FF0000B23F0004350EA5D
:1023C00001045ED052EA03045BD0C3F30A54C1F3A4
:1023D0000A552C44A4F2F3340194A0FB0254C1F337
:1023E000130141F48011C3F3130343F4801301FB81
:1023F000024400FB034E840A970A44EA815447EAE8
:102400008357A4FB076802958D0A05FB07854FEAF1
:10241000932C04FB0C542705029D4FEA065847EA0B
:102420001637B5EB08056EEB070C870E920E47EAE0
:10243000811742EA8312A7FB0201B6EB0B0164EBA2
:1024400000042B0D43EA0C335E1844EB1C50DA46B3
:102450005146E7FB0201C5F313044FEA0B3343EA8D
:1024600014534FEA0432019C43EA0603A4F10C041E
:102470000294009CCDE900B400F062F803B0BDE81E
:10248000F08F00200146F9E730B50B4601460020E9
:102490002022012409E021FA02F59D4205D303FA26
:1024A00002F5491B04FA02F52844151EA2F10102A7
:1024B000F1DC30BD202A04DB203A00FA02F10020D2
:1024C00070479140C2F1200320FA03F31943904072
:1024D0007047202A04DB203A21FA02F000217047DD
:1024E00021FA02F3D040C2F120029140084319467C
:1024F0007047202A06DBCB17203A41FA02F043EA64
:10250000E07306E041FA02F3D040C2F120029140AC
:10251000084319467047A0F14101192900D820301D
:10252000704710B5141E73F1000408DA401C41F125
:10253000000192185B411A4301D120F0010010BD47
:102540002DE9F04D92469B4611B1B1FA81F202E0BD
:10255000B0FA80F220329046FFF7ACFF04460F46F7
:1025600040EA0A0041EA0B0153465A46084313D099
:10257000114653EA010019D0C8F140025046FFF756
:10258000A8FF05460E46504659464246FFF792FFC1
:10259000084305D0012004E020463946BDE8F08D0F
:1025A0000020054346EAE0762C4337430A9863054A
:1025B000E40AA0EB08000022FD0A44EA47540A306E
:1025C00002D500200146E9E7010510196941DDE95E
:1025D000084500196941BDE8F04DA2E72DE9F04D2D
:1025E00081EA030404F0004B21F0004514464FF04B
:1025F000000A23F0004150EA050220D054EA01020B
:102600001DD0C5F30A570246C5F31303C1F31300E7
:10261000C1F30A5640F4801543F48013A7EB060873
:10262000101BD64608F2FD3873EB050002D308F103
:10263000010801E092185B41B8F1000F03DA0020B5
:102640000146BDE8F08D00204FF480110646844617
:102650000EE0171B73EB050705D3121B63EB050395
:1026600006434CEA010C49084FEA300092185B41DE
:1026700050EA0107EDD152EA030012D082EA0400C9
:1026800083EA0501084305D0101BAB4106D20122A5
:10269000002306E000224FF0004302E06FF0010249
:1026A00053101AEB06004CEB085110EB0A0041EBFB
:1026B0000B01BDE8F04DFFF734BFC1F30A52C1F37F
:1026C000130140F2FF3341F480119A4202DA0020F4
:1026D0000146704740F233439A42A2F2334202DC91
:1026E0005242FFF7F6BEFFF7E5BE000030B5041E0C
:1026F00071F1000404DB4FF00044404264EB01013F
:10270000141E73F1000405DB1C464FF000435242D7
:1027100063EB0403994208BF904230BD1CB50948E1
:102720000090094801900546009C06E0E06840F0F2
:10273000010394E8070098471034AC42F6D3FFF742
:10274000E1FC0000E4D6000204D7000282B0019050
:102750008DF803108DF802209DF8020050B1FFE7BC
:102760009DF80310012000FA01F201990868104356
:10277000086009E09DF80310012000FA01F20199B8
:10278000086890430860FFE702B0704784B08DF896
:102790000F009DF80F1045F20000C4F2010014294B
:1027A000C4BF46F20000C4F2010002909DF80F0081
:1027B000152805DBFFE79DF80F001538009003E0B2
:1027C0009DF80F000090FFE7009801900298006AC2
:1027D0000199C84000F0010004B0704780B586B090
:1027E0008DF817008DF816109DF8171045F20000AF
:1027F000C4F201001429C4BF46F20000C4F2010073
:1028000004909DF81700152805DBFFE79DF81700D9
:102810001538029003E09DF817000290FFE7029838
:1028200003909DF81600032817D0FFE7049828307E
:102830009DF80C109DF81620002A18BF0122FFF702
:1028400085FF049834309DF80C109DF81620B2FADC
:1028500082F25209FFF77AFF0FE0049828309DF8C2
:102860000C1000220192FFF771FF019A0498343096
:102870009DF80C10FFF76AFFFFE706B080BD00006F
:1028800080B582B001900020009001F0BDFD00985D
:1028900002B080BD86B08DF817008DF816109DF837
:1028A00017000490049900201F29C8BF012003903D
:1028B000049800F01F01012088400290039946F21D
:1028C0008000C4F2000000EB81000190039946F201
:1028D0008800C4F2000000EB810000909DF8160013
:1028E00030B9FFE7029A019908689043086016E042
:1028F0009DF81600012806D1FFE7029A00990868A2
:102900001043086005E0029A009908689043086047
:10291000FFE7029A0199086810430860FFE700206A
:1029200006B0704780B584B08DF80B008DF80A10A2
:102930009DF80B00102805D1FFE79DF80A0011282B
:1029400004D0FFE74FF0FF30039013E046F264003D
:10295000C4F200000090012201920323114604F00A
:10296000E7FD0098019A0423114604F0E1FD0020E0
:102970000390FFE7039804B080BD000080B586B0E7
:102980008DF8160004919DF8160040F61C22C2F244
:1029900000024FF4137110FB01204C300390002013
:1029A00002908DF8070004981F281ED0FFE7FFE76C
:1029B0004DF28B20C0F2002009F0F4FD4DF2D6104C
:1029C000C0F2002009F0EEFD4DF29E20C0F2002082
:1029D00009F0E8FDFFE79DF816004FF4A42100F090
:1029E0003FF900208DF8170036E19DF8160040F6FB
:1029F0001C22C2F200024FF4137110FB01239868ED
:102A000098629DF8160010FB0123D868D8629DF8E3
:102A1000160010FB0120406845F25531C4F24231E6
:102A200088421CD1FFE79DF8160040F61C22C2F236
:102A300000024FF4137110FB0120807C01280EDB93
:102A4000FFE79DF8160040F61C22C2F200024FF488
:102A5000137110FB0120807C11280ADBFFE79DF831
:102A600016004FF4A42100F0FBF800208DF81700A9
:102A7000F2E09DF8160040F61C22C2F200024FF46C
:102A8000137110FB0120C07C01460091A8B3FFE741
:102A9000009803283AD0FFE7009812283FD0FFE7BC
:102AA00000981A2856D0FFE700981B2840D0FFE76F
:102AB00000981E2845D0FFE7009823285CD0FFE748
:102AC0000098252861D0FFE70098282866D0FFE706
:102AD00000982A2874D0FFE700982F2800F0828001
:102AE000FFE700985A283ED0FFE70098A8285ED05C
:102AF000FFE70098AA286CD078E09DF8160003A99B
:102B000002AA00F065FF8DF8070079E09DF8160035
:102B100003A902AA00F076FE8DF8070070E09DF888
:102B2000160003A902AA00F0BFF88DF8070067E0BD
:102B30009DF8160003A902AA00F0DCFE8DF807003C
:102B40005EE09DF8160003A902AA00F039FA8DF89C
:102B5000070055E09DF8160003A902AA00F0CCF981
:102B60008DF807004CE09DF8160003A902AA00F0BA
:102B70006BF98DF8070043E09DF8160003A902AA3F
:102B800000F0B8FD8DF807003AE09DF8160003A9A3
:102B900002AA00F01DFD8DF8070031E09DF8160037
:102BA0000022114600F0AEFB8DF8070028E09DF8EA
:102BB00016000022114600F057FC8DF807001FE0B8
:102BC0009DF816000022114600F02CFF8DF807003A
:102BD00016E09DF816000022114600F0E3FF8DF884
:102BE00007000DE000208DF8070009E09DF81600B1
:102BF0004FF4A42100F034F800208DF80700FFE71F
:102C0000FFE79DF80700C007F8B1FFE79DF8160041
:102C10004FF41371414340F61C20C2F20000405CA7
:102C200090B9FFE7029840B1FFE79DF816000399BD
:102C30009DF8082007F03EFD05E09DF816000021F4
:102C400007F004FDFFE7FFE7FFE79DF8070000F04E
:102C500001008DF81700FFE79DF8170006B080BD52
:102C600082B08DF807000091BDF802009DF80710B2
:102C700040F61C23C2F200034FF4137211FB023121
:102C800081F836000098000A9DF8071011FB023108
:102C900081F8370000989DF8071011FB023181F888
:102CA000380002B07047000080B594B08DF84E0037
:102CB0001291119224228DF843204FF40040ADF878
:102CC00040004FF000700F904FF020300E9048F20F
:102CD0000000C0F600000D904CF69661C0F2002195
:102CE00004A80390FFF757FA039808304DF2B1613A
:102CF000C0F2002101910022029205F0E7FA019949
:102D0000029A0398103005F0E1FA039820304DF252
:102D10009921C0F20021042205F0D8FA9DF84E0056
:102D200040F61C22C2F200024FF4137110FB012086
:102D3000C06850B9FFE79DF84E004FF4A421FFF79B
:102D40008FFF00208DF84F0079E09DF84E0040F68F
:102D50001C22C2F200024FF4137110FB0120007D0F
:102D6000C00700283FD0FFE79DF84E0040F61C2228
:102D7000C2F200024FF4137110FB0120407D58B9DC
:102D8000FFE706208DF84300129800689DF8432065
:102D90000FA905F09BFA25E09DF84E0040F61C2295
:102DA000C2F200024FF4137110FB0120407D802815
:102DB0000BD1FFE708208DF84300129800689DF8BA
:102DC00043200DA905F082FA0BE09DF84E0042F277
:102DD0000041C0F20501FFF743FF00208DF84F00CE
:102DE0002DE0FFE723E09DF84E0040F61C22C2F2E2
:102DF00000024FF4137110FB0120C07D23280EDC6C
:102E0000FFE79DF84E0040F61C22C2F200024FF48C
:102E1000137110FB0120C07D8DF84300FFE712986D
:102E200000689DF8432004A905F050FAFFE79DF8DB
:102E300043001199086001208DF84F00FFE79DF8CD
:102E40004F0014B080BD000080B58CB08DF82E000E
:102E50000A9109921B208DF823009DF82E0040F660
:102E60001C22C2F200024FF4137110FB0120C06853
:102E700050B9FFE79DF82E004FF4A421FFF7F0FEB4
:102E800000208DF82F0033E09DF82E0040F61C2224
:102E9000C2F200024FF4137110FB0120C07E1A2809
:102EA0000EDCFFE79DF82E0040F61C22C2F2000265
:102EB0004FF4137110FB0120C07E8DF82300FFE753
:102EC0004CF6BA61C0F2002102A801901B22FFF764
:102ED00062F901990A9800689DF8232005F0F6F937
:102EE0009DF823000999086001208DF82F00FFE765
:102EF0009DF82F000CB080BD80B586B08DF816000F
:102F00000491039204208DF80B009DF8160040F602
:102F10001C22C2F200024FF4137110FB0120C068A2
:102F200050B9FFE79DF816004FF4A421FFF798FE73
:102F300000208DF817003FE09DF8160040F61C2297
:102F4000C2F200024FF4137110FB0120C07D032870
:102F50000EDCFFE79DF8160040F61C22C2F20002CC
:102F60004FF4137110FB0120C07D8DF80B00FFE7BB
:102F7000032001909DF8160040F61C22C2F20002C8
:102F80004FF4137110FB012090F83400C00720B1FA
:102F9000FFE780208DF80600FFE7049800689DF8A1
:102FA0000B2001A905F092F99DF80B000399086028
:102FB00001208DF81700FFE79DF8170006B080BDCF
:102FC00080B584B08DF80E00029101929DF80E003C
:102FD00040F61C22C2F200024FF4137110FB0120D4
:102FE000C06850B1FFE79DF80E004FF4A421FFF731
:102FF00037FE00208DF80F0017E09DF80E0040F618
:103000001C22C2F200024FF4137110FB0120C07D9C
:1030100008B9FFE700E0FFE7029900200860019986
:10302000086001208DF80F00FFE79DF80F0004B045
:1030300080BD000080B584B08DF80E009DF80E00B4
:1030400040F61C22C2F200024FF4137110FB012162
:10305000086C4A7C01EB8201496C41430020B0EBD3
:10306000512F12D1FFE79DF80E0040F61C22C2F24C
:1030700000024FF4137110FB0121086C4A7C01EB34
:103080008201496C4843019003E04FF400700190C5
:10309000FFE7019802909DF80E0040F61C22C2F254
:1030A00000024FF4137110FB0123597CDA6B4C338F
:1030B000DDF808C0EE46CEF800C007F09FFA60B118
:1030C000FFE79DF80E0041F20011C0F20401FFF786
:1030D000C7FD00208DF80F005DE002989DF80E30CE
:1030E00040F61C22C2F200024FF4137113FB0123BD
:1030F00093F811C003EB8C0CDCF844C0B0FBFCFC73
:10310000D86B6044D86302989DF80E3013FB0123FE
:1031100093F811C003EB8C0CDCF844C0B0FBFCFC52
:10312000186CA0EB0C001864DDF808C09DF80E00C8
:1031300010FB0123D86AA0EB0C00D8629DF80E00AA
:1031400010FB0120006C68B9FFE79DF80E004FF4FA
:10315000137100FB01F240F61C21C2F200010320B2
:103160008854FFE79DF80E0040F6B841C2F2000116
:1031700001EB0011097A40F61C23C2F200034FF460
:10318000137210FB02324C32029B06F0E3FA01206C
:103190008DF80F00FFE79DF80F0004B080BD000020
:1031A00080B586B08DF816000491002003909DF83C
:1031B000160040F61C22C2F200024FF4137110FBFD
:1031C0000123597CDA6B4C33DDF810C0EE46CEF8A3
:1031D00000C007F027FA60B1FFE79DF8160040F243
:1031E0000031C0F20401FFF73BFD00208DF817000D
:1031F00083E004989DF8163040F61C22C2F20002CB
:103200004FF4137113FB012393F811C003EB8C0CE3
:10321000DCF844C0B0FBFCFCD86B6044D863049875
:103220009DF8163013FB012393F811C003EB8C0CAF
:10323000DCF844C0B0FBFCFC186CA0EB0C0018647C
:10324000DDF810C09DF8160010FB0123D86AA0EB32
:103250000C00D8629DF8160010FB0120006C30B9FC
:10326000FFE79DF81600002107F0F0F941E09DF816
:10327000160040F61C22C2F200024FF4137110FB3C
:103280000121086C4A7C01EB8201496C414300201A
:10329000B0EB512F12D1FFE79DF8160040F61C222B
:1032A000C2F200024FF4137110FB0121086C4A7C3A
:1032B00001EB8201496C4843029003E04FF4007037
:1032C0000290FFE7029803909DF81600020140F675
:1032D000B841C2F20001895C40F61C23C2F200032F
:1032E0004FF4137210FB02324C32039B06F022F8AB
:1032F000FFE701208DF81700FFE79DF8170006B0E3
:1033000080BD000080B584B08DF80E00029101925E
:103310009DF80E0040F61C22C2F200024FF4137119
:1033200010FB0120007C000600280DD5FFE79DF86A
:103330000E0040F61C22C2F200024FF4137110FB83
:103340000120C06850B9FFE79DF80E004FF4A4219A
:10335000FFF786FC00208DF80F0081E09DF80E003D
:1033600040F61C22C2F200024FF4137110FB01233D
:10337000D3F8150000BAD8639DF80E0010FB0123A6
:10338000588B40BA18649DF80E0010FB0121C86BE1
:103390000A6C10444A7C01EB8201896C884220D976
:1033A000FFE79DF80E0042F20011C0F20501FFF7A1
:1033B00057FCFFE74DF28B20C0F2002009F0F2F835
:1033C0004DF2EC10C0F2002009F0ECF84DF29E2016
:1033D000C0F2002009F0E6F8FFE700208DF80F00AA
:1033E0003EE09DF80E0040F61C22C2F200024FF4AF
:1033F000137110FB0122D068116C537C02EB830225
:10340000526C5143884218D0FFE7FFE74DF28B2002
:10341000C0F2002009F0C6F84DF24020C0F20020B2
:1034200009F0C0F84DF29E20C0F2002009F0BAF871
:10343000FFE700208DF80F0012E09DF80E004FF41A
:10344000137100FB01F240F61C21C2F200010220C0
:1034500088549DF80E00FFF7EDFD8DF80F00FFE793
:103460009DF80F0004B080BD80B584B08DF80E00CB
:10347000029101929DF80E0040F61C22C2F2000259
:103480004FF4137110FB0120007C000600280DD5BD
:10349000FFE79DF80E0040F61C22C2F200024FF436
:1034A000137110FB0120C06850B9FFE79DF80E00B2
:1034B0004FF4A421FFF7D4FB00208DF80F0082E029
:1034C0009DF80E0040F61C22C2F200024FF4137168
:1034D00010FB0123D3F8150000BAD8639DF80E0045
:1034E00010FB0123D3F8190000BA18649DF80E00F0
:1034F00010FB0121C86B0A6C10444A7C01EB82016D
:10350000896C884220D9FFE79DF80E0042F2001135
:10351000C0F20501FFF7A4FBFFE74DF28B20C0F2DC
:10352000002009F03FF84DF2EC10C0F2002009F045
:1035300039F84DF29E20C0F2002009F033F8FFE781
:1035400000208DF80F003EE09DF80E0040F61C2292
:10355000C2F200024FF4137110FB0122D068116C0B
:10356000537C02EB8302526C5143884218D0FFE730
:10357000FFE74DF28B20C0F2002009F013F84DF266
:103580004020C0F2002009F00DF84DF29E20C0F25C
:10359000002009F007F8FFE700208DF80F0012E087
:1035A0009DF80E004FF4137100FB01F240F61C2150
:1035B000C2F20001022088549DF80E00FFF73AFD88
:1035C0008DF80F00FFE79DF80F0004B080BD0000EC
:1035D00080B588B08DF81E00069105929DF81E00FA
:1035E00040F61C22C2F200024FF4137110FB0120BE
:1035F000C06850B9FFE79DF81E004FF4A421FFF703
:103600002FFB00208DF81F006FE09DF81E0040F694
:103610001C22C2F2000200924FF41371019110FBC0
:103620000120437C00EB8300806C0138000E8DF894
:103630000C009DF81E0010FB0120437C00EB830072
:10364000806C0138000C8DF80D009DF81E0010FBF9
:103650000120437C00EB8300806C0138000A8DF868
:103660000E009DF81E0010FB0120437C00EB830040
:10367000806C01388DF80F009DF81E0010FB0120B2
:10368000437C00EB830090F847008DF810009DF814
:103690001E0010FB0120437C00EB8300B0F84600C5
:1036A0008DF811009DF81E0010FB0120437C00EBFB
:1036B0008300406C000A8DF812009DF81E0010FB7C
:1036C0000120417C00EB8100406C8DF813000698CE
:1036D000006803A90822029204F0F8FD02980599F7
:1036E000086001208DF81F00FFE79DF81F0008B05B
:1036F00080BD000080B588B08DF81E00069105924F
:103700009DF81E0040F61C22C2F200024FF4137115
:1037100010FB0120C06850B9FFE79DF81E004FF470
:10372000A421FFF79DFA00208DF81F0066E000201D
:103730008DF808008DF809008DF80A0008218DF831
:103740000B109DF81E3040F61C22C2F200024FF40E
:10375000137113FB012393F811C003EB8C0393F84F
:103760004B308DF80C309DF81E3013FB012393F87D
:1037700011C003EB8C03B3F84A308DF80D309DF87F
:103780001E3013FB012393F811C003EB8C039B6CD9
:103790001B0A8DF80E309DF81E3013FB012393F8A1
:1037A00011C003EB8C039B6C8DF80F3002238DF856
:1037B00010308DF811009DF81E0010FB0120437C95
:1037C00000EB8300406C000A8DF812009DF81E008B
:1037D00010FB0120417C00EB8100406C8DF8130050
:1037E0000698006802A90C22019204F06FFD01986E
:1037F0000599086001208DF81F00FFE79DF81F0064
:1038000008B080BD80B58AB08DF826000891079277
:1038100012208DF81B009DF8260040F61C22C2F2F3
:1038200000024FF4137110FB0120C06850B9FFE78C
:103830009DF826004FF4A421FFF712FA00208DF81E
:10384000270052E09DF8260040F61C22C2F200023A
:103850004FF4137110FB0120C07D11280EDCFFE72F
:103860009DF8260040F61C22C2F200024FF41371AC
:1038700010FB0120C07D8DF81B00FFE74CF6D561E1
:10388000C0F200210DF1090001901222FEF783FC25
:1038900001999DF8260040F61C23C2F200034FF464
:1038A000137210FB023090F836008DF80B009DF873
:1038B000260010FB023090F837008DF815009DF8B7
:1038C000260010FB023090F838008DF8160008989A
:1038D00000689DF81B2004F0F9FC9DF81B00079977
:1038E000086001208DF82700FFE79DF827000AB047
:1038F00080BD000080B584B08DF80E000291019269
:103900009DF80E0040F61C22C2F200024FF4137123
:1039100010FB0120C06850B1FFE79DF80E004FF486
:10392000A421FFF79DF900208DF80F004BE09DF8D2
:103930000E0040F61C22C2F200024FF4137110FB7D
:103940000120C07D00F00300012801D1FFE731E034
:103950009DF80E0040F61C22C2F200024FF41371D3
:1039600010FB0120C07D00F0030002280ED1FFE70C
:103970009DF80E0040F61C22C2F200024FF41371B3
:1039800010FB0121012081F8350012E09DF80E00A6
:1039900040F61C22C2F200024FF4137110FB01200A
:1039A000C07D00F00300032801D1FFE700E0FFE73E
:1039B000FFE7FFE7029900200860019908600120F5
:1039C0008DF80F00FFE79DF80F0004B080BD0000E8
:1039D00080B584B08DF80E00029101929DF80E0022
:1039E00040F61C22C2F200024FF4137110FB0120BA
:1039F000C06850B1FFE79DF80E004FF4A421FFF717
:103A00002FF900208DF80F0008E0029900200860CF
:103A10000199086001208DF80F00FFE79DF80F0065
:103A200004B080BD80B586B08DF816000491039275
:103A3000002002909DF8160040F61C22C2F20002FF
:103A40004FF4137110FB0120007C000600280DD4F8
:103A5000FFE79DF8160040F61C22C2F200024FF468
:103A6000137110FB0120C06850B9FFE79DF81600E4
:103A70004FF4A421FFF7F4F800208DF817008CE034
:103A80009DF8160040F61C22C2F200024FF413719A
:103A900010FB0123D3F8150000BAD8639DF8160077
:103AA00010FB0123588B40BA18649DF8160010FBD8
:103AB0000123186C93F811C003EB8C035B6C584323
:103AC00002909DF8160010FB0121C86B0A6C10448F
:103AD0004A7C01EB8201896C884218D9FFE7FFE735
:103AE0004DF28B20C0F2002008F05CFD4DF2EC108E
:103AF000C0F2002008F056FD4DF29E20C0F20020DA
:103B000008F050FDFFE700208DF8170045E09DF814
:103B1000160040F61C22C2F200024FF4137110FB93
:103B20000120C0680299884204D0FFE700208DF888
:103B3000170032E09DF816004FF4137100FB01F2FC
:103B400040F61C21C2F20001012088540299002095
:103B5000B0EB512F03D1FFE70298019003E04FF43F
:103B600000700190FFE7019802909DF81600020195
:103B700040F6B841C2F20001895C40F61C23C2F253
:103B800000034FF4137210FB02324C32029B05F01B
:103B9000D1FB01208DF81700FFE79DF8170006B054
:103BA00080BD000080B586B08DF8160004910392A8
:103BB000002002909DF8160040F61C22C2F200027E
:103BC0004FF4137110FB0120007C000600280DD477
:103BD000FFE79DF8160040F61C22C2F200024FF4E7
:103BE000137110FB0120C06850B9FFE79DF8160063
:103BF0004FF4A421FFF734F800208DF817008DE072
:103C00009DF8160040F61C22C2F200024FF4137118
:103C100010FB0123D3F8150000BAD8639DF81600F5
:103C200010FB0123D3F8190000BA18649DF81600A0
:103C300010FB0123186C93F811C003EB8C035B6C31
:103C4000584302909DF8160010FB0121C86B0A6CC6
:103C500010444A7C01EB8201896C884218D9FFE745
:103C6000FFE74DF28B20C0F2002008F09BFC4DF2E4
:103C7000EC10C0F2002008F095FC4DF29E20C0F23E
:103C8000002008F08FFCFFE700208DF8170045E0CA
:103C90009DF8160040F61C22C2F200024FF4137188
:103CA00010FB0120C0680299884204D0FFE7002081
:103CB0008DF8170032E09DF816004FF4137100FBE9
:103CC00001F240F61C21C2F2000101208854029941
:103CD0000020B0EB512F03D1FFE70298019003E0E1
:103CE0004FF400700190FFE7019802909DF81600D4
:103CF000020140F6B841C2F20001895C40F61C2383
:103D0000C2F200034FF4137210FB02324C32029BDA
:103D100005F010FB01208DF81700FFE79DF8170054
:103D200006B080BD80B582B08DF807008DF8061012
:103D30009DF8070000F0D8FA9DF8060000F028FA78
:103D400002B080BD80B582B001908DF803108DF86F
:103D500002209DF8030030B1FFE701980021012205
:103D600003F0CCFBFFE79DF803109DF802302820FC
:103D7000C4F20000012203F0FDFB9DF8030048B9E6
:103D8000FFE7019800F008F801980122114603F0BE
:103D9000B5FBFFE702B080BD81B000900099042020
:103DA000C8F20000886501B07047000080B582B09D
:103DB0008DF807009DF80700012100F025F802B0FA
:103DC00080BD000080B582B0019000208DF8030016
:103DD000FFE79DF80300182813DCFFE701989DF822
:103DE0000310C840C00728B1FFE79DF80300FFF7A4
:103DF000DDFFFFE7FFE79DF8030001308DF80300CA
:103E0000E7E702B080BD000080B586B08DF81700EE
:103E10008DF816109DF8170001460491182800F23D
:103E2000B3810499DFE811F019002A003B004C002F
:103E30005D006E007F009000A100B200CA00E300A8
:103E4000F4000D011E012F014001510162016B01BF
:103E500074017D0186019701A7019DF816100C20C1
:103E6000C4F20000152203F049FB9DF8161014203F
:103E7000C4F20000122203F041FB86E19DF8161007
:103E80000C20C4F20000162203F038FB9DF8161037
:103E90001420C4F20000122203F030FB75E19DF8FB
:103EA00016100C20C4F20000022203F027FB9DF83C
:103EB00016101420C4F20000002203F01FFB64E17E
:103EC0009DF816100C20C4F20000032203F016FB2C
:103ED0009DF816101420C4F20000012203F00EFB1E
:103EE00053E19DF816100C20C4F20000042203F0E8
:103EF00005FB9DF816101420C4F20000022203F006
:103F0000FDFA42E19DF816100C20C4F200000122D7
:103F100003F0F4FA9DF816101420C4F200001122E8
:103F200003F0ECFA31E19DF816100C20C4F2000009
:103F3000052203F0E3FA9DF816101420C4F20000E5
:103F40000A2203F0DBFA20E19DF816100C20C4F2DF
:103F50000000082203F0D2FA9DF816101420C4F2D3
:103F60000000092203F0CAFA0FE19DF816100C2098
:103F7000C4F20000092203F0C1FA9DF81610542083
:103F8000C4F200000C2203F0B9FAFEE09DF816100E
:103F90000C20C4F200000A2203F0B0FA9DF81610BB
:103FA0001420C4F200000390132203F0A7FA039830
:103FB0009DF81610142203F0A1FAE6E09DF8161001
:103FC0000C20C4F200000B22019203F097FA019A30
:103FD0009DF816101420C4F20000029003F08EFA2F
:103FE00002989DF81610102203F088FACDE09DF893
:103FF00016100C20C4F200000C2203F07FFA9DF88A
:1040000016100820C4F20000002203F077FABCE08A
:104010009DF816100820C4F200000C2203F06EFA7E
:104020009DF816100C20C4F200000D2203F066FA71
:104030009DF816101420C4F20000062203F05EFA68
:10404000A3E09DF816100C20C4F200000E2203F02D
:1040500055FA9DF816101420C4F20000072203F050
:104060004DFA92E09DF816100C20C4F200000F22C9
:1040700003F044FA9DF816101420C4F200000C223C
:1040800003F03CFA81E09DF816100C20C4F2000009
:10409000102203F033FA9DF816101420C4F2000029
:1040A000082203F02BFA70E09DF816100C20C4F2E1
:1040B0000000112203F022FA9DF816101420C4F219
:1040C0000000042203F01AFA5FE09DF816100C209D
:1040D000C4F20000122203F011FA9DF81610142009
:1040E000C4F20000052203F009FA4EE09DF8161014
:1040F0000C20C4F20000132203F000FA45E09DF802
:1041000016100C20C4F20000142203F0F7F93CE072
:104110009DF816100C20C4F20000002203F0EEF906
:1041200033E09DF816100C20C4F20000062203F0C4
:10413000E5F92AE09DF816100C20C4F200001722C1
:1041400003F0DCF99DF816101420C4F200000E22D2
:1041500003F0D4F919E09DF816108020C4F2000095
:104160000090052203F0CAF900989DF81610072266
:1041700003F0C4F909E09DF816100C20C4F2000009
:10418000192203F0BBF900E0FFE706B080BD000094
:1041900080B582B08DF807009DF8071041F200004D
:1041A000C4F214000022FFF7CDFD02B080BD000074
:1041B00080B582B00420C4F20000006840040028EA
:1041C0000DD5FFE700F012F800900021084602F03C
:1041D000E7FA01460098B0FBF1F0019003E000F02F
:1041E00031F80190FFE7019802B080BD80B584B03E
:1041F00040F2A810C4F210000068C00200281AD5CE
:10420000FFE74021C4F2000101910868C0F34500B6
:104210000968C1F3C5314843029000F013F80199D1
:104220000968C1F3C711A0FB0101029A0023FDF741
:1042300081FF039002E000200390FFE7039804B0A1
:1042400080BD000083B042F21000C4F2100000688C
:10425000C0F300208DF807009DF8070030B1FFE79C
:1042600043F20060C0F26E10029039E040F27C1020
:10427000C4F210000068C0F30430014600910F281A
:1042800028D80099DFE801F0080E26142626261A01
:10429000262626262626262041F20020C0F27A0075
:1042A00002901DE042F20040C0F2F400029017E0DC
:1042B00043F20060C0F26E10029011E044F600007C
:1042C000C0F2E81002900BE046F60040C0F2DC209D
:1042D000029005E049F20000C0F2D0300290FFE702
:1042E000029803B07047000080B582B08DF80700D7
:1042F0009DF807100020C4F214000122FFF722FDF0
:1043000002B080BD80B584B0ADF80E00BDF80E10CF
:104310008020C4F20000019004220292002303F0E6
:1043200029F90198029A012103F0E8F804B080BD50
:1043300080B582B08DF80700ADF80410BDF8040018
:1043400000F001019DF807001422002808BF132285
:104350000420C4F2000003F0D1F802B080BD0000D8
:1043600081B08DF803008DF802109DF8030060B154
:10437000FFE79DF802100120884040F0710040F2F4
:104380007411C4F21001086006E040F27411C4F226
:10439000100100200860FFE701B0704780B572B6D9
:1043A00040F20010C4F2100000684008C00798B145
:1043B000FFE742F20C01C4F21001086840F004006B
:1043C000086042F21401C4F2100142F60720CEF652
:1043D0009520086000F06EFC02F0C8F94EF6085116
:1043E000CEF2000142F20000C0F20020086062B686
:1043F00080BD000082B001908DF803109DF803008D
:104400000199086002B0704780B58EB08DF8370012
:104410009DF8370001F0B2F90C909DF8371040F686
:104420006840C2F2000000EBC10040684069C0076C
:10443000002840F02484FFE70C9810B9FFE700F053
:104440001EBC9DF83000C006002873D5FFE79DF81C
:10445000371040F66840C2F2000000EBC1014A6824
:10446000916921F0100191619DF8371000EBC100B6
:104470004068006A0B900B9800F00F000A900B98B0
:1044800000F4F0110220B0EB514F29D1FFE70B9857
:10449000C0F30A100790079808B3FFE79DF83700AC
:1044A00040F20071C2F20001059101EB00210A9A6D
:1044B00001EB0211D1F88C10BDF81C2001F020F89E
:1044C0000598079A9DF8371000EB01200A9900EB38
:1044D0000111D1F88C001044C1F88C00FFE71BE0FB
:1044E0000B9800F4F0110620B0EB514F12D1FFE70A
:1044F0000B98C0F30A1007909DF8370040F2007146
:10450000C2F2000101EB00212031BDF81C2000F0B7
:10451000F7FF00E0FFE7FFE79DF8371040F668403F
:10452000C2F2000000EBC1004168886940F0100051
:104530008861FFE79DF832000007002840F1D48031
:10454000FFE700200A909DF8370001F0C1F90990BB
:10455000FFE70998002800F0C680FFE79DF82400D7
:10456000C007002800F0B880FFE79DF837009DF8ED
:10457000281001F07FF908909DF82000C00700285E
:1045800000F09780FFE70A98002856D1FFE79DF8D2
:10459000371040F20070C2F2000000EB01200A99CF
:1045A00000EB0110D0F8900060B9FFE79DF83700EC
:1045B00040F20071C2F2000101EB0021203100F055
:1045C0006BFF39E09DF837C040F20072C2F2000282
:1045D00002EB0C200A9B00EB0310D0F8900040F691
:1045E0006841C2F2000101EBCC01496801EB4311C3
:1045F000D1F8101B6FF3DF41401A9DF8371002EB22
:1046000001210A9B01EB0311C1F894009DF83700CA
:1046100002EB00200A9900EB01100021C0F8901075
:104620009DF8370002EB00220A9B02EB0312D2F83E
:10463000942005F045FCFFE73AE09DF837C040F2D2
:104640000072C2F2000202EB0C200A9B00EB031086
:10465000D0F8900040F66841C2F2000101EBCC01B5
:10466000496801EB4311D1F8101B6FF3DF41401A89
:104670009DF8371002EB01210A9B01EB0311C1F8F1
:1046800094009DF8370002EB00200A9900EB01111D
:104690000020C1F890009DF837000A9902EB002233
:1046A00002EB0112D2F89420C9B205F009FCFFE731
:1046B000FFE79DF82000000700280CD5FFE79DF8D4
:1046C000370040F20071C2F2000101EB00212031FD
:1046D00005F0A4FBFFE7FFE70998400809900A9856
:1046E00001300A9035E7FFE79DF8320040070028C7
:1046F00040F1E980FFE700200A909DF8370001F0C3
:104700009BF80990FFE70998002800F0DB80FFE79D
:104710009DF82400C007002800F0CD80FFE79DF839
:1047200037009DF8281001F043F808909DF820000C
:10473000C007002800F0B180FFE70A98002872D176
:10474000FFE79DF837C040F20071C2F2000104910A
:1047500001EB0C200A9B00EB0310006B40F6684253
:10476000C2F2000202EBCC02526802EB4312D2F812
:1047700010296FF3DF42801A9DF8372001EB0222E7
:104780000A9B02EB031250639DF8370001EB0020F7
:104790000A9A00EB0212002010639DF8370001EB2B
:1047A00000210A9A01EB02114A6B802105F052FBAD
:1047B00004989DF8371000EB0120C08CD0B1FFE7C2
:1047C0009DF8371040F20070C2F2000000EB0120AB
:1047D00090F82000000600280CD4FFE79DF8370071
:1047E00040F20071C2F2000101EB0021203100F023
:1047F00053FE17E09DF8371040F20070C2F200003F
:1048000000EB0120C08C60B9FFE79DF8370040F253
:104810000071C2F2000101EB0021203100F03CFEEA
:10482000FFE7FFE738E09DF837C040F20072C2F2C0
:10483000000202EB0C200A9B00EB0310006B40F619
:104840006841C2F2000101EBCC01496801EB431160
:10485000D1F810196FF3DF41401A9DF8371002EBC1
:1048600001210A9B01EB031148639DF8370002EB1D
:1048700000200A9900EB0111002008639DF8370021
:104880000A9B43F0800102EB002202EB0312526B01
:10489000C9B205F0DFFAFFE7FFE79DF82000000648
:1048A000002807D5FFE79DF837009DF8281001F094
:1048B00095FAFFE7FFE70998400809900A98013048
:1048C0000A9020E7FFE79DF83100C006002840F17C
:1048D0002A81FFE79DF8371040F66840C2F20000D9
:1048E00000EBC1014A684FF4805151619DF83710C7
:1048F00000EBC1004168D1F8040820F00100C1F8C4
:1049000004089DF83700102100F0B2FE9DF8370032
:1049100000F058FE00208DF81B00FFE79DF81B00FB
:10492000052800F3C780FFE79DF81B00E8B9FFE703
:104930009DF8370040F66841C2F2000101EBC0006B
:1049400040689DF81B2000EB42124FF00060C2F857
:1049500000099DF8372001EBC20149689DF81B2032
:1049600001EB4211C1F8000B6AE09DF8371040F6E8
:104970006840C2F2000000EBC10040689DF81B10C7
:1049800000EB4110D0F80009C00F90B1FFE79DF88F
:10499000371040F66840C2F2000000EBC1004068EA
:1049A0009DF81B1000EB41114FF09040C1F8000939
:1049B00010E09DF8371040F66840C2F2000000EBAE
:1049C000C10040689DF81B1000EB41110020C1F8A8
:1049D0000009FFE79DF8371040F66840C2F200007A
:1049E00000EBC10040689DF81B1000EB4110D0F8AF
:1049F000000BC00F90B1FFE79DF8371040F66840FC
:104A0000C2F2000000EBC10040689DF81B1000EBF3
:104A100041114FF09040C1F8000B10E09DF83710A5
:104A200040F66840C2F2000000EBC10040689DF80B
:104A30001B1000EB41110020C1F8000BFFE7FFE75E
:104A40009DF8370040F66841C2F2000101EBC0005A
:104A500040689DF81B2000EB42100022C0F810298E
:104A60009DF8370001EBC00040689DF81B3000EB5B
:104A700043134FF6FF30C3F808099DF8373001EBB8
:104A8000C3035B689DF81BC003EB4C13C3F8102BEA
:104A90009DF8372001EBC20149689DF81B2001EB0E
:104AA0004211C1F8080BFFE79DF81B0001308DF89B
:104AB0001B0033E79DF8371040F66840C2F2000053
:104AC00000EBC1014A68D2F81C1841F00111C2F88C
:104AD0001C189DF8371000EBC1014A680921C2F883
:104AE00014189DF8371000EBC10041680120C1F88F
:104AF00010089DF8371040F20070C2F200000390D9
:104B000000EB01204FF48071FDF75EFB9DF837004C
:104B100005F02CFA03999DF8370001EB00212031B4
:104B200000F0BAFCFFE79DF83100800600282AD586
:104B3000FFE79DF8371040F66840C2F2000002908F
:104B400000EBC10041684FF4005048619DF8370008
:104B5000019040F24001C2F200010968009100F0AA
:104B6000DFFD00990246019800F0D4FF02989DF8FD
:104B7000371000EBC1004168D1F8040840F48070A0
:104B8000C1F80408FFE79DF83200800600280DD523
:104B9000FFE79DF8371040F66840C2F2000000EBD6
:104BA000C10041684FF400104861FFE79DF83200F2
:104BB000C00600280DD5FFE79DF8371040F6684085
:104BC000C2F2000000EBC10041684FF48010486160
:104BD000FFE79DF831000007002811D5FFE79DF899
:104BE000371040F66840C2F2000000EBC100416897
:104BF0004FF4006048619DF8370005F029FAFFE79F
:104C00009DF833000006002811D5FFE79DF8371006
:104C100040F66840C2F2000000EBC10041684FF06E
:104C2000004048619DF8370005F0F6F9FFE79DF870
:104C300030004007002821D5FFE79DF8371040F6E7
:104C40006840C2F2000000EBC100406840680B9071
:104C50009DF82C004007002801D5FFE700E0FFE7A2
:104C60000B9A9DF8371040F66840C2F2000000EB46
:104C7000C1004168486810434860FFE7FFE70EB095
:104C800080BD000081B08DF803009DF9030000286D
:104C90000ED4FFE79DF9031001F01F0201209040A0
:104CA0004A094EF20011CEF2000141F82200FFE75E
:104CB00001B07047BFF34F8F4EF60C51CEF200019A
:104CC000086800F4E0600422C0F2FA521043086061
:104CD000BFF34F8FFFE700BFFDE7000080B586B050
:104CE0008DF8170004910498C088B0F5807F21DD0D
:104CF000FFE704980078000600281AD4FFE7FFE7D2
:104D00004DF21B60C0F2002007F04CFC4DF25B50EE
:104D1000C0F2002007F046FC4DF29E20C0F20020B9
:104D200007F040FCFFE79DF81700802104F072FABD
:104D30004CE1FFE79DF8170040F60002C2F20002C6
:104D40004FF4077110FB012303F12C0098600498C5
:104D5000C0889DF8173013FB0123D8600498C088E1
:104D60009DF8173013FB012318619DF8170010FB05
:104D70000123002018759DF8170010FB01208068A2
:104D800003900498C088F0B1FFE70498007800060B
:104D9000002818D4FFE79DF8170040F60002C2F281
:104DA00000024FF4077110FB0123022083F82E014B
:104DB0009DF8170010FB01218A680499CB88002117
:104DC00004F0B8FA02E19DF81700049940F60003D8
:104DD000C2F200034FF4077210FB023202F110031B
:104DE00003AA05F07FFE98B9FFE79DF8170040F68B
:104DF0000002C2F200024FF4077110FB01210020F3
:104E000081F82E019DF81700802104F003FADDE0FF
:104E10009DF8170040F60002C2F200024FF407713D
:104E200010FB012000690499C98888420DD2FFE770
:104E30009DF8170040F60002C2F200024FF407711D
:104E400010FB01200069029003E00498C0880290E2
:104E5000FFE702989DF8173040F60002C2F2000208
:104E60004FF4077113FB0123D8609DF8170010FB66
:104E70000120C068B0F5807F27D9FFE7FFE74DF23A
:104E80001B60C0F2002007F08DFB4DF25B50C0F2BA
:104E9000002007F087FB4DF29E20C0F2002007F0B3
:104EA00081FBFFE79DF8170040F60002C2F2000206
:104EB0004FF4077110FB0121002081F82E019DF8AD
:104EC0001700802104F0A6F980E003989DF81710E0
:104ED00040F60003C2F200034FF4077211FB0231E7
:104EE0008968884210D0FFE79DF8170040F600025D
:104EF000C2F200024FF4077110FB0122039990687F
:104F0000D26803F0DFFA00E0FFE79DF8170040F6F3
:104F10000002C2F200024FF4077110FB0120C068CA
:104F200070B1FFE79DF8170040F60002C2F20002E0
:104F30004FF4077110FB0121012081F82E010DE0D3
:104F40009DF8170040F60002C2F200024FF407710C
:104F500010FB0121032081F82E01FFE79DF81700C7
:104F600040F60002C2F2000200924FF40771019174
:104F700010FB01218A68CB68802104F0EBFB009BC9
:104F8000019A0498C0889DF8171011FB0231096935
:104F900088421BD9FFE79DF8170040F60002C2F2D5
:104FA00000024FF4077110FB0120007C800668B9F5
:104FB000FFE79DF8170040F60002C2F200024FF42E
:104FC000077110FB012101200875FFE706B080BDC5
:104FD00080B502F021FC41F2E110C2F2000000783D
:104FE00001280FD1FFE741F2E010C2F20000007883
:104FF000022807D1FFE741F2E111C2F200010220CD
:105000000870FFE702F00AFC80BD000087B0059041
:10501000049103920498C0000399B0FBF1F0029050
:105020000298C009019001990298A0EBC11002906A
:105030000298013040080090019805994862BDF837
:10504000060018B9FFE7019820B9FFE74FF0FF30DD
:10505000069018E001984FF6FF71884204D1FFE7EF
:1050600005990020886207E001990298401A029091
:10507000009805998862FFE70598C06A0599C8629B
:1050800000200690FFE7069807B0704781B00090B7
:1050900000988069C0F3401001B0704780B584B0BB
:1050A00002900191009202990020086302994864DD
:1050B000029988630299486002994862029988625D
:1050C0000299C8620298019AD1681269FFF79EFF9F
:1050D00020B1FFE74FF0FF30039031E0019890F8E6
:1050E00000C041788378C278802000EA411040EA0D
:1050F0004C1040EA031040EAC20001F0030140EA0C
:1051000041000299C8620198B0F8090040BA0299BA
:1051100048630098029988630199087991F805C05D
:105120008B79CA79400240EA0C20184440EAC23028
:10513000097A40EA81300299086300200390FFE772
:10514000039804B080BD000084B0039002910298DF
:1051500020F00100019000209DF80C1049070090FC
:1051600051BBFFE703990020B1F1005F009023D30A
:10517000FFE70399002048F20002C2F200029142C8
:10518000009019D8FFE700209DF80810C90700908B
:1051900091B1FFE7019900204FF20002C0F2002216
:1051A0009142009008D3FFE701990020B1F1087FF8
:1051B00038BF01200090FFE7009800F0010004B024
:1051C0007047000070470000B0B54CF6E86CC0F2C4
:1051D000002CDCF80000DCF80420DCF80830DCF8F7
:1051E0000CE0DCF81040DCF8145040F2C061C2F270
:1051F00000014D610C61C1F80CE08B604A600860F1
:10520000DCF81800DCF81C20DCF82030DCF824C0C6
:10521000C1F824C00B62CA61886106F073FE46F2D1
:105220006110C0F2002006F063FE06F07FFB01462D
:1052300040F25800C2F20000016040F25001C2F298
:1052400000014FF400720A6040F24C03C2F2000306
:1052500001221A6000680968B0FBF1F040F24801D1
:10526000C2F20001086040F24401C2F2000140F6BF
:10527000E070C2F200000860B0BD000080B582B0EE
:1052800001900091FFE741F20000C4F20100FFF736
:10529000FDFE012801D1FFE7F5E70198017841F211
:1052A0000000C4F20100FFF7A5F8002002B080BDA5
:1052B00041F2E010C2F20000007841F2E111C2F2C6
:1052C00000010978401A18BF0120704780B582B0EC
:1052D000019001F0E3F88DF803004DF23A60C0F25E
:1052E000002007F05FF99DF8030002B080BD0000C8
:1052F00080B582B001904DF22F60C0F2002007F01F
:1053000051F901F0CBF88DF803009DF8030002B0CD
:1053100080BD000082B0019040F26800C2F200003F
:10532000006840F6C841C2F20001B1F80B20B0FBA2
:10533000F2F00090009A01980238497B00FB0120AE
:1053400002B0704780B588B00790069103208DF8B1
:10535000040000228DF8052001208DF806008DF84C
:1053600007208DF808008DF809008DF80A008DF8E7
:105370000B208DF80C208DF80D008DF80E0007988D
:1053800004900698059041F20000C4F2010001A9C2
:10539000FFF784FE08B080BD82B08DF807009DF84D
:1053A0000700C006002806D5FFE79DF8070000F0BB
:1053B0000F00009006E09DF8070000F00F00093094
:1053C0000090FFE70098C0B202B0704780B582B08D
:1053D000019000910198009900231A4601F098F875
:1053E000002818BF012002B080BD000084B00390E7
:1053F000029102990020092901902ED3FFE703981A
:10540000017800203A29019027D1FFE70398017A1B
:105410000120302900901DD0FFE70398017A012078
:105420003229009016D0FFE70398017A0120332932
:1054300000900FD0FFE70398017A012034290090F3
:1054400008D0FFE70398007A3538B0FA80F04009B9
:105450000090FFE700980190FFE7019800F001003D
:1054600004B0704780B582B08DF807009DF8071032
:1054700040F66840C2F2000000EBC1004168C86815
:1054800040F04000C8609DF8070000F03FFA00902F
:10549000009802B080BD000082B08DF80700009136
:1054A0009DF8071040F66840C2F2000000EBC10111
:1054B0004A680021C2F8101B9DF8071000EBC101DB
:1054C0004A68D2F8101B41F40021C2F8101B9DF865
:1054D000071000EBC1014A68D2F8101B41F0180117
:1054E000C2F8101B9DF8071000EBC1004168D1F80D
:1054F000100B40F0C040C1F8100B02B07047000024
:1055000086B08DF817000491ADF80E200498029033
:10551000BDF80E0003308008009000200190FFE7E6
:1055200001980099884216D2FFE79DF8171040F6BF
:105530006840C2F2000000EBC10040684FF48051A7
:10554000405802990860029804300290FFE70198E1
:1055500001300190E4E706B07047000086B08DF896
:1055600017008DF816100492ADF80E3004980290D2
:10557000BDF80E0003308008019000200090FFE786
:105580000098019988421AD2FFE7029800689DF8B6
:10559000172040F66841C2F2000101EBC2014968E0
:1055A0009DF8162001EB02314FF48052885002988A
:1055B00004300290FFE7009801300090E0E706B069
:1055C0007047000083B08DF8070000200090FFE7CF
:1055D00000980130009040F64151C0F2030188422A
:1055E00004D3FFE74FF0FF3002903DE0FFE79DF866
:1055F000071040F66840C2F2000000EBC1004068AE
:105600000069C00F0028E3D0FFE7002000909DF85C
:10561000071040F66840C2F2000000EBC10041688C
:1056200010200861FFE700980130009040F64151DA
:10563000C0F20301884204D3FFE74FF0FF3002902D
:1056400012E0FFE79DF8071040F66840C2F2000044
:1056500000EBC1004068006900F010001028E2D0A3
:10566000FFE700200290FFE7029803B070470000B8
:1056700084B08DF80B00019100200090FFE70098A6
:105680000130009040F64151C0F20301884204D33A
:10569000FFE74FF0FF3003903FE0FFE79DF80B106E
:1056A00040F66840C2F2000000EBC10040680069AB
:1056B000C00F0028E3D0FFE7002000900198800190
:1056C00020309DF80B2040F66841C2F2000101EB4A
:1056D000C20149680861FFE700980130009040F678
:1056E0004151C0F20301884204D3FFE74FF0FF307D
:1056F000039012E0FFE79DF80B1040F66840C2F2FD
:10570000000000EBC1004068006900F02000202884
:10571000E2D0FFE700200390FFE7039804B0704752
:1057200082B08DF807009DF8071040F66840C2F27D
:10573000000000EBC1004068D0F8080800F0060047
:105740000090009820B9FFE700208DF8060010E0D7
:105750000098022804D0FFE70098062804D1FFE74C
:1057600003208DF8060003E00F208DF80600FFE708
:10577000FFE79DF8060002B07047000082B08DF888
:1057800007009DF8071040F66840C2F2000000EBE9
:10579000C1014968496900919DF8071000EBC100FB
:1057A00040688169009808400090009802B07047F6
:1057B00084B08DF80F008DF80E109DF80F0040F6A4
:1057C0006841C2F2000101EBC0004068D0F8100847
:1057D00001909DF80F0001EBC0004068D0F834083C
:1057E000009000989DF80E2002F00F02D04000F0CB
:1057F0000102019840EAC21001909DF80F0001EBF0
:10580000C00040689DF80E2000EB4210D0F8080957
:10581000029002989DF80F2001EBC20149689DF8A3
:105820000E2001EB4211C1F80809029801990840C5
:105830000290029804B0704782B08DF807009DF87E
:10584000071040F66840C2F2000000EBC101496851
:10585000D1F8181800919DF8071000EBC1004068BE
:10586000D0F81C18009808400090BDF8000002B065
:105870007047000082B08DF807008DF806109DF883
:10588000070040F66841C2F2000101EBC000406829
:105890009DF8062000EB4210D0F8080B009000980D
:1058A0009DF8072001EBC20252689DF8063002EB1A
:1058B0004312C2F8080B00989DF8072001EBC201C3
:1058C0004968D1F8141808400090009802B0704759
:1058D00082B08DF807009DF8071040F66840C2F2CC
:1058E000000000EBC1014968D1F8181800919DF83B
:1058F000071000EBC1004068D0F81C180098084061
:105900000090BDF8020002B07047000080B584B07E
:105910008DF80B0000200190FFE701980130019005
:1059200040F64151C0F20301884204D3FFE74FF033
:10593000FF300390ACE0FFE79DF80B1040F66840A5
:10594000C2F2000000EBC10040680069C00F0028EF
:10595000E3D0FFE7002001909DF80B1040F668406F
:10596000C2F2000000EBC1004168086940F001008C
:1059700008619DF80B00010240F20070C2F20000C5
:10598000405844F20921C4F65471884234D8FFE7E4
:10599000FFE701980130019040F64151C0F2030148
:1059A000884218D3FFE7FFE74DF28B20C0F20020BA
:1059B00006F0F8FD4DF27730C0F2002006F0F2FD5F
:1059C0004DF29E20C0F2002006F0ECFDFFE74FF004
:1059D000FF3003905CE0FFE79DF80B1040F6684055
:1059E000C2F2000000EBC1004068006900F0010055
:1059F0000128CED0FFE748E0FFE701980130019091
:105A000040F64151C0F20301884218D3FFE7FFE797
:105A10004DF28B20C0F2002006F0C4FD4DF277302D
:105A2000C0F2002006F0BEFD4DF29E20C0F2002024
:105A300006F0B8FDFFE74FF0FF30039028E0FFE7E6
:105A40009DF80B1040F66840C2F2000000EBC10068
:105A50004068006980000028CFD5FFE79DF80B1053
:105A600040F66840C2F2000000EBC1014A681169CB
:105A700021F0010111619DF80B1000EBC10041689C
:105A8000086940F000500861FFE700200390FFE73D
:105A9000039804B080BD000080B582B08DF8070087
:105AA0008DF806109DF8071040F66840C2F200001D
:105AB00000EBC1004168C86820F0C040C8609DF894
:105AC000060001280ED1FFE79DF8071040F6684058
:105AD000C2F2000000EBC1004168C86840F000500D
:105AE000C86012E09DF8060070B9FFE79DF8071046
:105AF00040F66840C2F2000000EBC1004168C8688F
:105B000040F08040C860FFE7FFE7322002F0A0FFCE
:105B100002B080BD84B08DF80F0002918DF807208F
:105B20009DF80700032840F0B880FFE702984AF686
:105B3000C041C0F2D80188420BD3FFE702984EF271
:105B4000BF11C0F2E401884203D8FFE70F200090A4
:105B5000A2E002984EF2C011C0F2E40188420BD3D9
:105B6000FFE7029842F2FF31C0F2F401884203D805
:105B7000FFE70E2000908EE0029842F20041C0F252
:105B8000F40188420BD3FFE7029847F27F31C0F25D
:105B90000611884203D8FFE70D2000907AE00298B2
:105BA00047F28031C0F2061188420BD3FFE702981A
:105BB00044F69F11C0F21A11884203D8FFE70C2067
:105BC000009066E0029844F6A011C0F21A118842D3
:105BD0000BD3FFE7029842F6FF41C0F23111884231
:105BE00003D8FFE70B20009052E0029842F60051E4
:105BF000C0F2311188420BD3FFE702984AF23F41CD
:105C0000C0F24C11884203D8FFE70A2000903EE022
:105C100002984AF24041C0F24C1188420BD3FFE790
:105C2000029843F2FF51C0F26E11884203D8FFE799
:105C3000092000902AE0029843F20061C0F26E1140
:105C400088420BD3FFE702984AF61F31C0F2A61133
:105C5000884203D8FFE70820009016E002984AF631
:105C60002031C0F2A61188420BD3FFE7029844F21C
:105C7000FF71C0F2E811884203D8FFE707200090C7
:105C800002E006200090FFE7FFE7FFE7FFE7FFE7FE
:105C9000FFE7FFE7FFE7FFE70AE09DF8070018B915
:105CA000FFE70920009002E009200090FFE7FFE7EE
:105CB0009DF80F1040F66840C2F2000000EBC101F1
:105CC0004A68D16841F00701D1609DF80F1000EBE0
:105CD000C1014A68D16821F47051D160009901F086
:105CE0000F029DF80F1000EBC1004168C86840EA40
:105CF0008220C86004B0704783B08DF80B008DF827
:105D00000A10ADF808209DF80B1040F66840C2F26A
:105D1000000000EBC1004068406A00909DF80A0056
:105D200080B9FFE7BDF80810009840EA01409DF8EF
:105D30000B2040F66841C2F2000101EBC201496844
:105D4000886248E09DF80B1040F66840C2F20000FF
:105D500000EBC1004068816A009800EB11400090A0
:105D600000208DF80700FFE79DF807009DF80A1056
:105D7000013988421AD2FFE79DF80B1040F66840BF
:105D8000C2F2000000EBC10040689DF8071000EB74
:105D90008100D0F80411009800EB11400090FFE75B
:105DA0009DF8070001308DF80700DDE7BDF8081009
:105DB000009840EA01409DF80B2040F66841C2F28D
:105DC000000101EBC20149689DF80A2001EB820144
:105DD000C1F80001FFE703B07047000080B586B04E
:105DE0008DF817008DF816109DF8170040F200711D
:105DF000C2F2000101EB00209DF8162000EB021218
:105E0000106B526B801A049004989DF8172001EBD8
:105E100002219DF8162001EB0211098D88420FD94D
:105E2000FFE79DF8171040F20070C2F2000000EB8F
:105E300001209DF8161000EB0110008D0490FFE783
:105E40000498033080080390FFE79DF8171040F690
:105E50006840C2F2000000EBC10040689DF81610D7
:105E600000EB4110D0F8180981B2039A002091424A
:105E7000019025D3FFE79DF8171040F20070C2F2A1
:105E8000000000EB01209DF8161000EB0110026BE2
:105E9000416B00209142019012D2FFE79DF817104C
:105EA00040F20070C2F2000000EB01209DF81610D5
:105EB00000EB0110006B002818BF01200190FFE7E4
:105EC0000198C007002800F0E280FFE79DF8170066
:105ED00040F20071C2F2000101EB00209DF8162093
:105EE00000EB0212106B526B801A049004989DF81C
:105EF000172001EB02219DF8162001EB0211098DFC
:105F000088420FD9FFE79DF8171040F20070C2F2E7
:105F1000000000EB01209DF8161000EB0110008D31
:105F20000490FFE79DF8171040F20070C2F20000E5
:105F300000EB01209DF8161000EB011090F82A00EC
:105F4000012878D1FFE79DF8171040F66840C2F2AB
:105F5000000000EBC1004068D0F80808C005002828
:105F600023D4FFE79DF8171040F66840C2F2000006
:105F700000EBC10149689DF8162001EB4212D2F8EE
:105F8000001921F08051C2F800199DF8171000EB9C
:105F9000C10040689DF8161000EB4111D1F80009CE
:105FA00040F00050C1F8000922E09DF8171040F6BB
:105FB0006840C2F2000000EBC10149689DF816205C
:105FC00001EB4212D2F8001921F00051C2F8001979
:105FD0009DF8171000EBC10040689DF8161000EB0B
:105FE0004111D1F8000940F08050C1F80009FFE7E5
:105FF0009DF8171040F66840C2F2000000EBC101A6
:1060000049689DF8162001EB4212D2F8101921F0D0
:10601000C041C2F810199DF8171000EBC10040688C
:106020009DF8161000EB4111D1F8100940F0005016
:10603000C1F81009FFE79DF817009DF8161040F20F
:106040000072C2F20002009202EB002202EB011287
:10605000D26ABDF81030FFF781FA0098049B9DF8D2
:10606000171000EB01219DF8162001EB0212D16AF6
:106070001944D162049A9DF8171000EB01209DF895
:10608000161000EB0111486B10444863DDE69DF8E3
:10609000171040F20070C2F2000000EB01209DF8E2
:1060A000161000EB0111086B496B884217D8FFE707
:1060B0009DF8160000F00F01012088400290029A1E
:1060C0009DF8171040F66840C2F2000000EBC100D6
:1060D0004168D1F834089043C1F83408FFE706B0AE
:1060E00080BD000082B00190009100980199087075
:1060F0000098000A01994870BDF802000199887063
:106100009DF803000199C87002B0704782B00190F9
:1061100000910098019908700098000A0199487050
:10612000BDF80200019988709DF803000199C870BC
:1061300002B0704780B582B001904FF0FF30009000
:1061400001986946042201F0A5F802B080BD000064
:1061500084B003908DF80B100192009304B0704747
:1061600080B58AB009908DF823100792069309989C
:106170009DF82310079A069B05F0E2FE40F2C060EE
:10618000C2F2000090F82000032801D1FFE75DE093
:106190009DF8230002281FD1FFE7079840F2C06155
:1061A000C2F200010968884215D1FFE7069805F0A0
:1061B0009DFB0490069805F0A1FB0390099801F05F
:1061C000ABFA8DF8170007980399049A9DF81730D9
:1061D00001F02EFCFFE7FFE79DF8230020BBFFE75F
:1061E000099801F099FA03281DD0FFE7069805F0F9
:1061F00075FB8007002815D4FFE7099801F08CFA99
:106200008DF80B00069805F071FB0190069805F0DB
:1062100075FB009007980099019A9DF80B3001F0EA
:1062200007FCFFE7FFE7FFE79DF8230001280DD1FA
:10623000FFE7079840F2C061C2F200010968884296
:1062400003D1FFE701F0EEFAFFE7FFE70AB080BDF8
:1062500080B586B005900491039240F2C060C2F20E
:10626000000090F82200C00798B9FFE7049803994E
:10627000490201F01FFA8DF80B009DF80B0003286E
:1062800006D0FFE79DF80B00059901F067FBFFE7DB
:10629000FFE740F2C060C2F2000090F82200C007A1
:1062A000002865D0FFE7059840F2C061C2F2000106
:1062B0004968884201D2FFE75AE0059840F2C06180
:1062C000C2F20001C968884234D0FFE7059840F265
:1062D000C061C2F20001C968884229D2FFE740F2DA
:1062E000C060C2F200000069013038B9FFE70598CC
:1062F00040F2C061C2F200010861FFE740F2C060F5
:10630000C2F2000000690599884207D2FFE740F217
:10631000C060C2F200000069009002E005980090A1
:10632000FFE7009840F2C061C2F20001086100E09E
:10633000FFE71DE0039840020190019A40F2C0601F
:10634000C2F20000C1691144C1610599039A114468
:10635000C16090F82300C00720B1FFE7002001F0E2
:1063600001FC05E005980499019A01F0A1FAFFE704
:1063700006B080BD86B08DF8160045F65B40C7F6C6
:106380005D40049043F63C50C3F63E70039042F6E5
:106390002E70C3F63A30029042F62220C2F62B400D
:1063A00001909DF81600612809DBFFE79DF81600B3
:1063B0007A2804DCFFE700208DF8170029E09DF81B
:1063C00016001F2809DCFFE79DF81600052804D0F9
:1063D000FFE700208DF817001BE000200090FFE78A
:1063E00000980F2811D8FFE7009901A8405C9DF89C
:1063F0001610884204D1FFE700208DF8170008E04E
:10640000FFE7009801300090EAE701208DF81700BF
:10641000FFE79DF8170006B07047000080B584B014
:10642000029020208DF80600E520ADF80400002041
:106430000090FFE70098022811D8FFE7009901A813
:10644000405C02990978884204D1FFE700208DF86A
:106450000F001FE0FFE7009801300090EAE70020FE
:106460000090FFE700980A2810D8FFE702980099EB
:10647000405CFFF77FFF20B9FFE700208DF80F0099
:1064800008E0FFE7009801300090EBE701208DF86D
:106490000F00FFE79DF80F0004B080BD81B0002021
:1064A0008DF8020040F6DA70C2F2000001788DF833
:1064B0000110007820B9FFE702208DF8030023E0E7
:1064C00040F6DA71C2F20001002008709DF8010068
:1064D000012810D1FFE740F26C00C2F20000007802
:1064E000C00740B1FFE740F2E860C2F20000007868
:1064F000032804D0FFE725208DF80200FFE79DF870
:1065000002008DF80300FFE79DF8030001B070471B
:1065100080B586B00490039102928DF807300498FC
:1065200020B1FFE703980F2804D8FFE700208DF87B
:1065300017000CE0049805F069F820B1FFE703208C
:106540008DF8170003E000208DF81700FFE79DF895
:10655000170006B080BD000085B0DDF814C08DF8CE
:10656000130003918DF80B20019300208DF8030098
:10657000019A4FF20001C0F20021116005990860F4
:106580009DF8030005B0704780B582B040F6DA7020
:10659000C2F20000007820B1FFE702208DF807006A
:1065A0001AE040F27440C2F200003F21FBF70CFEFB
:1065B00040F6DA71C2F200010120087040F2E86191
:1065C000C2F200010020087040F26C01C2F200012A
:1065D00008708DF80700FFE79DF8070002B080BD46
:1065E00080B58EB00C900B910A920C9808900B9885
:1065F00007900A98069040F6DA70C2F20000007820
:10660000012804D0FFE702208DF83700A9E00B989D
:10661000B8B1FFE70A98A0B1FFE70C984FF200016C
:10662000C0F2002188420CD3FFE70C98400D1028DF
:1066300007D8FFE70A980C99C1F1087188420AD976
:10664000FFE740F6DA71C2F200010220087005206F
:106650008DF8370085E0FFE70698002871D0FFE746
:10666000089840F6FF7188430590059841F20001B3
:10667000CFF6FF510844000B0490049800F0070186
:10668000012088408DF80F009DF82000C0F5807033
:10669000099009980699884203D2FFE7099801906A
:1066A00002E006980190FFE7019809900498C1085C
:1066B00040F27440C2F20000405C9DF80F100842A6
:1066C0001BD1FFE70598FFF735FD50B1FFE740F616
:1066D000DA71C2F20001022008700F208DF8370035
:1066E0003FE09DF80F300498C20840F27441C2F2B6
:1066F0000001885C18438854FFE708980799099AB5
:1067000005F032FE0290029870B1FFE740F6DA71B0
:10671000C2F200010220087002991120022908BF6C
:1067200012208DF837001CE0099908980844089059
:10673000099907980844079009990698401A069005
:106740008AE740F2E861C2F200010320087040F2DB
:106750006C01C2F200010120087000208DF83700A2
:10676000FFE79DF837000EB080BD00004EF688515F
:10677000CEF20001086840F470000860BFF34F8F4C
:10678000BFF36F8F7047000080B582B00190009119
:1067900001A80021FEF772FD019802B080BD000043
:1067A00084B00390029103994FF0804050F821008B
:1067B0000299C84000F00F000190019818B9FFE756
:1067C0000120009002E001980090FFE7009804B0DB
:1067D0007047000080B500200121FDF7A3FA80BDBD
:1067E00080B584B0029002982E21FBF714FD019031
:1067F000019818B9FFE7002003900BE001984DF2D3
:10680000A861C0F20021FBF711FDB0FA80F0400949
:106810000390FFE7039804B080BD000081B08DF8BD
:1068200003009DF8030040F60002C2F200024FF49C
:10683000077110FB012090F82C01002818BF0120DF
:1068400001B0704783B08DF80B009DF80B00302825
:1068500007DBFFE79DF80B1001203A2901901EDBB2
:10686000FFE79DF80B00412807DBFFE79DF80B10C1
:1068700001204729019012DBFFE79DF80B10002053
:106880006129009008DBFFE79DF80B1000206729C5
:10689000B8BF01200090FFE700980190FFE7019842
:1068A00000F0010003B0704780B584B002900298F8
:1068B0002E21FBF7B0FC0190019818B9FFE70020EA
:1068C00003900BE001984DF2AD61C0F20021FBF79F
:1068D000ADFCB0FA80F040090390FFE7039804B0E4
:1068E00080BD000080B586B04FF20000C0F20020ED
:1068F000006802904FF20400C0F20020006801908E
:1069000002980199FEF720FC18B9FFE700200390D8
:1069100016E0019940F6CC60C2F20000016072B648
:1069200002990491049981F30888029905910599C7
:1069300081F3098862B60068804701200390FFE771
:10694000039806B080BD000080B588B00020079095
:106950004FF47A7106918DF81700FDF71FFD42F292
:106960001001C4F21001086820F0800008601520B2
:10697000FDF71CFA46F20001C4F20001086820F499
:10698000FE10086046F24C01C4F20001086840F4B1
:106990007820086002210846FBF77CFFFFE7069895
:1069A000411E069108B1FFE7F9E700200290FDF7CC
:1069B000FDF90120FDF7FAF9029902200390FBF797
:1069C0000DFF0398FBF7E2FE18B9FFE7FFF78AFF18
:1069D000FFE7002001900121FDF7AAFCFDF7E8FB8D
:1069E0004FF46121FEF7AEFCFDF700FC0490049922
:1069F0004DF2CC10C0F2002005F0D4FD019800212A
:106A0000C4F2180100F0F6F8FFE742F210700690A9
:106A10004FF47A7005F056F9FFE70698411E06918B
:106A200008B1FFE7F9E740F6D160C2F20000007854
:106A300070B1FFE79DF8170001308DF817009DF841
:106A40001700042803DBFFE700F0EAFEFFE703E09E
:106A500000208DF81700FFE7D7E7000080B584B06D
:106A60008DF80F008DF80E1002929DF80F004FF474
:106A70001371414340F61C20C2F20000405C014605
:106A80000191022808D0FFE70198032823D0FFE7EF
:106A90000198042825D041E09DF80F0040F61C2203
:106AA000C2F200024FF4137110FB0120C07C40F0D1
:106AB0008000A82800D00CE09DF80F00FCF7BAFA7F
:106AC00030B9FFE79DF80F00012103F0BFFD26E07C
:106AD00000E0FFE723E09DF80F00002103F0B6FD82
:106AE0001DE09DF80F004FF4137200FB02F140F619
:106AF0001C23C2F20003002058549DF80F004FEAF7
:106B0000001C40F6B841C2F2000111F80C1010FB55
:106B1000023204321F2302F00DFC00E0FFE704B054
:106B200080BD000080B584B08DF80F008DF80E1088
:106B300002929DF80F004FF41371414340F61C2060
:106B4000C2F20000405C0146019120B1FFE70198CC
:106B500001282CD04BE09DF80F000299FBF70EFFA7
:106B600020BBFFE7FFE74DF28B20C0F2002005F0CD
:106B700019FD9DF80F0040F61C22C2F200024FF4EE
:106B8000137110FB0120C17C4DF26F20C0F2002078
:106B900005F008FD4DF29E20C0F2002005F002FD38
:106BA000FFE79DF80F0003F0F7FB21E020E09DF8E0
:106BB0000F0040F61C22C2F200024FF4137110FBCA
:106BC0000120C07C40F08000AA2800D00DE09DF894
:106BD0000F000299FCF7E4FA30B9FFE79DF80F00C7
:106BE000012103F033FDFFE700E0FFE700E0FFE7EE
:106BF00004B080BD80B584B08DF80F0002910120F3
:106C000005F02EF805F07EF99DF80F004DF23011D9
:106C1000C0F2002101F0D6FE9DF80F00019040F671
:106C20007441C2F200010222812303F013FC0146E9
:106C3000019801F097FD9DF80F00029949F62D7219
:106C4000C0F2002203F052FB04B080BD80B586B0D4
:106C50008DF8130003910292019303984078014646
:106C60000091FE2809D0FFE70098FF2818D1FFE720
:106C70009DF8130003F0AAFC16E09DF8130040F6FF
:106C80001C22C2F200024FF4137110FB012090F895
:106C9000390002990968087001990120086003E031
:106CA0004FF0FF30059002E000200590FFE70598C7
:106CB00006B080BD80B584B08DF80F008DF80E1041
:106CC00002929DF80E000138014601910B2824D84C
:106CD0000199DFE801F00822222222220D2222223D
:106CE00006071BE01AE09DF80F0003F06FFC15E0AB
:106CF0009DF80F00020140F6B841C2F20001895C24
:106D000040F61C23C2F200034FF4137210FB023250
:106D100004321F2302F00EFB00E0FFE704B080BD49
:106D200080B584B003900291019200F073FD40F2AF
:106D30005400C2F200000078C00708B9FFE724E061
:106D400040F6DC71C2F200010020086040F2C06031
:106D5000C2F2000090F82000032801D1FFE714E000
:106D600003980299019A05F027F940F2C060C2F237
:106D7000000090F82000032801D1FFE705E0039808
:106D80000299019AFFF764FAFFE704B080BD0000A2
:106D900080B582B00190FFF7F7FB8DF803009DF8F6
:106DA000030002B080BD000080B584B0039003985A
:106DB0000190019840F20111FBF706FA00F070FB18
:106DC000019900200870FFF7DFFB8DF80B009DF89C
:106DD0000B0004B080BD000080B58CB0DDF840C071
:106DE000DDF83CC0DDF838C00A900991089207939D
:106DF0000A9809990844069005208DF81700109903
:106E00000020086040F6D870C2F20000007888B117
:106E1000FFE70A9800783A2807D1FFE740F6D871D3
:106E2000C2F200010020087003E000208DF8170076
:106E30000EE2FFE740F6B540C2F20000007838B33A
:106E4000FFE740F6B541C2F2000100200870079844
:106E500040F69041C2F2000104910A780431FBF738
:106E60009AF9049A117807980844079010990868CD
:106E700013781844086040F6C861C2F200014B88DC
:106E8000B2F8010040EA0340127810440860FFE7BE
:106E9000FFE70A980699884200F0D681FFE70A9832
:106EA0000078014603910A2808D0FFE703980D28CF
:106EB00004D0FFE703983A2801D018E0C0E140F67B
:106EC0009040C2F200002521FBF77EF940F6B64162
:106ED000C2F200010020087040F67041C2F20001C9
:106EE000087040F6D061C2F200010870A8E10A986B
:106EF0000078FFF7A7FC40B1FFE740F67040C2F210
:106F000000000078252804D3FFE706208DF817003D
:106F10009EE140F6B640C2F200000078002800F082
:106F20007581FFE70A980078FEF736FA00F00F0C3B
:106F300040F67040C2F20000037840F69042C2F280
:106F40000002D15C41EA0C01D15401780131017099
:106F5000007801280CD1FFE740F69040C2F2000013
:106F60000078212804D3FFE706208DF817006FE191
:106F700040F67040C2F20000007840F69041C2F244
:106F80000001097805318842C0F23F81FFE740F6F1
:106F90009040C2F2000004F07BFB20B9FFE7042020
:106FA0008DF8170054E140F6D060C2F2000000787E
:106FB000002840F02881FFE740F6D061C2F20001CE
:106FC0000120087040F69040C2F200000190B0F835
:106FD000010000F017FC01460198A0F80110C078EC
:106FE000014602910D2800F20C810299DFE811F0B0
:106FF0001C00A900AD000901DB000901090109011C
:10700000090109010E00090109011C0040F6904028
:10701000C2F200000179407940EA012040F25C01AF
:10702000C2F200010880EDE040F25C00C2F2000014
:107030000088D0B1FFE740F25C00C2F20000008897
:1070400040F26001C2F20001098888420DD0FFE7DA
:1070500040F25C00C2F20000008840F25E01C2F221
:1070600000010988884261D1FFE71098006840F666
:107070009041C2F20001097808440E9988420DD966
:10708000FFE740F6B541C2F200010120087002207E
:107090008DF817000A9801300A90D9E040F6C860D0
:1070A000C2F2000001684FF6FF7021EA000040F6CE
:1070B0009042C2F20002B2F80120104488420DD082
:1070C000FFE740F6B541C2F200010120087002203E
:1070D0008DF817000A9801300A90B9E040F6B541E2
:1070E000C2F2000100200870FFE7079840F69041C7
:1070F000C2F2000100910A780431FBF74CF8009AC3
:107100001178079808440790109908681378184474
:10711000086040F6C861C2F200014B88B2F8010075
:1071200040EA034012781044086009E040F6D87144
:10713000C2F200010120087000208DF8170087E0DE
:1071400060E001208DF8170082E007980E99109AF0
:107150001268891AFF22FBF730F840F6C861C2F2C4
:1071600000010868109A1268801A0F9A10600A9835
:1071700001300A900998069B0A9AD21A1044089A7C
:10718000106040F69042C2F200021079527900037A
:1071900040EA0210086002208DF817009DF81700E1
:1071A0008DF82F0072E007980E99109A1268891ACC
:1071B000FF22FBF702F840F6C861C2F2000108683E
:1071C000109A1268801A0F9A10600A9801300A907B
:1071D0000998069B0A9AD21A1044089A106040F641
:1071E0009042C2F2000210795279000640EA024051
:1071F000086002208DF817009DF817008DF82F0009
:1072000044E0FFE7FFE7FFE7FFE70FE00A980078B9
:10721000FEF7C2F8000140F67041C2F200010A78A0
:1072200040F69041C2F200018854FFE740F6B641B3
:10723000C2F200010878B0FA80F040090870FFE758
:107240000A9801300A9024E600208DF81700FFE725
:1072500007980E99109A1268891AFF22FAF7ADFF63
:1072600040F6C860C2F20000006810990968401A30
:107270000F9908600998069A0A99891A084408998A
:1072800008609DF817008DF82F00FFE79DF82F008C
:107290000CB080BD80B584B0039002910192039838
:1072A0000299019A43F69B33984704B080BD0000D1
:1072B00080B584B002900191009202980099084430
:1072C0004002B0F5806F03D9FFE70020039019E07A
:1072D00001984FF40071FAF777FF029870B9FFE751
:1072E000019840F27041C2F2000109684A0140F27F
:1072F0007001C2F20001FAF74EFFFFE7009840026A
:107300000390FFE7039804B080BD000080B586B00D
:107310000490039102924FF400700190049818B108
:10732000FFE7002005900AE00398019A40F2B4417B
:10733000C2F20001FAF72FFF01980590FFE70598C8
:1073400006B080BD83B0029001910092012003B08D
:107350007047000080B586B00490039102924FF40C
:1073600000700190049818B1FFE7002005900AE032
:107370000398019A40F6C841C2F20001FAF70BFFE8
:1073800001980590FFE7059806B080BD80B584B0F0
:107390000390029101920198400200900298009996
:1073A000FAF712FF009804B080BD000082B04FF0E1
:1073B000FF30019041F2E010C2F200000078022894
:1073C00020D1FFE740F2C060C2F2000090F8200038
:1073D00001460091032810D80099DFE801F0020669
:1073E0000A024FF4FA7001900BE044F6206001901D
:1073F00007E04FF4FA70019003E04FF4FA70019047
:10740000FFE73AE041F2E010C2F20000007858B91C
:10741000FFE741F2E110C2F200000078022803D138
:10742000FFE70020019027E041F2E010C2F20000E7
:10743000007801280CD1FFE741F2E110C2F2000010
:107440000078022804D1FFE740F6C410019012E052
:1074500041F2E010C2F20000007801280AD1FFE7F3
:1074600041F2E110C2F20000007818B9FFE70020F5
:107470000190FFE7FFE7FFE7FFE70198013018B948
:10748000FFE700200190FFE740F6DC70C2F2000049
:107490000168019A0020914288BF012002B0704724
:1074A00080B540F69040C2F200002521FAF78CFE2C
:1074B00040F6C861C2F200010020086040F6B64103
:1074C000C2F20001087040F67041C2F2000108707B
:1074D00040F6D061C2F20001087040F6B541C2F238
:1074E0000001087040F25C01C2F20001088040F621
:1074F000D871C2F20001087080BD000083B0029014
:107500008DF807108DF806209DF8061001208840A0
:10751000009002980068009988439DF807109DF834
:107520000620914008430299086003B070470000AC
:1075300085B0049003918DF80B208DF80A309DF8EA
:107540000B10012088400138019001989DF80A1025
:107550008840C0430090049800680099084003994F
:10756000019A11409DF80A2091400843049908604F
:1075700005B0704784B0039002918DF807208DF814
:1075800006309DF807100120884001389DF806104C
:1075900088400090039800680099884302999DF8FC
:1075A0000620914008430399086004B0704700002A
:1075B00080B582B040F6D970C2F20000007820B9E0
:1075C000FFE702208DF8070020E000F0A1F840F26C
:1075D0006400C2F200000068C16840F6D460C2F2E4
:1075E000000088478DF8060040F6D971C2F200010C
:1075F000002008709DF8060018B9FFE704F0CCFCE5
:10760000FFE79DF806008DF80700FFE79DF80700EB
:1076100002B080BD80B582B08DF8060040F6D9700A
:10762000C2F20000007820B1FFE702208DF80700C9
:107630003CE09DF80600022804DBFFE702208DF8FD
:10764000070033E000F066F840F6D460C2F20000B4
:1076500000904FF48271FAF7B7FD009840F6D972A6
:10766000C2F20002012111709DF8062040F20401CF
:10767000C2F2000101EB021240F26401C2F2000109
:107680000A600968496888478DF805009DF805007B
:1076900038B1FFE740F6D971C2F20001032008704B
:1076A000FFE79DF805008DF80700FFE79DF807004C
:1076B00002B080BD80B584B00290019100208DF8A9
:1076C0000300FFE79DF80300012819DCFFE79DF8A0
:1076D0000300010140F20400C2F200004258029887
:1076E0000199904728B1FFE79DF803008DF80F003E
:1076F0000AE0FFE79DF8030001308DF80300E1E7A1
:1077000003208DF80F00FFE79DF80F0004B080BD47
:10771000704700007047000080B582B0009000986C
:1077200000F108014DF24560C0F200200322FAF793
:1077300063FD20B9FFE700208DF8070013E00098F3
:1077400000F108014DF24960C0F200200322FAF76F
:1077500053FD20B9FFE701208DF8070003E0032067
:107760008DF80700FFE79DF8070002B080BD00001C
:1077700080B584B00290019140F6D970C2F2000049
:107780000078012804D0FFE702208DF80F0035E0D3
:10779000FFF7BEFF40F26400C2F200000068836899
:1077A0000299019A40F6D460C2F2000098478DF821
:1077B00003009DF80300132807D1FFE740F6D971B5
:1077C000C2F200010220087011E09DF803001428A5
:1077D00004D0FFE79DF8030008B9FFE706E040F694
:1077E000D971C2F2000103200870FFE7FFE704F03F
:1077F000DBFB9DF803008DF80F00FFE79DF80F00FD
:1078000004B080BD81B0ADF80200BDF8020040BAFE
:1078100001B070477047000072B6704762B670479B
:10782000FDF748FAB0B582B040F2C060C2F2000085
:1078300090F82200C00758B1FFE740F2C061C2F2E1
:107840000001002008604FF0FF328A6088612DE05F
:107850004CF6E86CC0F2002CCDF800C0DCF800005B
:10786000DCF80420DCF80830DCF80CE0DCF8104030
:10787000DCF8145040F2C061C2F2000101914D6188
:107880000C61C1F80CE08B604A600860DCF81800FD
:10789000DCF81C20DCF82030DCF824C0C1F824C05F
:1078A0000B62CA618861FDF793FBFFE702B0B0BDD0
:1078B00080B584B003900291019240F2C060C2F2A0
:1078C000000090F82300C00708B1FFE743E00298EA
:1078D0000199FFF74DFF8DF803009DF80300132871
:1078E00013D1FFE7FFF764FE8DF8030040F2C0619B
:1078F000C2F20001002081F82100012081F823005C
:1079000081F82400FDF75EFC18E09DF803001428C0
:107910000BD1FFE700208DF8030040F2C061C2F2F6
:107920000001012081F8240007E040F2C061C2F2AA
:107930000001002081F82400FFE7FFE7019A40F2F0
:10794000C061C2F200014869104448619DF803001B
:1079500000F008F9FFE704B080BD000080B584B0F6
:107960008DF80F00029140F2C060C2F20000406842
:10797000013060B9FFE7029840F2C061C2F2000135
:1079800048600298013008B1FFE7FFE7FFE740F2E7
:10799000C060C2F2000090F8270003280FD1FFE773
:1079A0009DF80F0040F2C061C2F2000181F827008B
:1079B0009DF80F00032801D0FFE7FFE7FFE70298DB
:1079C00040F2C061C2F200014968884204D0FFE77A
:1079D000032000F0C7F829E09DF80F0040F2C061D5
:1079E000C2F2000191F82710884204D0FFE703207B
:1079F00000F0B8F81AE09DF80F00FFF70BFE8DF8C5
:107A000007009DF8070060B9FFE7029840F2C061E7
:107A1000C2F20001C860012081F8210081F8220033
:107A2000FFE79DF8070000F09DF8FFE704B080BD78
:107A300080B584B00390029101928DF8033040F23A
:107A4000C060C2F2000090F82000032801D1FFE7D7
:107A500085E040F2C060C2F20000006858B9FFE75C
:107A6000039840F2C061C2F200010860039808B1B7
:107A7000FFE7FFE7FFE740F2C060C2F20000806866
:107A8000013060B9FFE7029840F2C061C2F2000124
:107A900088600298013008B1FFE7FFE7FFE740F296
:107AA000C060C2F2000090F8270003280FD1FFE762
:107AB0009DF8030040F2C061C2F2000181F8270086
:107AC0009DF80300032801D0FFE7FFE7FFE70198D7
:107AD00040F2C061C2F200018969884210D2FFE71A
